{
  "address": "0xD2B1AfACBeb1cbCfC34C33cF3ac765C877846E75",
  "abi": [
    {
      "inputs": [
        {
          "internalType": "address",
          "name": "priceFeedAddr",
          "type": "address"
        },
        {
          "internalType": "string",
          "name": "_lowSvg",
          "type": "string"
        },
        {
          "internalType": "string",
          "name": "_highSvg",
          "type": "string"
        }
      ],
      "stateMutability": "nonpayable",
      "type": "constructor"
    },
    {
      "anonymous": false,
      "inputs": [
        {
          "indexed": true,
          "internalType": "address",
          "name": "owner",
          "type": "address"
        },
        {
          "indexed": true,
          "internalType": "address",
          "name": "approved",
          "type": "address"
        },
        {
          "indexed": true,
          "internalType": "uint256",
          "name": "tokenId",
          "type": "uint256"
        }
      ],
      "name": "Approval",
      "type": "event"
    },
    {
      "anonymous": false,
      "inputs": [
        {
          "indexed": true,
          "internalType": "address",
          "name": "owner",
          "type": "address"
        },
        {
          "indexed": true,
          "internalType": "address",
          "name": "operator",
          "type": "address"
        },
        {
          "indexed": false,
          "internalType": "bool",
          "name": "approved",
          "type": "bool"
        }
      ],
      "name": "ApprovalForAll",
      "type": "event"
    },
    {
      "anonymous": false,
      "inputs": [
        {
          "indexed": true,
          "internalType": "uint256",
          "name": "tokenId",
          "type": "uint256"
        },
        {
          "indexed": false,
          "internalType": "int256",
          "name": "highValue",
          "type": "int256"
        }
      ],
      "name": "CreateNFT",
      "type": "event"
    },
    {
      "anonymous": false,
      "inputs": [
        {
          "indexed": true,
          "internalType": "address",
          "name": "from",
          "type": "address"
        },
        {
          "indexed": true,
          "internalType": "address",
          "name": "to",
          "type": "address"
        },
        {
          "indexed": true,
          "internalType": "uint256",
          "name": "tokenId",
          "type": "uint256"
        }
      ],
      "name": "Transfer",
      "type": "event"
    },
    {
      "inputs": [
        {
          "internalType": "address",
          "name": "to",
          "type": "address"
        },
        {
          "internalType": "uint256",
          "name": "tokenId",
          "type": "uint256"
        }
      ],
      "name": "approve",
      "outputs": [],
      "stateMutability": "nonpayable",
      "type": "function"
    },
    {
      "inputs": [
        {
          "internalType": "address",
          "name": "owner",
          "type": "address"
        }
      ],
      "name": "balanceOf",
      "outputs": [
        {
          "internalType": "uint256",
          "name": "",
          "type": "uint256"
        }
      ],
      "stateMutability": "view",
      "type": "function"
    },
    {
      "inputs": [
        {
          "internalType": "uint256",
          "name": "tokenId",
          "type": "uint256"
        }
      ],
      "name": "getApproved",
      "outputs": [
        {
          "internalType": "address",
          "name": "",
          "type": "address"
        }
      ],
      "stateMutability": "view",
      "type": "function"
    },
    {
      "inputs": [
        {
          "internalType": "address",
          "name": "owner",
          "type": "address"
        },
        {
          "internalType": "address",
          "name": "operator",
          "type": "address"
        }
      ],
      "name": "isApprovedForAll",
      "outputs": [
        {
          "internalType": "bool",
          "name": "",
          "type": "bool"
        }
      ],
      "stateMutability": "view",
      "type": "function"
    },
    {
      "inputs": [
        {
          "internalType": "int256",
          "name": "_trigger",
          "type": "int256"
        }
      ],
      "name": "mintNFT",
      "outputs": [],
      "stateMutability": "nonpayable",
      "type": "function"
    },
    {
      "inputs": [],
      "name": "name",
      "outputs": [
        {
          "internalType": "string",
          "name": "",
          "type": "string"
        }
      ],
      "stateMutability": "view",
      "type": "function"
    },
    {
      "inputs": [
        {
          "internalType": "uint256",
          "name": "tokenId",
          "type": "uint256"
        }
      ],
      "name": "ownerOf",
      "outputs": [
        {
          "internalType": "address",
          "name": "",
          "type": "address"
        }
      ],
      "stateMutability": "view",
      "type": "function"
    },
    {
      "inputs": [
        {
          "internalType": "address",
          "name": "from",
          "type": "address"
        },
        {
          "internalType": "address",
          "name": "to",
          "type": "address"
        },
        {
          "internalType": "uint256",
          "name": "tokenId",
          "type": "uint256"
        }
      ],
      "name": "safeTransferFrom",
      "outputs": [],
      "stateMutability": "nonpayable",
      "type": "function"
    },
    {
      "inputs": [
        {
          "internalType": "address",
          "name": "from",
          "type": "address"
        },
        {
          "internalType": "address",
          "name": "to",
          "type": "address"
        },
        {
          "internalType": "uint256",
          "name": "tokenId",
          "type": "uint256"
        },
        {
          "internalType": "bytes",
          "name": "data",
          "type": "bytes"
        }
      ],
      "name": "safeTransferFrom",
      "outputs": [],
      "stateMutability": "nonpayable",
      "type": "function"
    },
    {
      "inputs": [
        {
          "internalType": "address",
          "name": "operator",
          "type": "address"
        },
        {
          "internalType": "bool",
          "name": "approved",
          "type": "bool"
        }
      ],
      "name": "setApprovalForAll",
      "outputs": [],
      "stateMutability": "nonpayable",
      "type": "function"
    },
    {
      "inputs": [
        {
          "internalType": "bytes4",
          "name": "interfaceId",
          "type": "bytes4"
        }
      ],
      "name": "supportsInterface",
      "outputs": [
        {
          "internalType": "bool",
          "name": "",
          "type": "bool"
        }
      ],
      "stateMutability": "view",
      "type": "function"
    },
    {
      "inputs": [
        {
          "internalType": "string",
          "name": "svg",
          "type": "string"
        }
      ],
      "name": "svgToTokenUri",
      "outputs": [
        {
          "internalType": "string",
          "name": "",
          "type": "string"
        }
      ],
      "stateMutability": "pure",
      "type": "function"
    },
    {
      "inputs": [],
      "name": "symbol",
      "outputs": [
        {
          "internalType": "string",
          "name": "",
          "type": "string"
        }
      ],
      "stateMutability": "view",
      "type": "function"
    },
    {
      "inputs": [
        {
          "internalType": "uint256",
          "name": "",
          "type": "uint256"
        }
      ],
      "name": "tokenIdtoTrigger",
      "outputs": [
        {
          "internalType": "int256",
          "name": "",
          "type": "int256"
        }
      ],
      "stateMutability": "view",
      "type": "function"
    },
    {
      "inputs": [
        {
          "internalType": "uint256",
          "name": "tokenId",
          "type": "uint256"
        }
      ],
      "name": "tokenURI",
      "outputs": [
        {
          "internalType": "string",
          "name": "",
          "type": "string"
        }
      ],
      "stateMutability": "view",
      "type": "function"
    },
    {
      "inputs": [
        {
          "internalType": "address",
          "name": "from",
          "type": "address"
        },
        {
          "internalType": "address",
          "name": "to",
          "type": "address"
        },
        {
          "internalType": "uint256",
          "name": "tokenId",
          "type": "uint256"
        }
      ],
      "name": "transferFrom",
      "outputs": [],
      "stateMutability": "nonpayable",
      "type": "function"
    }
  ],
  "transactionHash": "0xa0a83edfc7efe7c0a6632735d45085ad50f448be097f3887cf3cbca2211fe0db",
  "args": [
    "0xD4a33860578De61DBAbDc8BFdb98FD742fA7028e",
    "<?xml version=\"1.0\" standalone=\"no\"?>\r\n<svg width=\"1024px\" height=\"1024px\" viewBox=\"0 0 1024 1024\" xmlns=\"http://www.w3.org/2000/svg\">\r\n  <path fill=\"#333\" d=\"M512 64C264.6 64 64 264.6 64 512s200.6 448 448 448 448-200.6 448-448S759.4 64 512 64zm0 820c-205.4 0-372-166.6-372-372s166.6-372 372-372 372 166.6 372 372-166.6 372-372 372z\"/>\r\n  <path fill=\"#E6E6E6\" d=\"M512 140c-205.4 0-372 166.6-372 372s166.6 372 372 372 372-166.6 372-372-166.6-372-372-372zM288 421a48.01 48.01 0 0 1 96 0 48.01 48.01 0 0 1-96 0zm376 272h-48.1c-4.2 0-7.8-3.2-8.1-7.4C604 636.1 562.5 597 512 597s-92.1 39.1-95.8 88.6c-.3 4.2-3.9 7.4-8.1 7.4H360a8 8 0 0 1-8-8.4c4.4-84.3 74.5-151.6 160-151.6s155.6 67.3 160 151.6a8 8 0 0 1-8 8.4zm24-224a48.01 48.01 0 0 1 0-96 48.01 48.01 0 0 1 0 96z\"/>\r\n  <path fill=\"#333\" d=\"M288 421a48 48 0 1 0 96 0 48 48 0 1 0-96 0zm224 112c-85.5 0-155.6 67.3-160 151.6a8 8 0 0 0 8 8.4h48.1c4.2 0 7.8-3.2 8.1-7.4 3.7-49.5 45.3-88.6 95.8-88.6s92 39.1 95.8 88.6c.3 4.2 3.9 7.4 8.1 7.4H664a8 8 0 0 0 8-8.4C667.6 600.3 597.5 533 512 533zm128-112a48 48 0 1 0 96 0 48 48 0 1 0-96 0z\"/>\r\n</svg>",
    "<svg viewBox=\"0 0 200 200\" width=\"400\"  height=\"400\" xmlns=\"http://www.w3.org/2000/svg\">\r\n  <circle cx=\"100\" cy=\"100\" fill=\"yellow\" r=\"78\" stroke=\"black\" stroke-width=\"3\"/>\r\n  <g class=\"eyes\">\r\n    <circle cx=\"61\" cy=\"82\" r=\"12\"/>\r\n    <circle cx=\"127\" cy=\"82\" r=\"12\"/>\r\n  </g>\r\n  <path d=\"m136.81 116.53c.69 26.17-64.11 42-81.52-.73\" style=\"fill:none; stroke: black; stroke-width: 3;\"/>\r\n</svg>"
  ],
  "numDeployments": 1,
  "solcInputHash": "8f8862be2d191f5df1cfb58346830dea",
  "bytecode": "0x60a06040523480156200001157600080fd5b5060405162003793380380620037938339818101604052810190620000379190620004e2565b6040518060400160405280600f81526020017f44796e616d696320535647204e465400000000000000000000000000000000008152506040518060400160405280600381526020017f444e5300000000000000000000000000000000000000000000000000000000008152508160009080519060200190620000bb9291906200039d565b508060019080519060200190620000d49291906200039d565b5050506000600681905550620000f0826200017160201b60201c565b60079080519060200190620001079291906200039d565b5062000119816200017160201b60201c565b60089080519060200190620001309291906200039d565b508273ffffffffffffffffffffffffffffffffffffffff1660808173ffffffffffffffffffffffffffffffffffffffff1660601b815250505050506200093a565b60606000620001ac836040516020016200018c9190620005b3565b6040516020818303038152906040526200020f60201b62000d691760201c565b90506040518060400160405280601a81526020017f646174613a696d6167652f7376672b786d6c3b6261736536342c00000000000081525081604051602001620001f8929190620005cc565b604051602081830303815290604052915050919050565b6060600082511415620002345760405180602001604052806000815250905062000398565b600060405180606001604052806040815260200162003753604091399050600060036002855162000266919062000669565b620002729190620006c6565b6004620002809190620006fe565b9050600060208262000293919062000669565b67ffffffffffffffff811115620002af57620002ae620008cc565b5b6040519080825280601f01601f191660200182016040528015620002e25781602001600182028036833780820191505090505b509050818152600183018586518101602084015b8183101562000353576003830192508251603f8160121c168501518253600182019150603f81600c1c168501518253600182019150603f8160061c168501518253600182019150603f8116850151825360018201915050620002f6565b60038951066001811462000370576002811462000381576200038c565b613d3d60f01b60028303526200038c565b603d60f81b60018303525b50505050508093505050505b919050565b828054620003ab90620007d3565b90600052602060002090601f016020900481019282620003cf57600085556200041b565b82601f10620003ea57805160ff19168380011785556200041b565b828001600101855582156200041b579182015b828111156200041a578251825591602001919060010190620003fd565b5b5090506200042a91906200042e565b5090565b5b80821115620004495760008160009055506001016200042f565b5090565b6000620004646200045e846200061d565b620005f4565b90508281526020810184848401111562000483576200048262000900565b5b620004908482856200079d565b509392505050565b600081519050620004a98162000920565b92915050565b600082601f830112620004c757620004c6620008fb565b5b8151620004d98482602086016200044d565b91505092915050565b600080600060608486031215620004fe57620004fd6200090a565b5b60006200050e8682870162000498565b935050602084015167ffffffffffffffff81111562000532576200053162000905565b5b6200054086828701620004af565b925050604084015167ffffffffffffffff81111562000564576200056362000905565b5b6200057286828701620004af565b9150509250925092565b6000620005898262000653565b6200059581856200065e565b9350620005a78185602086016200079d565b80840191505092915050565b6000620005c182846200057c565b915081905092915050565b6000620005da82856200057c565b9150620005e882846200057c565b91508190509392505050565b60006200060062000613565b90506200060e828262000809565b919050565b6000604051905090565b600067ffffffffffffffff8211156200063b576200063a620008cc565b5b62000646826200090f565b9050602081019050919050565b600081519050919050565b600081905092915050565b6000620006768262000793565b9150620006838362000793565b9250827fffffffffffffffffffffffffffffffffffffffffffffffffffffffffffffffff03821115620006bb57620006ba6200083f565b5b828201905092915050565b6000620006d38262000793565b9150620006e08362000793565b925082620006f357620006f26200086e565b5b828204905092915050565b60006200070b8262000793565b9150620007188362000793565b9250817fffffffffffffffffffffffffffffffffffffffffffffffffffffffffffffffff04831182151516156200075457620007536200083f565b5b828202905092915050565b60006200076c8262000773565b9050919050565b600073ffffffffffffffffffffffffffffffffffffffff82169050919050565b6000819050919050565b60005b83811015620007bd578082015181840152602081019050620007a0565b83811115620007cd576000848401525b50505050565b60006002820490506001821680620007ec57607f821691505b602082108114156200080357620008026200089d565b5b50919050565b62000814826200090f565b810181811067ffffffffffffffff82111715620008365762000835620008cc565b5b80604052505050565b7f4e487b7100000000000000000000000000000000000000000000000000000000600052601160045260246000fd5b7f4e487b7100000000000000000000000000000000000000000000000000000000600052601260045260246000fd5b7f4e487b7100000000000000000000000000000000000000000000000000000000600052602260045260246000fd5b7f4e487b7100000000000000000000000000000000000000000000000000000000600052604160045260246000fd5b600080fd5b600080fd5b600080fd5b600080fd5b6000601f19601f8301169050919050565b6200092b816200075f565b81146200093757600080fd5b50565b60805160601c612dfa6200095960003960006109950152612dfa6000f3fe608060405234801561001057600080fd5b50600436106101005760003560e01c80637fc2be9f11610097578063c87b56dd11610066578063c87b56dd146102bd578063e2ed50cb146102ed578063e5aa53be14610309578063e985e9c51461033957610100565b80637fc2be9f1461023757806395d89b4114610267578063a22cb46514610285578063b88d4fde146102a157610100565b806323b872dd116100d357806323b872dd1461019f57806342842e0e146101bb5780636352211e146101d757806370a082311461020757610100565b806301ffc9a71461010557806306fdde0314610135578063081812fc14610153578063095ea7b314610183575b600080fd5b61011f600480360381019061011a9190611d3d565b610369565b60405161012c91906122b6565b60405180910390f35b61013d61044b565b60405161014a91906122ec565b60405180910390f35b61016d60048036038101906101689190611e0d565b6104dd565b60405161017a919061224f565b60405180910390f35b61019d60048036038101906101989190611cfd565b610523565b005b6101b960048036038101906101b49190611be7565b61063b565b005b6101d560048036038101906101d09190611be7565b61069b565b005b6101f160048036038101906101ec9190611e0d565b6106bb565b6040516101fe919061224f565b60405180910390f35b610221600480360381019061021c9190611b7a565b61076d565b60405161022e919061248e565b60405180910390f35b610251600480360381019061024c9190611e0d565b610825565b60405161025e91906122d1565b60405180910390f35b61026f61083d565b60405161027c91906122ec565b60405180910390f35b61029f600480360381019061029a9190611cbd565b6108cf565b005b6102bb60048036038101906102b69190611c3a565b6108e5565b005b6102d760048036038101906102d29190611e0d565b610947565b6040516102e491906122ec565b60405180910390f35b61030760048036038101906103029190611d97565b610bd0565b005b610323600480360381019061031e9190611dc4565b610c48565b60405161033091906122ec565b60405180910390f35b610353600480360381019061034e9190611ba7565b610cd5565b60405161036091906122b6565b60405180910390f35b60007f80ac58cd000000000000000000000000000000000000000000000000000000007bffffffffffffffffffffffffffffffffffffffffffffffffffffffff1916827bffffffffffffffffffffffffffffffffffffffffffffffffffffffff1916148061043457507f5b5e139f000000000000000000000000000000000000000000000000000000007bffffffffffffffffffffffffffffffffffffffffffffffffffffffff1916827bffffffffffffffffffffffffffffffffffffffffffffffffffffffff1916145b80610444575061044382610ee2565b5b9050919050565b60606000805461045a9061275e565b80601f01602080910402602001604051908101604052809291908181526020018280546104869061275e565b80156104d35780601f106104a8576101008083540402835291602001916104d3565b820191906000526020600020905b8154815290600101906020018083116104b657829003601f168201915b5050505050905090565b60006104e882610f4c565b6004600083815260200190815260200160002060009054906101000a900473ffffffffffffffffffffffffffffffffffffffff169050919050565b600061052e826106bb565b90508073ffffffffffffffffffffffffffffffffffffffff168373ffffffffffffffffffffffffffffffffffffffff16141561059f576040517f08c379a00000000000000000000000000000000000000000000000000000000081526004016105969061244e565b60405180910390fd5b8073ffffffffffffffffffffffffffffffffffffffff166105be610f97565b73ffffffffffffffffffffffffffffffffffffffff1614806105ed57506105ec816105e7610f97565b610cd5565b5b61062c576040517f08c379a0000000000000000000000000000000000000000000000000000000008152600401610623906123ee565b60405180910390fd5b6106368383610f9f565b505050565b61064c610646610f97565b82611058565b61068b576040517f08c379a00000000000000000000000000000000000000000000000000000000081526004016106829061246e565b60405180910390fd5b6106968383836110ed565b505050565b6106b6838383604051806020016040528060008152506108e5565b505050565b6000806002600084815260200190815260200160002060009054906101000a900473ffffffffffffffffffffffffffffffffffffffff169050600073ffffffffffffffffffffffffffffffffffffffff168173ffffffffffffffffffffffffffffffffffffffff161415610764576040517f08c379a000000000000000000000000000000000000000000000000000000000815260040161075b9061242e565b60405180910390fd5b80915050919050565b60008073ffffffffffffffffffffffffffffffffffffffff168273ffffffffffffffffffffffffffffffffffffffff1614156107de576040517f08c379a00000000000000000000000000000000000000000000000000000000081526004016107d5906123ce565b60405180910390fd5b600360008373ffffffffffffffffffffffffffffffffffffffff1673ffffffffffffffffffffffffffffffffffffffff168152602001908152602001600020549050919050565b60096020528060005260406000206000915090505481565b60606001805461084c9061275e565b80601f01602080910402602001604051908101604052809291908181526020018280546108789061275e565b80156108c55780601f1061089a576101008083540402835291602001916108c5565b820191906000526020600020905b8154815290600101906020018083116108a857829003601f168201915b5050505050905090565b6108e16108da610f97565b8383611354565b5050565b6108f66108f0610f97565b83611058565b610935576040517f08c379a000000000000000000000000000000000000000000000000000000000815260040161092c9061246e565b60405180910390fd5b610941848484846114c1565b50505050565b60606109528261151d565b610991576040517f08c379a00000000000000000000000000000000000000000000000000000000081526004016109889061230e565b60405180910390fd5b60007f000000000000000000000000000000000000000000000000000000000000000073ffffffffffffffffffffffffffffffffffffffff1663feaf968c6040518163ffffffff1660e01b815260040160a06040518083038186803b1580156109f957600080fd5b505afa158015610a0d573d6000803e3d6000fd5b505050506040513d601f19601f82011682018060405250810190610a319190611e3a565b505050915050600060078054610a469061275e565b80601f0160208091040260200160405190810160405280929190818152602001828054610a729061275e565b8015610abf5780601f10610a9457610100808354040283529160200191610abf565b820191906000526020600020905b815481529060010190602001808311610aa257829003601f168201915b5050505050905060096000858152602001908152602001600020548212610b6e5760088054610aed9061275e565b80601f0160208091040260200160405190810160405280929190818152602001828054610b199061275e565b8015610b665780601f10610b3b57610100808354040283529160200191610b66565b820191906000526020600020905b815481529060010190602001808311610b4957829003601f168201915b505050505090505b610b76611589565b610ba7610b8161044b565b83604051602001610b939291906121ff565b604051602081830303815290604052610d69565b604051602001610bb89291906121db565b60405160208183030381529060405292505050919050565b80600960006006548152602001908152602001600020819055506001600654610bf99190612573565b600681905550610c0b336006546115c6565b6006547f9e14bc3e97903853717e5de268cf79a0d96e10198463629671e4c60ac29cba0d82604051610c3d91906122d1565b60405180910390a250565b60606000610c7483604051602001610c6091906121c4565b604051602081830303815290604052610d69565b90506040518060400160405280601a81526020017f646174613a696d6167652f7376672b786d6c3b6261736536342c00000000000081525081604051602001610cbe9291906121db565b604051602081830303815290604052915050919050565b6000600560008473ffffffffffffffffffffffffffffffffffffffff1673ffffffffffffffffffffffffffffffffffffffff16815260200190815260200160002060008373ffffffffffffffffffffffffffffffffffffffff1673ffffffffffffffffffffffffffffffffffffffff16815260200190815260200160002060009054906101000a900460ff16905092915050565b6060600082511415610d8c57604051806020016040528060008152509050610edd565b6000604051806060016040528060408152602001612d856040913990506000600360028551610dbb9190612573565b610dc591906125c9565b6004610dd191906125fa565b90506000602082610de29190612573565b67ffffffffffffffff811115610dfb57610dfa61284e565b5b6040519080825280601f01601f191660200182016040528015610e2d5781602001600182028036833780820191505090505b509050818152600183018586518101602084015b81831015610e9c576003830192508251603f8160121c168501518253600182019150603f81600c1c168501518253600182019150603f8160061c168501518253600182019150603f8116850151825360018201915050610e41565b600389510660018114610eb65760028114610ec657610ed1565b613d3d60f01b6002830352610ed1565b603d60f81b60018303525b50505050508093505050505b919050565b60007f01ffc9a7000000000000000000000000000000000000000000000000000000007bffffffffffffffffffffffffffffffffffffffffffffffffffffffff1916827bffffffffffffffffffffffffffffffffffffffffffffffffffffffff1916149050919050565b610f558161151d565b610f94576040517f08c379a0000000000000000000000000000000000000000000000000000000008152600401610f8b9061242e565b60405180910390fd5b50565b600033905090565b816004600083815260200190815260200160002060006101000a81548173ffffffffffffffffffffffffffffffffffffffff021916908373ffffffffffffffffffffffffffffffffffffffff160217905550808273ffffffffffffffffffffffffffffffffffffffff16611012836106bb565b73ffffffffffffffffffffffffffffffffffffffff167f8c5be1e5ebec7d5bd14f71427d1e84f3dd0314c0f7b2291e5b200ac8c7c3b92560405160405180910390a45050565b600080611064836106bb565b90508073ffffffffffffffffffffffffffffffffffffffff168473ffffffffffffffffffffffffffffffffffffffff1614806110a657506110a58185610cd5565b5b806110e457508373ffffffffffffffffffffffffffffffffffffffff166110cc846104dd565b73ffffffffffffffffffffffffffffffffffffffff16145b91505092915050565b8273ffffffffffffffffffffffffffffffffffffffff1661110d826106bb565b73ffffffffffffffffffffffffffffffffffffffff1614611163576040517f08c379a000000000000000000000000000000000000000000000000000000000815260040161115a9061234e565b60405180910390fd5b600073ffffffffffffffffffffffffffffffffffffffff168273ffffffffffffffffffffffffffffffffffffffff1614156111d3576040517f08c379a00000000000000000000000000000000000000000000000000000000081526004016111ca9061238e565b60405180910390fd5b6111de8383836115e4565b6111e9600082610f9f565b6001600360008573ffffffffffffffffffffffffffffffffffffffff1673ffffffffffffffffffffffffffffffffffffffff16815260200190815260200160002060008282546112399190612654565b925050819055506001600360008473ffffffffffffffffffffffffffffffffffffffff1673ffffffffffffffffffffffffffffffffffffffff16815260200190815260200160002060008282546112909190612573565b92505081905550816002600083815260200190815260200160002060006101000a81548173ffffffffffffffffffffffffffffffffffffffff021916908373ffffffffffffffffffffffffffffffffffffffff160217905550808273ffffffffffffffffffffffffffffffffffffffff168473ffffffffffffffffffffffffffffffffffffffff167fddf252ad1be2c89b69c2b068fc378daa952ba7f163c4a11628f55a4df523b3ef60405160405180910390a461134f8383836115e9565b505050565b8173ffffffffffffffffffffffffffffffffffffffff168373ffffffffffffffffffffffffffffffffffffffff1614156113c3576040517f08c379a00000000000000000000000000000000000000000000000000000000081526004016113ba906123ae565b60405180910390fd5b80600560008573ffffffffffffffffffffffffffffffffffffffff1673ffffffffffffffffffffffffffffffffffffffff16815260200190815260200160002060008473ffffffffffffffffffffffffffffffffffffffff1673ffffffffffffffffffffffffffffffffffffffff16815260200190815260200160002060006101000a81548160ff0219169083151502179055508173ffffffffffffffffffffffffffffffffffffffff168373ffffffffffffffffffffffffffffffffffffffff167f17307eab39ab6107e8899845ad3d59bd9653f200f220920489ca2b5937696c31836040516114b491906122b6565b60405180910390a3505050565b6114cc8484846110ed565b6114d8848484846115ee565b611517576040517f08c379a000000000000000000000000000000000000000000000000000000000815260040161150e9061232e565b60405180910390fd5b50505050565b60008073ffffffffffffffffffffffffffffffffffffffff166002600084815260200190815260200160002060009054906101000a900473ffffffffffffffffffffffffffffffffffffffff1673ffffffffffffffffffffffffffffffffffffffff1614159050919050565b60606040518060400160405280601d81526020017f646174613a6170706c69636174696f6e2f6a736f6e3b6261736536342c000000815250905090565b6115e0828260405180602001604052806000815250611785565b5050565b505050565b505050565b600061160f8473ffffffffffffffffffffffffffffffffffffffff166117e0565b15611778578373ffffffffffffffffffffffffffffffffffffffff1663150b7a02611638610f97565b8786866040518563ffffffff1660e01b815260040161165a949392919061226a565b602060405180830381600087803b15801561167457600080fd5b505af19250505080156116a557506040513d601f19601f820116820180604052508101906116a29190611d6a565b60015b611728573d80600081146116d5576040519150601f19603f3d011682016040523d82523d6000602084013e6116da565b606091505b50600081511415611720576040517f08c379a00000000000000000000000000000000000000000000000000000000081526004016117179061232e565b60405180910390fd5b805181602001fd5b63150b7a0260e01b7bffffffffffffffffffffffffffffffffffffffffffffffffffffffff1916817bffffffffffffffffffffffffffffffffffffffffffffffffffffffff19161491505061177d565b600190505b949350505050565b61178f8383611803565b61179c60008484846115ee565b6117db576040517f08c379a00000000000000000000000000000000000000000000000000000000081526004016117d29061232e565b60405180910390fd5b505050565b6000808273ffffffffffffffffffffffffffffffffffffffff163b119050919050565b600073ffffffffffffffffffffffffffffffffffffffff168273ffffffffffffffffffffffffffffffffffffffff161415611873576040517f08c379a000000000000000000000000000000000000000000000000000000000815260040161186a9061240e565b60405180910390fd5b61187c8161151d565b156118bc576040517f08c379a00000000000000000000000000000000000000000000000000000000081526004016118b39061236e565b60405180910390fd5b6118c8600083836115e4565b6001600360008473ffffffffffffffffffffffffffffffffffffffff1673ffffffffffffffffffffffffffffffffffffffff16815260200190815260200160002060008282546119189190612573565b92505081905550816002600083815260200190815260200160002060006101000a81548173ffffffffffffffffffffffffffffffffffffffff021916908373ffffffffffffffffffffffffffffffffffffffff160217905550808273ffffffffffffffffffffffffffffffffffffffff16600073ffffffffffffffffffffffffffffffffffffffff167fddf252ad1be2c89b69c2b068fc378daa952ba7f163c4a11628f55a4df523b3ef60405160405180910390a46119d9600083836115e9565b5050565b60006119f06119eb846124ce565b6124a9565b905082815260208101848484011115611a0c57611a0b612882565b5b611a1784828561271c565b509392505050565b6000611a32611a2d846124ff565b6124a9565b905082815260208101848484011115611a4e57611a4d612882565b5b611a5984828561271c565b509392505050565b600081359050611a7081612cfa565b92915050565b600081359050611a8581612d11565b92915050565b600081359050611a9a81612d28565b92915050565b600081519050611aaf81612d28565b92915050565b600082601f830112611aca57611ac961287d565b5b8135611ada8482602086016119dd565b91505092915050565b600081359050611af281612d3f565b92915050565b600081519050611b0781612d3f565b92915050565b600082601f830112611b2257611b2161287d565b5b8135611b32848260208601611a1f565b91505092915050565b600081359050611b4a81612d56565b92915050565b600081519050611b5f81612d56565b92915050565b600081519050611b7481612d6d565b92915050565b600060208284031215611b9057611b8f61288c565b5b6000611b9e84828501611a61565b91505092915050565b60008060408385031215611bbe57611bbd61288c565b5b6000611bcc85828601611a61565b9250506020611bdd85828601611a61565b9150509250929050565b600080600060608486031215611c0057611bff61288c565b5b6000611c0e86828701611a61565b9350506020611c1f86828701611a61565b9250506040611c3086828701611b3b565b9150509250925092565b60008060008060808587031215611c5457611c5361288c565b5b6000611c6287828801611a61565b9450506020611c7387828801611a61565b9350506040611c8487828801611b3b565b925050606085013567ffffffffffffffff811115611ca557611ca4612887565b5b611cb187828801611ab5565b91505092959194509250565b60008060408385031215611cd457611cd361288c565b5b6000611ce285828601611a61565b9250506020611cf385828601611a76565b9150509250929050565b60008060408385031215611d1457611d1361288c565b5b6000611d2285828601611a61565b9250506020611d3385828601611b3b565b9150509250929050565b600060208284031215611d5357611d5261288c565b5b6000611d6184828501611a8b565b91505092915050565b600060208284031215611d8057611d7f61288c565b5b6000611d8e84828501611aa0565b91505092915050565b600060208284031215611dad57611dac61288c565b5b6000611dbb84828501611ae3565b91505092915050565b600060208284031215611dda57611dd961288c565b5b600082013567ffffffffffffffff811115611df857611df7612887565b5b611e0484828501611b0d565b91505092915050565b600060208284031215611e2357611e2261288c565b5b6000611e3184828501611b3b565b91505092915050565b600080600080600060a08688031215611e5657611e5561288c565b5b6000611e6488828901611b65565b9550506020611e7588828901611af8565b9450506040611e8688828901611b50565b9350506060611e9788828901611b50565b9250506080611ea888828901611b65565b9150509295509295909350565b611ebe81612688565b82525050565b611ecd8161269a565b82525050565b6000611ede82612530565b611ee88185612546565b9350611ef881856020860161272b565b611f0181612891565b840191505092915050565b611f15816126d2565b82525050565b6000611f268261253b565b611f308185612557565b9350611f4081856020860161272b565b611f4981612891565b840191505092915050565b6000611f5f8261253b565b611f698185612568565b9350611f7981856020860161272b565b80840191505092915050565b6000611f92600983612568565b9150611f9d826128a2565b600982019050919050565b6000611fb5604183612557565b9150611fc0826128cb565b606082019050919050565b6000611fd8603283612557565b9150611fe382612940565b604082019050919050565b6000611ffb602583612557565b91506120068261298f565b604082019050919050565b600061201e601c83612557565b9150612029826129de565b602082019050919050565b6000612041604583612568565b915061204c82612a07565b604582019050919050565b6000612064602483612557565b915061206f82612a7c565b604082019050919050565b6000612087601983612557565b915061209282612acb565b602082019050919050565b60006120aa602983612557565b91506120b582612af4565b604082019050919050565b60006120cd600283612568565b91506120d882612b43565b600282019050919050565b60006120f0603e83612557565b91506120fb82612b6c565b604082019050919050565b6000612113602083612557565b915061211e82612bbb565b602082019050919050565b6000612136601883612557565b915061214182612be4565b602082019050919050565b6000612159602183612557565b915061216482612c0d565b604082019050919050565b600061217c604083612568565b915061218782612c5c565b604082019050919050565b600061219f602e83612557565b91506121aa82612cab565b604082019050919050565b6121be816126fc565b82525050565b60006121d08284611f54565b915081905092915050565b60006121e78285611f54565b91506121f38284611f54565b91508190509392505050565b600061220a82611f85565b91506122168285611f54565b915061222182612034565b915061222c8261216f565b91506122388284611f54565b9150612243826120c0565b91508190509392505050565b60006020820190506122646000830184611eb5565b92915050565b600060808201905061227f6000830187611eb5565b61228c6020830186611eb5565b61229960408301856121b5565b81810360608301526122ab8184611ed3565b905095945050505050565b60006020820190506122cb6000830184611ec4565b92915050565b60006020820190506122e66000830184611f0c565b92915050565b600060208201905081810360008301526123068184611f1b565b905092915050565b6000602082019050818103600083015261232781611fa8565b9050919050565b6000602082019050818103600083015261234781611fcb565b9050919050565b6000602082019050818103600083015261236781611fee565b9050919050565b6000602082019050818103600083015261238781612011565b9050919050565b600060208201905081810360008301526123a781612057565b9050919050565b600060208201905081810360008301526123c78161207a565b9050919050565b600060208201905081810360008301526123e78161209d565b9050919050565b60006020820190508181036000830152612407816120e3565b9050919050565b6000602082019050818103600083015261242781612106565b9050919050565b6000602082019050818103600083015261244781612129565b9050919050565b600060208201905081810360008301526124678161214c565b9050919050565b6000602082019050818103600083015261248781612192565b9050919050565b60006020820190506124a360008301846121b5565b92915050565b60006124b36124c4565b90506124bf8282612790565b919050565b6000604051905090565b600067ffffffffffffffff8211156124e9576124e861284e565b5b6124f282612891565b9050602081019050919050565b600067ffffffffffffffff82111561251a5761251961284e565b5b61252382612891565b9050602081019050919050565b600081519050919050565b600081519050919050565b600082825260208201905092915050565b600082825260208201905092915050565b600081905092915050565b600061257e826126fc565b9150612589836126fc565b9250827fffffffffffffffffffffffffffffffffffffffffffffffffffffffffffffffff038211156125be576125bd6127c1565b5b828201905092915050565b60006125d4826126fc565b91506125df836126fc565b9250826125ef576125ee6127f0565b5b828204905092915050565b6000612605826126fc565b9150612610836126fc565b9250817fffffffffffffffffffffffffffffffffffffffffffffffffffffffffffffffff0483118215151615612649576126486127c1565b5b828202905092915050565b600061265f826126fc565b915061266a836126fc565b92508282101561267d5761267c6127c1565b5b828203905092915050565b6000612693826126dc565b9050919050565b60008115159050919050565b60007fffffffff0000000000000000000000000000000000000000000000000000000082169050919050565b6000819050919050565b600073ffffffffffffffffffffffffffffffffffffffff82169050919050565b6000819050919050565b600069ffffffffffffffffffff82169050919050565b82818337600083830152505050565b60005b8381101561274957808201518184015260208101905061272e565b83811115612758576000848401525b50505050565b6000600282049050600182168061277657607f821691505b6020821081141561278a5761278961281f565b5b50919050565b61279982612891565b810181811067ffffffffffffffff821117156127b8576127b761284e565b5b80604052505050565b7f4e487b7100000000000000000000000000000000000000000000000000000000600052601160045260246000fd5b7f4e487b7100000000000000000000000000000000000000000000000000000000600052601260045260246000fd5b7f4e487b7100000000000000000000000000000000000000000000000000000000600052602260045260246000fd5b7f4e487b7100000000000000000000000000000000000000000000000000000000600052604160045260246000fd5b600080fd5b600080fd5b600080fd5b600080fd5b6000601f19601f8301169050919050565b7f7b226e616d65223a220000000000000000000000000000000000000000000000600082015250565b7f6e6f6e2065736973746520696c20746f636b656e2070657220696c207175616c60008201527f65207669656e65206661747461206c612072696368696573746120646920555260208201527f4900000000000000000000000000000000000000000000000000000000000000604082015250565b7f4552433732313a207472616e7366657220746f206e6f6e20455243373231526560008201527f63656976657220696d706c656d656e7465720000000000000000000000000000602082015250565b7f4552433732313a207472616e736665722066726f6d20696e636f72726563742060008201527f6f776e6572000000000000000000000000000000000000000000000000000000602082015250565b7f4552433732313a20746f6b656e20616c7265616479206d696e74656400000000600082015250565b7f222c20226465736372697074696f6e223a22616e204e4654207468617420636860008201527f616e6765206f6e206261736564206f6e2074686520436861696e6c696e6b206660208201527f6565642c22000000000000000000000000000000000000000000000000000000604082015250565b7f4552433732313a207472616e7366657220746f20746865207a65726f2061646460008201527f7265737300000000000000000000000000000000000000000000000000000000602082015250565b7f4552433732313a20617070726f766520746f2063616c6c657200000000000000600082015250565b7f4552433732313a2061646472657373207a65726f206973206e6f74206120766160008201527f6c6964206f776e65720000000000000000000000000000000000000000000000602082015250565b7f227d000000000000000000000000000000000000000000000000000000000000600082015250565b7f4552433732313a20617070726f76652063616c6c6572206973206e6f7420746f60008201527f6b656e206f776e6572206e6f7220617070726f76656420666f7220616c6c0000602082015250565b7f4552433732313a206d696e7420746f20746865207a65726f2061646472657373600082015250565b7f4552433732313a20696e76616c696420746f6b656e2049440000000000000000600082015250565b7f4552433732313a20617070726f76616c20746f2063757272656e74206f776e6560008201527f7200000000000000000000000000000000000000000000000000000000000000602082015250565b7f2261747472696275746573223a205b7b2274726169745f74797065223a22636f60008201527f6f6c6e657373222c2276616c7565223a3130307d5d2c2022696d616765223a22602082015250565b7f4552433732313a2063616c6c6572206973206e6f7420746f6b656e206f776e6560008201527f72206e6f7220617070726f766564000000000000000000000000000000000000602082015250565b612d0381612688565b8114612d0e57600080fd5b50565b612d1a8161269a565b8114612d2557600080fd5b50565b612d31816126a6565b8114612d3c57600080fd5b50565b612d48816126d2565b8114612d5357600080fd5b50565b612d5f816126fc565b8114612d6a57600080fd5b50565b612d7681612706565b8114612d8157600080fd5b5056fe4142434445464748494a4b4c4d4e4f505152535455565758595a6162636465666768696a6b6c6d6e6f707172737475767778797a303132333435363738392b2fa264697066735822122029fc74ce86c97d1c242be961892e5eba41616db44d645f5ec5e747a7634d7d9864736f6c634300080700334142434445464748494a4b4c4d4e4f505152535455565758595a6162636465666768696a6b6c6d6e6f707172737475767778797a303132333435363738392b2f",
  "devdoc": {
    "kind": "dev",
    "methods": {
      "approve(address,uint256)": {
        "details": "See {IERC721-approve}."
      },
      "balanceOf(address)": {
        "details": "See {IERC721-balanceOf}."
      },
      "getApproved(uint256)": {
        "details": "See {IERC721-getApproved}."
      },
      "isApprovedForAll(address,address)": {
        "details": "See {IERC721-isApprovedForAll}."
      },
      "name()": {
        "details": "See {IERC721Metadata-name}."
      },
      "ownerOf(uint256)": {
        "details": "See {IERC721-ownerOf}."
      },
      "safeTransferFrom(address,address,uint256)": {
        "details": "See {IERC721-safeTransferFrom}."
      },
      "safeTransferFrom(address,address,uint256,bytes)": {
        "details": "See {IERC721-safeTransferFrom}."
      },
      "setApprovalForAll(address,bool)": {
        "details": "See {IERC721-setApprovalForAll}."
      },
      "supportsInterface(bytes4)": {
        "details": "See {IERC165-supportsInterface}."
      },
      "symbol()": {
        "details": "See {IERC721Metadata-symbol}."
      },
      "tokenURI(uint256)": {
        "details": "See {IERC721Metadata-tokenURI}."
      },
      "transferFrom(address,address,uint256)": {
        "details": "See {IERC721-transferFrom}."
      }
    },
    "version": 1
  },
  "userdoc": {
    "kind": "user",
    "methods": {},
    "version": 1
  },
  "storageLayout": {
    "storage": [
      {
        "astId": 1183,
        "contract": "contracts/DynamicSVGNFT.sol:DynamicSVGNFT",
        "label": "_name",
        "offset": 0,
        "slot": "0",
        "type": "t_string_storage"
      },
      {
        "astId": 1185,
        "contract": "contracts/DynamicSVGNFT.sol:DynamicSVGNFT",
        "label": "_symbol",
        "offset": 0,
        "slot": "1",
        "type": "t_string_storage"
      },
      {
        "astId": 1189,
        "contract": "contracts/DynamicSVGNFT.sol:DynamicSVGNFT",
        "label": "_owners",
        "offset": 0,
        "slot": "2",
        "type": "t_mapping(t_uint256,t_address)"
      },
      {
        "astId": 1193,
        "contract": "contracts/DynamicSVGNFT.sol:DynamicSVGNFT",
        "label": "_balances",
        "offset": 0,
        "slot": "3",
        "type": "t_mapping(t_address,t_uint256)"
      },
      {
        "astId": 1197,
        "contract": "contracts/DynamicSVGNFT.sol:DynamicSVGNFT",
        "label": "_tokenApprovals",
        "offset": 0,
        "slot": "4",
        "type": "t_mapping(t_uint256,t_address)"
      },
      {
        "astId": 1203,
        "contract": "contracts/DynamicSVGNFT.sol:DynamicSVGNFT",
        "label": "_operatorApprovals",
        "offset": 0,
        "slot": "5",
        "type": "t_mapping(t_address,t_mapping(t_address,t_bool))"
      },
      {
        "astId": 3071,
        "contract": "contracts/DynamicSVGNFT.sol:DynamicSVGNFT",
        "label": "tokenCounter",
        "offset": 0,
        "slot": "6",
        "type": "t_uint256"
      },
      {
        "astId": 3073,
        "contract": "contracts/DynamicSVGNFT.sol:DynamicSVGNFT",
        "label": "lowImageURI",
        "offset": 0,
        "slot": "7",
        "type": "t_string_storage"
      },
      {
        "astId": 3075,
        "contract": "contracts/DynamicSVGNFT.sol:DynamicSVGNFT",
        "label": "highImageURI",
        "offset": 0,
        "slot": "8",
        "type": "t_string_storage"
      },
      {
        "astId": 3085,
        "contract": "contracts/DynamicSVGNFT.sol:DynamicSVGNFT",
        "label": "tokenIdtoTrigger",
        "offset": 0,
        "slot": "9",
        "type": "t_mapping(t_uint256,t_int256)"
      }
    ],
    "types": {
      "t_address": {
        "encoding": "inplace",
        "label": "address",
        "numberOfBytes": "20"
      },
      "t_bool": {
        "encoding": "inplace",
        "label": "bool",
        "numberOfBytes": "1"
      },
      "t_int256": {
        "encoding": "inplace",
        "label": "int256",
        "numberOfBytes": "32"
      },
      "t_mapping(t_address,t_bool)": {
        "encoding": "mapping",
        "key": "t_address",
        "label": "mapping(address => bool)",
        "numberOfBytes": "32",
        "value": "t_bool"
      },
      "t_mapping(t_address,t_mapping(t_address,t_bool))": {
        "encoding": "mapping",
        "key": "t_address",
        "label": "mapping(address => mapping(address => bool))",
        "numberOfBytes": "32",
        "value": "t_mapping(t_address,t_bool)"
      },
      "t_mapping(t_address,t_uint256)": {
        "encoding": "mapping",
        "key": "t_address",
        "label": "mapping(address => uint256)",
        "numberOfBytes": "32",
        "value": "t_uint256"
      },
      "t_mapping(t_uint256,t_address)": {
        "encoding": "mapping",
        "key": "t_uint256",
        "label": "mapping(uint256 => address)",
        "numberOfBytes": "32",
        "value": "t_address"
      },
      "t_mapping(t_uint256,t_int256)": {
        "encoding": "mapping",
        "key": "t_uint256",
        "label": "mapping(uint256 => int256)",
        "numberOfBytes": "32",
        "value": "t_int256"
      },
      "t_string_storage": {
        "encoding": "bytes",
        "label": "string",
        "numberOfBytes": "32"
      },
      "t_uint256": {
        "encoding": "inplace",
        "label": "uint256",
        "numberOfBytes": "32"
      }
    }
  }
}