{
  "address": "0xaaC802d4DAA45733292E71A153aE621765055257",
  "abi": [
    {
      "inputs": [
        {
          "internalType": "address",
          "name": "priceFeedAddr",
          "type": "address"
        },
        {
          "internalType": "string",
          "name": "_lowSvg",
          "type": "string"
        },
        {
          "internalType": "string",
          "name": "_highSvg",
          "type": "string"
        }
      ],
      "stateMutability": "nonpayable",
      "type": "constructor"
    },
    {
      "anonymous": false,
      "inputs": [
        {
          "indexed": true,
          "internalType": "address",
          "name": "owner",
          "type": "address"
        },
        {
          "indexed": true,
          "internalType": "address",
          "name": "approved",
          "type": "address"
        },
        {
          "indexed": true,
          "internalType": "uint256",
          "name": "tokenId",
          "type": "uint256"
        }
      ],
      "name": "Approval",
      "type": "event"
    },
    {
      "anonymous": false,
      "inputs": [
        {
          "indexed": true,
          "internalType": "address",
          "name": "owner",
          "type": "address"
        },
        {
          "indexed": true,
          "internalType": "address",
          "name": "operator",
          "type": "address"
        },
        {
          "indexed": false,
          "internalType": "bool",
          "name": "approved",
          "type": "bool"
        }
      ],
      "name": "ApprovalForAll",
      "type": "event"
    },
    {
      "anonymous": false,
      "inputs": [
        {
          "indexed": true,
          "internalType": "uint256",
          "name": "tokenId",
          "type": "uint256"
        },
        {
          "indexed": false,
          "internalType": "int256",
          "name": "highValue",
          "type": "int256"
        }
      ],
      "name": "CreateNFT",
      "type": "event"
    },
    {
      "anonymous": false,
      "inputs": [
        {
          "indexed": true,
          "internalType": "address",
          "name": "from",
          "type": "address"
        },
        {
          "indexed": true,
          "internalType": "address",
          "name": "to",
          "type": "address"
        },
        {
          "indexed": true,
          "internalType": "uint256",
          "name": "tokenId",
          "type": "uint256"
        }
      ],
      "name": "Transfer",
      "type": "event"
    },
    {
      "inputs": [
        {
          "internalType": "address",
          "name": "to",
          "type": "address"
        },
        {
          "internalType": "uint256",
          "name": "tokenId",
          "type": "uint256"
        }
      ],
      "name": "approve",
      "outputs": [],
      "stateMutability": "nonpayable",
      "type": "function"
    },
    {
      "inputs": [
        {
          "internalType": "address",
          "name": "owner",
          "type": "address"
        }
      ],
      "name": "balanceOf",
      "outputs": [
        {
          "internalType": "uint256",
          "name": "",
          "type": "uint256"
        }
      ],
      "stateMutability": "view",
      "type": "function"
    },
    {
      "inputs": [
        {
          "internalType": "uint256",
          "name": "tokenId",
          "type": "uint256"
        }
      ],
      "name": "getApproved",
      "outputs": [
        {
          "internalType": "address",
          "name": "",
          "type": "address"
        }
      ],
      "stateMutability": "view",
      "type": "function"
    },
    {
      "inputs": [],
      "name": "getHighSVG",
      "outputs": [
        {
          "internalType": "string",
          "name": "",
          "type": "string"
        }
      ],
      "stateMutability": "view",
      "type": "function"
    },
    {
      "inputs": [],
      "name": "getLowSVG",
      "outputs": [
        {
          "internalType": "string",
          "name": "",
          "type": "string"
        }
      ],
      "stateMutability": "view",
      "type": "function"
    },
    {
      "inputs": [],
      "name": "getPriceFeed",
      "outputs": [
        {
          "internalType": "contract AggregatorV3Interface",
          "name": "",
          "type": "address"
        }
      ],
      "stateMutability": "view",
      "type": "function"
    },
    {
      "inputs": [],
      "name": "getTokenCounter",
      "outputs": [
        {
          "internalType": "uint256",
          "name": "",
          "type": "uint256"
        }
      ],
      "stateMutability": "view",
      "type": "function"
    },
    {
      "inputs": [
        {
          "internalType": "address",
          "name": "owner",
          "type": "address"
        },
        {
          "internalType": "address",
          "name": "operator",
          "type": "address"
        }
      ],
      "name": "isApprovedForAll",
      "outputs": [
        {
          "internalType": "bool",
          "name": "",
          "type": "bool"
        }
      ],
      "stateMutability": "view",
      "type": "function"
    },
    {
      "inputs": [
        {
          "internalType": "int256",
          "name": "_trigger",
          "type": "int256"
        }
      ],
      "name": "mintNFT",
      "outputs": [],
      "stateMutability": "nonpayable",
      "type": "function"
    },
    {
      "inputs": [],
      "name": "name",
      "outputs": [
        {
          "internalType": "string",
          "name": "",
          "type": "string"
        }
      ],
      "stateMutability": "view",
      "type": "function"
    },
    {
      "inputs": [
        {
          "internalType": "uint256",
          "name": "tokenId",
          "type": "uint256"
        }
      ],
      "name": "ownerOf",
      "outputs": [
        {
          "internalType": "address",
          "name": "",
          "type": "address"
        }
      ],
      "stateMutability": "view",
      "type": "function"
    },
    {
      "inputs": [
        {
          "internalType": "address",
          "name": "from",
          "type": "address"
        },
        {
          "internalType": "address",
          "name": "to",
          "type": "address"
        },
        {
          "internalType": "uint256",
          "name": "tokenId",
          "type": "uint256"
        }
      ],
      "name": "safeTransferFrom",
      "outputs": [],
      "stateMutability": "nonpayable",
      "type": "function"
    },
    {
      "inputs": [
        {
          "internalType": "address",
          "name": "from",
          "type": "address"
        },
        {
          "internalType": "address",
          "name": "to",
          "type": "address"
        },
        {
          "internalType": "uint256",
          "name": "tokenId",
          "type": "uint256"
        },
        {
          "internalType": "bytes",
          "name": "data",
          "type": "bytes"
        }
      ],
      "name": "safeTransferFrom",
      "outputs": [],
      "stateMutability": "nonpayable",
      "type": "function"
    },
    {
      "inputs": [
        {
          "internalType": "address",
          "name": "operator",
          "type": "address"
        },
        {
          "internalType": "bool",
          "name": "approved",
          "type": "bool"
        }
      ],
      "name": "setApprovalForAll",
      "outputs": [],
      "stateMutability": "nonpayable",
      "type": "function"
    },
    {
      "inputs": [
        {
          "internalType": "bytes4",
          "name": "interfaceId",
          "type": "bytes4"
        }
      ],
      "name": "supportsInterface",
      "outputs": [
        {
          "internalType": "bool",
          "name": "",
          "type": "bool"
        }
      ],
      "stateMutability": "view",
      "type": "function"
    },
    {
      "inputs": [
        {
          "internalType": "string",
          "name": "svg",
          "type": "string"
        }
      ],
      "name": "svgToTokenUri",
      "outputs": [
        {
          "internalType": "string",
          "name": "",
          "type": "string"
        }
      ],
      "stateMutability": "pure",
      "type": "function"
    },
    {
      "inputs": [],
      "name": "symbol",
      "outputs": [
        {
          "internalType": "string",
          "name": "",
          "type": "string"
        }
      ],
      "stateMutability": "view",
      "type": "function"
    },
    {
      "inputs": [
        {
          "internalType": "uint256",
          "name": "",
          "type": "uint256"
        }
      ],
      "name": "tokenIdtoTrigger",
      "outputs": [
        {
          "internalType": "int256",
          "name": "",
          "type": "int256"
        }
      ],
      "stateMutability": "view",
      "type": "function"
    },
    {
      "inputs": [
        {
          "internalType": "uint256",
          "name": "tokenId",
          "type": "uint256"
        }
      ],
      "name": "tokenURI",
      "outputs": [
        {
          "internalType": "string",
          "name": "",
          "type": "string"
        }
      ],
      "stateMutability": "view",
      "type": "function"
    },
    {
      "inputs": [
        {
          "internalType": "address",
          "name": "from",
          "type": "address"
        },
        {
          "internalType": "address",
          "name": "to",
          "type": "address"
        },
        {
          "internalType": "uint256",
          "name": "tokenId",
          "type": "uint256"
        }
      ],
      "name": "transferFrom",
      "outputs": [],
      "stateMutability": "nonpayable",
      "type": "function"
    }
  ],
  "transactionHash": "0xbe7fdb0ac4b3d5a231e5cbb773bb16cd05f667f0354757a8c87f86f87c5c8aa2",
  "args": [
    "0xD4a33860578De61DBAbDc8BFdb98FD742fA7028e",
    "<?xml version=\"1.0\" standalone=\"no\"?>\r\n<svg width=\"1024px\" height=\"1024px\" viewBox=\"0 0 1024 1024\" xmlns=\"http://www.w3.org/2000/svg\">\r\n  <path fill=\"#333\" d=\"M512 64C264.6 64 64 264.6 64 512s200.6 448 448 448 448-200.6 448-448S759.4 64 512 64zm0 820c-205.4 0-372-166.6-372-372s166.6-372 372-372 372 166.6 372 372-166.6 372-372 372z\"/>\r\n  <path fill=\"#E6E6E6\" d=\"M512 140c-205.4 0-372 166.6-372 372s166.6 372 372 372 372-166.6 372-372-166.6-372-372-372zM288 421a48.01 48.01 0 0 1 96 0 48.01 48.01 0 0 1-96 0zm376 272h-48.1c-4.2 0-7.8-3.2-8.1-7.4C604 636.1 562.5 597 512 597s-92.1 39.1-95.8 88.6c-.3 4.2-3.9 7.4-8.1 7.4H360a8 8 0 0 1-8-8.4c4.4-84.3 74.5-151.6 160-151.6s155.6 67.3 160 151.6a8 8 0 0 1-8 8.4zm24-224a48.01 48.01 0 0 1 0-96 48.01 48.01 0 0 1 0 96z\"/>\r\n  <path fill=\"#333\" d=\"M288 421a48 48 0 1 0 96 0 48 48 0 1 0-96 0zm224 112c-85.5 0-155.6 67.3-160 151.6a8 8 0 0 0 8 8.4h48.1c4.2 0 7.8-3.2 8.1-7.4 3.7-49.5 45.3-88.6 95.8-88.6s92 39.1 95.8 88.6c.3 4.2 3.9 7.4 8.1 7.4H664a8 8 0 0 0 8-8.4C667.6 600.3 597.5 533 512 533zm128-112a48 48 0 1 0 96 0 48 48 0 1 0-96 0z\"/>\r\n</svg>",
    "<svg viewBox=\"0 0 200 200\" width=\"400\"  height=\"400\" xmlns=\"http://www.w3.org/2000/svg\">\r\n  <circle cx=\"100\" cy=\"100\" fill=\"yellow\" r=\"78\" stroke=\"black\" stroke-width=\"3\"/>\r\n  <g class=\"eyes\">\r\n    <circle cx=\"61\" cy=\"82\" r=\"12\"/>\r\n    <circle cx=\"127\" cy=\"82\" r=\"12\"/>\r\n  </g>\r\n  <path d=\"m136.81 116.53c.69 26.17-64.11 42-81.52-.73\" style=\"fill:none; stroke: black; stroke-width: 3;\"/>\r\n</svg>"
  ],
  "numDeployments": 2,
  "solcInputHash": "ba069fd3ee7c79bd5b317785b9b59c60",
  "bytecode": "0x60a06040523480156200001157600080fd5b50604051620039f4380380620039f48339818101604052810190620000379190620004e2565b6040518060400160405280600f81526020017f44796e616d696320535647204e465400000000000000000000000000000000008152506040518060400160405280600381526020017f444e5300000000000000000000000000000000000000000000000000000000008152508160009080519060200190620000bb9291906200039d565b508060019080519060200190620000d49291906200039d565b5050506000600681905550620000f0826200017160201b60201c565b60079080519060200190620001079291906200039d565b5062000119816200017160201b60201c565b60089080519060200190620001309291906200039d565b508273ffffffffffffffffffffffffffffffffffffffff1660808173ffffffffffffffffffffffffffffffffffffffff1660601b815250505050506200093a565b60606000620001ac836040516020016200018c9190620005b3565b6040516020818303038152906040526200020f60201b62000f631760201c565b90506040518060400160405280601a81526020017f646174613a696d6167652f7376672b786d6c3b6261736536342c00000000000081525081604051602001620001f8929190620005cc565b604051602081830303815290604052915050919050565b6060600082511415620002345760405180602001604052806000815250905062000398565b6000604051806060016040528060408152602001620039b4604091399050600060036002855162000266919062000669565b620002729190620006c6565b6004620002809190620006fe565b9050600060208262000293919062000669565b67ffffffffffffffff811115620002af57620002ae620008cc565b5b6040519080825280601f01601f191660200182016040528015620002e25781602001600182028036833780820191505090505b509050818152600183018586518101602084015b8183101562000353576003830192508251603f8160121c168501518253600182019150603f81600c1c168501518253600182019150603f8160061c168501518253600182019150603f8116850151825360018201915050620002f6565b60038951066001811462000370576002811462000381576200038c565b613d3d60f01b60028303526200038c565b603d60f81b60018303525b50505050508093505050505b919050565b828054620003ab90620007d3565b90600052602060002090601f016020900481019282620003cf57600085556200041b565b82601f10620003ea57805160ff19168380011785556200041b565b828001600101855582156200041b579182015b828111156200041a578251825591602001919060010190620003fd565b5b5090506200042a91906200042e565b5090565b5b80821115620004495760008160009055506001016200042f565b5090565b6000620004646200045e846200061d565b620005f4565b90508281526020810184848401111562000483576200048262000900565b5b620004908482856200079d565b509392505050565b600081519050620004a98162000920565b92915050565b600082601f830112620004c757620004c6620008fb565b5b8151620004d98482602086016200044d565b91505092915050565b600080600060608486031215620004fe57620004fd6200090a565b5b60006200050e8682870162000498565b935050602084015167ffffffffffffffff81111562000532576200053162000905565b5b6200054086828701620004af565b925050604084015167ffffffffffffffff81111562000564576200056362000905565b5b6200057286828701620004af565b9150509250925092565b6000620005898262000653565b6200059581856200065e565b9350620005a78185602086016200079d565b80840191505092915050565b6000620005c182846200057c565b915081905092915050565b6000620005da82856200057c565b9150620005e882846200057c565b91508190509392505050565b60006200060062000613565b90506200060e828262000809565b919050565b6000604051905090565b600067ffffffffffffffff8211156200063b576200063a620008cc565b5b62000646826200090f565b9050602081019050919050565b600081519050919050565b600081905092915050565b6000620006768262000793565b9150620006838362000793565b9250827fffffffffffffffffffffffffffffffffffffffffffffffffffffffffffffffff03821115620006bb57620006ba6200083f565b5b828201905092915050565b6000620006d38262000793565b9150620006e08362000793565b925082620006f357620006f26200086e565b5b828204905092915050565b60006200070b8262000793565b9150620007188362000793565b9250817fffffffffffffffffffffffffffffffffffffffffffffffffffffffffffffffff04831182151516156200075457620007536200083f565b5b828202905092915050565b60006200076c8262000773565b9050919050565b600073ffffffffffffffffffffffffffffffffffffffff82169050919050565b6000819050919050565b60005b83811015620007bd578082015181840152602081019050620007a0565b83811115620007cd576000848401525b50505050565b60006002820490506001821680620007ec57607f821691505b602082108114156200080357620008026200089d565b5b50919050565b62000814826200090f565b810181811067ffffffffffffffff82111715620008365762000835620008cc565b5b80604052505050565b7f4e487b7100000000000000000000000000000000000000000000000000000000600052601160045260246000fd5b7f4e487b7100000000000000000000000000000000000000000000000000000000600052601260045260246000fd5b7f4e487b7100000000000000000000000000000000000000000000000000000000600052602260045260246000fd5b7f4e487b7100000000000000000000000000000000000000000000000000000000600052604160045260246000fd5b600080fd5b600080fd5b600080fd5b600080fd5b6000601f19601f8301169050919050565b6200092b816200075f565b81146200093757600080fd5b50565b60805160601c6130546200096060003960008181610a130152610afd01526130546000f3fe608060405234801561001057600080fd5b506004361061012c5760003560e01c80637fc2be9f116100ad578063c87b56dd11610071578063c87b56dd14610343578063e2ed50cb14610373578063e5aa53be1461038f578063e985e9c5146103bf578063ed28a122146103ef5761012c565b80637fc2be9f1461029f57806395d89b41146102cf5780639e87a5cd146102ed578063a22cb4651461030b578063b88d4fde146103275761012c565b806342842e0e116100f457806342842e0e146101e75780636352211e146102035780636e02007d1461023357806370a082311461025157806376f6056b146102815761012c565b806301ffc9a71461013157806306fdde0314610161578063081812fc1461017f578063095ea7b3146101af57806323b872dd146101cb575b600080fd5b61014b60048036038101906101469190611f37565b61040d565b60405161015891906124bf565b60405180910390f35b6101696104ef565b6040516101769190612510565b60405180910390f35b61019960048036038101906101949190612007565b610581565b6040516101a69190612458565b60405180910390f35b6101c960048036038101906101c49190611ef7565b6105c7565b005b6101e560048036038101906101e09190611de1565b6106df565b005b61020160048036038101906101fc9190611de1565b61073f565b005b61021d60048036038101906102189190612007565b61075f565b60405161022a9190612458565b60405180910390f35b61023b610811565b60405161024891906126b2565b60405180910390f35b61026b60048036038101906102669190611d74565b61081b565b60405161027891906126b2565b60405180910390f35b6102896108d3565b6040516102969190612510565b60405180910390f35b6102b960048036038101906102b49190612007565b610965565b6040516102c691906124f5565b60405180910390f35b6102d761097d565b6040516102e49190612510565b60405180910390f35b6102f5610a0f565b60405161030291906124da565b60405180910390f35b61032560048036038101906103209190611eb7565b610a37565b005b610341600480360381019061033c9190611e34565b610a4d565b005b61035d60048036038101906103589190612007565b610aaf565b60405161036a9190612510565b60405180910390f35b61038d60048036038101906103889190611f91565b610d38565b005b6103a960048036038101906103a49190611fbe565b610db0565b6040516103b69190612510565b60405180910390f35b6103d960048036038101906103d49190611da1565b610e3d565b6040516103e691906124bf565b60405180910390f35b6103f7610ed1565b6040516104049190612510565b60405180910390f35b60007f80ac58cd000000000000000000000000000000000000000000000000000000007bffffffffffffffffffffffffffffffffffffffffffffffffffffffff1916827bffffffffffffffffffffffffffffffffffffffffffffffffffffffff191614806104d857507f5b5e139f000000000000000000000000000000000000000000000000000000007bffffffffffffffffffffffffffffffffffffffffffffffffffffffff1916827bffffffffffffffffffffffffffffffffffffffffffffffffffffffff1916145b806104e857506104e7826110dc565b5b9050919050565b6060600080546104fe906129b8565b80601f016020809104026020016040519081016040528092919081815260200182805461052a906129b8565b80156105775780601f1061054c57610100808354040283529160200191610577565b820191906000526020600020905b81548152906001019060200180831161055a57829003601f168201915b5050505050905090565b600061058c82611146565b6004600083815260200190815260200160002060009054906101000a900473ffffffffffffffffffffffffffffffffffffffff169050919050565b60006105d28261075f565b90508073ffffffffffffffffffffffffffffffffffffffff168373ffffffffffffffffffffffffffffffffffffffff161415610643576040517f08c379a000000000000000000000000000000000000000000000000000000000815260040161063a90612672565b60405180910390fd5b8073ffffffffffffffffffffffffffffffffffffffff16610662611191565b73ffffffffffffffffffffffffffffffffffffffff16148061069157506106908161068b611191565b610e3d565b5b6106d0576040517f08c379a00000000000000000000000000000000000000000000000000000000081526004016106c790612612565b60405180910390fd5b6106da8383611199565b505050565b6106f06106ea611191565b82611252565b61072f576040517f08c379a000000000000000000000000000000000000000000000000000000000815260040161072690612692565b60405180910390fd5b61073a8383836112e7565b505050565b61075a83838360405180602001604052806000815250610a4d565b505050565b6000806002600084815260200190815260200160002060009054906101000a900473ffffffffffffffffffffffffffffffffffffffff169050600073ffffffffffffffffffffffffffffffffffffffff168173ffffffffffffffffffffffffffffffffffffffff161415610808576040517f08c379a00000000000000000000000000000000000000000000000000000000081526004016107ff90612652565b60405180910390fd5b80915050919050565b6000600654905090565b60008073ffffffffffffffffffffffffffffffffffffffff168273ffffffffffffffffffffffffffffffffffffffff16141561088c576040517f08c379a0000000000000000000000000000000000000000000000000000000008152600401610883906125f2565b60405180910390fd5b600360008373ffffffffffffffffffffffffffffffffffffffff1673ffffffffffffffffffffffffffffffffffffffff168152602001908152602001600020549050919050565b6060600880546108e2906129b8565b80601f016020809104026020016040519081016040528092919081815260200182805461090e906129b8565b801561095b5780601f106109305761010080835404028352916020019161095b565b820191906000526020600020905b81548152906001019060200180831161093e57829003601f168201915b5050505050905090565b60096020528060005260406000206000915090505481565b60606001805461098c906129b8565b80601f01602080910402602001604051908101604052809291908181526020018280546109b8906129b8565b8015610a055780601f106109da57610100808354040283529160200191610a05565b820191906000526020600020905b8154815290600101906020018083116109e857829003601f168201915b5050505050905090565b60007f0000000000000000000000000000000000000000000000000000000000000000905090565b610a49610a42611191565b838361154e565b5050565b610a5e610a58611191565b83611252565b610a9d576040517f08c379a0000000000000000000000000000000000000000000000000000000008152600401610a9490612692565b60405180910390fd5b610aa9848484846116bb565b50505050565b6060610aba82611717565b610af9576040517f08c379a0000000000000000000000000000000000000000000000000000000008152600401610af090612532565b60405180910390fd5b60007f000000000000000000000000000000000000000000000000000000000000000073ffffffffffffffffffffffffffffffffffffffff1663feaf968c6040518163ffffffff1660e01b815260040160a06040518083038186803b158015610b6157600080fd5b505afa158015610b75573d6000803e3d6000fd5b505050506040513d601f19601f82011682018060405250810190610b999190612034565b505050915050600060078054610bae906129b8565b80601f0160208091040260200160405190810160405280929190818152602001828054610bda906129b8565b8015610c275780601f10610bfc57610100808354040283529160200191610c27565b820191906000526020600020905b815481529060010190602001808311610c0a57829003601f168201915b5050505050905060096000858152602001908152602001600020548212610cd65760088054610c55906129b8565b80601f0160208091040260200160405190810160405280929190818152602001828054610c81906129b8565b8015610cce5780601f10610ca357610100808354040283529160200191610cce565b820191906000526020600020905b815481529060010190602001808311610cb157829003601f168201915b505050505090505b610cde611783565b610d0f610ce96104ef565b83604051602001610cfb929190612408565b604051602081830303815290604052610f63565b604051602001610d209291906123e4565b60405160208183030381529060405292505050919050565b8060096000600654815260200190815260200160002081905550610d5e336006546117c0565b6001600654610d6d9190612797565b6006819055506006547f9e14bc3e97903853717e5de268cf79a0d96e10198463629671e4c60ac29cba0d82604051610da591906124f5565b60405180910390a250565b60606000610ddc83604051602001610dc891906123cd565b604051602081830303815290604052610f63565b90506040518060400160405280601a81526020017f646174613a696d6167652f7376672b786d6c3b6261736536342c00000000000081525081604051602001610e269291906123e4565b604051602081830303815290604052915050919050565b6000600560008473ffffffffffffffffffffffffffffffffffffffff1673ffffffffffffffffffffffffffffffffffffffff16815260200190815260200160002060008373ffffffffffffffffffffffffffffffffffffffff1673ffffffffffffffffffffffffffffffffffffffff16815260200190815260200160002060009054906101000a900460ff16905092915050565b606060078054610ee0906129b8565b80601f0160208091040260200160405190810160405280929190818152602001828054610f0c906129b8565b8015610f595780601f10610f2e57610100808354040283529160200191610f59565b820191906000526020600020905b815481529060010190602001808311610f3c57829003601f168201915b5050505050905090565b6060600082511415610f86576040518060200160405280600081525090506110d7565b6000604051806060016040528060408152602001612fdf6040913990506000600360028551610fb59190612797565b610fbf91906127ed565b6004610fcb919061281e565b90506000602082610fdc9190612797565b67ffffffffffffffff811115610ff557610ff4612aa8565b5b6040519080825280601f01601f1916602001820160405280156110275781602001600182028036833780820191505090505b509050818152600183018586518101602084015b81831015611096576003830192508251603f8160121c168501518253600182019150603f81600c1c168501518253600182019150603f8160061c168501518253600182019150603f811685015182536001820191505061103b565b6003895106600181146110b057600281146110c0576110cb565b613d3d60f01b60028303526110cb565b603d60f81b60018303525b50505050508093505050505b919050565b60007f01ffc9a7000000000000000000000000000000000000000000000000000000007bffffffffffffffffffffffffffffffffffffffffffffffffffffffff1916827bffffffffffffffffffffffffffffffffffffffffffffffffffffffff1916149050919050565b61114f81611717565b61118e576040517f08c379a000000000000000000000000000000000000000000000000000000000815260040161118590612652565b60405180910390fd5b50565b600033905090565b816004600083815260200190815260200160002060006101000a81548173ffffffffffffffffffffffffffffffffffffffff021916908373ffffffffffffffffffffffffffffffffffffffff160217905550808273ffffffffffffffffffffffffffffffffffffffff1661120c8361075f565b73ffffffffffffffffffffffffffffffffffffffff167f8c5be1e5ebec7d5bd14f71427d1e84f3dd0314c0f7b2291e5b200ac8c7c3b92560405160405180910390a45050565b60008061125e8361075f565b90508073ffffffffffffffffffffffffffffffffffffffff168473ffffffffffffffffffffffffffffffffffffffff1614806112a0575061129f8185610e3d565b5b806112de57508373ffffffffffffffffffffffffffffffffffffffff166112c684610581565b73ffffffffffffffffffffffffffffffffffffffff16145b91505092915050565b8273ffffffffffffffffffffffffffffffffffffffff166113078261075f565b73ffffffffffffffffffffffffffffffffffffffff161461135d576040517f08c379a000000000000000000000000000000000000000000000000000000000815260040161135490612572565b60405180910390fd5b600073ffffffffffffffffffffffffffffffffffffffff168273ffffffffffffffffffffffffffffffffffffffff1614156113cd576040517f08c379a00000000000000000000000000000000000000000000000000000000081526004016113c4906125b2565b60405180910390fd5b6113d88383836117de565b6113e3600082611199565b6001600360008573ffffffffffffffffffffffffffffffffffffffff1673ffffffffffffffffffffffffffffffffffffffff16815260200190815260200160002060008282546114339190612878565b925050819055506001600360008473ffffffffffffffffffffffffffffffffffffffff1673ffffffffffffffffffffffffffffffffffffffff168152602001908152602001600020600082825461148a9190612797565b92505081905550816002600083815260200190815260200160002060006101000a81548173ffffffffffffffffffffffffffffffffffffffff021916908373ffffffffffffffffffffffffffffffffffffffff160217905550808273ffffffffffffffffffffffffffffffffffffffff168473ffffffffffffffffffffffffffffffffffffffff167fddf252ad1be2c89b69c2b068fc378daa952ba7f163c4a11628f55a4df523b3ef60405160405180910390a46115498383836117e3565b505050565b8173ffffffffffffffffffffffffffffffffffffffff168373ffffffffffffffffffffffffffffffffffffffff1614156115bd576040517f08c379a00000000000000000000000000000000000000000000000000000000081526004016115b4906125d2565b60405180910390fd5b80600560008573ffffffffffffffffffffffffffffffffffffffff1673ffffffffffffffffffffffffffffffffffffffff16815260200190815260200160002060008473ffffffffffffffffffffffffffffffffffffffff1673ffffffffffffffffffffffffffffffffffffffff16815260200190815260200160002060006101000a81548160ff0219169083151502179055508173ffffffffffffffffffffffffffffffffffffffff168373ffffffffffffffffffffffffffffffffffffffff167f17307eab39ab6107e8899845ad3d59bd9653f200f220920489ca2b5937696c31836040516116ae91906124bf565b60405180910390a3505050565b6116c68484846112e7565b6116d2848484846117e8565b611711576040517f08c379a000000000000000000000000000000000000000000000000000000000815260040161170890612552565b60405180910390fd5b50505050565b60008073ffffffffffffffffffffffffffffffffffffffff166002600084815260200190815260200160002060009054906101000a900473ffffffffffffffffffffffffffffffffffffffff1673ffffffffffffffffffffffffffffffffffffffff1614159050919050565b60606040518060400160405280601d81526020017f646174613a6170706c69636174696f6e2f6a736f6e3b6261736536342c000000815250905090565b6117da82826040518060200160405280600081525061197f565b5050565b505050565b505050565b60006118098473ffffffffffffffffffffffffffffffffffffffff166119da565b15611972578373ffffffffffffffffffffffffffffffffffffffff1663150b7a02611832611191565b8786866040518563ffffffff1660e01b81526004016118549493929190612473565b602060405180830381600087803b15801561186e57600080fd5b505af192505050801561189f57506040513d601f19601f8201168201806040525081019061189c9190611f64565b60015b611922573d80600081146118cf576040519150601f19603f3d011682016040523d82523d6000602084013e6118d4565b606091505b5060008151141561191a576040517f08c379a000000000000000000000000000000000000000000000000000000000815260040161191190612552565b60405180910390fd5b805181602001fd5b63150b7a0260e01b7bffffffffffffffffffffffffffffffffffffffffffffffffffffffff1916817bffffffffffffffffffffffffffffffffffffffffffffffffffffffff191614915050611977565b600190505b949350505050565b61198983836119fd565b61199660008484846117e8565b6119d5576040517f08c379a00000000000000000000000000000000000000000000000000000000081526004016119cc90612552565b60405180910390fd5b505050565b6000808273ffffffffffffffffffffffffffffffffffffffff163b119050919050565b600073ffffffffffffffffffffffffffffffffffffffff168273ffffffffffffffffffffffffffffffffffffffff161415611a6d576040517f08c379a0000000000000000000000000000000000000000000000000000000008152600401611a6490612632565b60405180910390fd5b611a7681611717565b15611ab6576040517f08c379a0000000000000000000000000000000000000000000000000000000008152600401611aad90612592565b60405180910390fd5b611ac2600083836117de565b6001600360008473ffffffffffffffffffffffffffffffffffffffff1673ffffffffffffffffffffffffffffffffffffffff1681526020019081526020016000206000828254611b129190612797565b92505081905550816002600083815260200190815260200160002060006101000a81548173ffffffffffffffffffffffffffffffffffffffff021916908373ffffffffffffffffffffffffffffffffffffffff160217905550808273ffffffffffffffffffffffffffffffffffffffff16600073ffffffffffffffffffffffffffffffffffffffff167fddf252ad1be2c89b69c2b068fc378daa952ba7f163c4a11628f55a4df523b3ef60405160405180910390a4611bd3600083836117e3565b5050565b6000611bea611be5846126f2565b6126cd565b905082815260208101848484011115611c0657611c05612adc565b5b611c11848285612976565b509392505050565b6000611c2c611c2784612723565b6126cd565b905082815260208101848484011115611c4857611c47612adc565b5b611c53848285612976565b509392505050565b600081359050611c6a81612f54565b92915050565b600081359050611c7f81612f6b565b92915050565b600081359050611c9481612f82565b92915050565b600081519050611ca981612f82565b92915050565b600082601f830112611cc457611cc3612ad7565b5b8135611cd4848260208601611bd7565b91505092915050565b600081359050611cec81612f99565b92915050565b600081519050611d0181612f99565b92915050565b600082601f830112611d1c57611d1b612ad7565b5b8135611d2c848260208601611c19565b91505092915050565b600081359050611d4481612fb0565b92915050565b600081519050611d5981612fb0565b92915050565b600081519050611d6e81612fc7565b92915050565b600060208284031215611d8a57611d89612ae6565b5b6000611d9884828501611c5b565b91505092915050565b60008060408385031215611db857611db7612ae6565b5b6000611dc685828601611c5b565b9250506020611dd785828601611c5b565b9150509250929050565b600080600060608486031215611dfa57611df9612ae6565b5b6000611e0886828701611c5b565b9350506020611e1986828701611c5b565b9250506040611e2a86828701611d35565b9150509250925092565b60008060008060808587031215611e4e57611e4d612ae6565b5b6000611e5c87828801611c5b565b9450506020611e6d87828801611c5b565b9350506040611e7e87828801611d35565b925050606085013567ffffffffffffffff811115611e9f57611e9e612ae1565b5b611eab87828801611caf565b91505092959194509250565b60008060408385031215611ece57611ecd612ae6565b5b6000611edc85828601611c5b565b9250506020611eed85828601611c70565b9150509250929050565b60008060408385031215611f0e57611f0d612ae6565b5b6000611f1c85828601611c5b565b9250506020611f2d85828601611d35565b9150509250929050565b600060208284031215611f4d57611f4c612ae6565b5b6000611f5b84828501611c85565b91505092915050565b600060208284031215611f7a57611f79612ae6565b5b6000611f8884828501611c9a565b91505092915050565b600060208284031215611fa757611fa6612ae6565b5b6000611fb584828501611cdd565b91505092915050565b600060208284031215611fd457611fd3612ae6565b5b600082013567ffffffffffffffff811115611ff257611ff1612ae1565b5b611ffe84828501611d07565b91505092915050565b60006020828403121561201d5761201c612ae6565b5b600061202b84828501611d35565b91505092915050565b600080600080600060a086880312156120505761204f612ae6565b5b600061205e88828901611d5f565b955050602061206f88828901611cf2565b945050604061208088828901611d4a565b935050606061209188828901611d4a565b92505060806120a288828901611d5f565b9150509295509295909350565b6120b8816128ac565b82525050565b6120c7816128be565b82525050565b60006120d882612754565b6120e2818561276a565b93506120f2818560208601612985565b6120fb81612aeb565b840191505092915050565b61210f81612940565b82525050565b61211e816128f6565b82525050565b600061212f8261275f565b612139818561277b565b9350612149818560208601612985565b61215281612aeb565b840191505092915050565b60006121688261275f565b612172818561278c565b9350612182818560208601612985565b80840191505092915050565b600061219b60098361278c565b91506121a682612afc565b600982019050919050565b60006121be60418361277b565b91506121c982612b25565b606082019050919050565b60006121e160328361277b565b91506121ec82612b9a565b604082019050919050565b600061220460258361277b565b915061220f82612be9565b604082019050919050565b6000612227601c8361277b565b915061223282612c38565b602082019050919050565b600061224a60458361278c565b915061225582612c61565b604582019050919050565b600061226d60248361277b565b915061227882612cd6565b604082019050919050565b600061229060198361277b565b915061229b82612d25565b602082019050919050565b60006122b360298361277b565b91506122be82612d4e565b604082019050919050565b60006122d660028361278c565b91506122e182612d9d565b600282019050919050565b60006122f9603e8361277b565b915061230482612dc6565b604082019050919050565b600061231c60208361277b565b915061232782612e15565b602082019050919050565b600061233f60188361277b565b915061234a82612e3e565b602082019050919050565b600061236260218361277b565b915061236d82612e67565b604082019050919050565b600061238560408361278c565b915061239082612eb6565b604082019050919050565b60006123a8602e8361277b565b91506123b382612f05565b604082019050919050565b6123c781612920565b82525050565b60006123d9828461215d565b915081905092915050565b60006123f0828561215d565b91506123fc828461215d565b91508190509392505050565b60006124138261218e565b915061241f828561215d565b915061242a8261223d565b915061243582612378565b9150612441828461215d565b915061244c826122c9565b91508190509392505050565b600060208201905061246d60008301846120af565b92915050565b600060808201905061248860008301876120af565b61249560208301866120af565b6124a260408301856123be565b81810360608301526124b481846120cd565b905095945050505050565b60006020820190506124d460008301846120be565b92915050565b60006020820190506124ef6000830184612106565b92915050565b600060208201905061250a6000830184612115565b92915050565b6000602082019050818103600083015261252a8184612124565b905092915050565b6000602082019050818103600083015261254b816121b1565b9050919050565b6000602082019050818103600083015261256b816121d4565b9050919050565b6000602082019050818103600083015261258b816121f7565b9050919050565b600060208201905081810360008301526125ab8161221a565b9050919050565b600060208201905081810360008301526125cb81612260565b9050919050565b600060208201905081810360008301526125eb81612283565b9050919050565b6000602082019050818103600083015261260b816122a6565b9050919050565b6000602082019050818103600083015261262b816122ec565b9050919050565b6000602082019050818103600083015261264b8161230f565b9050919050565b6000602082019050818103600083015261266b81612332565b9050919050565b6000602082019050818103600083015261268b81612355565b9050919050565b600060208201905081810360008301526126ab8161239b565b9050919050565b60006020820190506126c760008301846123be565b92915050565b60006126d76126e8565b90506126e382826129ea565b919050565b6000604051905090565b600067ffffffffffffffff82111561270d5761270c612aa8565b5b61271682612aeb565b9050602081019050919050565b600067ffffffffffffffff82111561273e5761273d612aa8565b5b61274782612aeb565b9050602081019050919050565b600081519050919050565b600081519050919050565b600082825260208201905092915050565b600082825260208201905092915050565b600081905092915050565b60006127a282612920565b91506127ad83612920565b9250827fffffffffffffffffffffffffffffffffffffffffffffffffffffffffffffffff038211156127e2576127e1612a1b565b5b828201905092915050565b60006127f882612920565b915061280383612920565b92508261281357612812612a4a565b5b828204905092915050565b600061282982612920565b915061283483612920565b9250817fffffffffffffffffffffffffffffffffffffffffffffffffffffffffffffffff048311821515161561286d5761286c612a1b565b5b828202905092915050565b600061288382612920565b915061288e83612920565b9250828210156128a1576128a0612a1b565b5b828203905092915050565b60006128b782612900565b9050919050565b60008115159050919050565b60007fffffffff0000000000000000000000000000000000000000000000000000000082169050919050565b6000819050919050565b600073ffffffffffffffffffffffffffffffffffffffff82169050919050565b6000819050919050565b600069ffffffffffffffffffff82169050919050565b600061294b82612952565b9050919050565b600061295d82612964565b9050919050565b600061296f82612900565b9050919050565b82818337600083830152505050565b60005b838110156129a3578082015181840152602081019050612988565b838111156129b2576000848401525b50505050565b600060028204905060018216806129d057607f821691505b602082108114156129e4576129e3612a79565b5b50919050565b6129f382612aeb565b810181811067ffffffffffffffff82111715612a1257612a11612aa8565b5b80604052505050565b7f4e487b7100000000000000000000000000000000000000000000000000000000600052601160045260246000fd5b7f4e487b7100000000000000000000000000000000000000000000000000000000600052601260045260246000fd5b7f4e487b7100000000000000000000000000000000000000000000000000000000600052602260045260246000fd5b7f4e487b7100000000000000000000000000000000000000000000000000000000600052604160045260246000fd5b600080fd5b600080fd5b600080fd5b600080fd5b6000601f19601f8301169050919050565b7f7b226e616d65223a220000000000000000000000000000000000000000000000600082015250565b7f6e6f6e2065736973746520696c20746f636b656e2070657220696c207175616c60008201527f65207669656e65206661747461206c612072696368696573746120646920555260208201527f4900000000000000000000000000000000000000000000000000000000000000604082015250565b7f4552433732313a207472616e7366657220746f206e6f6e20455243373231526560008201527f63656976657220696d706c656d656e7465720000000000000000000000000000602082015250565b7f4552433732313a207472616e736665722066726f6d20696e636f72726563742060008201527f6f776e6572000000000000000000000000000000000000000000000000000000602082015250565b7f4552433732313a20746f6b656e20616c7265616479206d696e74656400000000600082015250565b7f222c20226465736372697074696f6e223a22616e204e4654207468617420636860008201527f616e6765206f6e206261736564206f6e2074686520436861696e6c696e6b206660208201527f6565642c22000000000000000000000000000000000000000000000000000000604082015250565b7f4552433732313a207472616e7366657220746f20746865207a65726f2061646460008201527f7265737300000000000000000000000000000000000000000000000000000000602082015250565b7f4552433732313a20617070726f766520746f2063616c6c657200000000000000600082015250565b7f4552433732313a2061646472657373207a65726f206973206e6f74206120766160008201527f6c6964206f776e65720000000000000000000000000000000000000000000000602082015250565b7f227d000000000000000000000000000000000000000000000000000000000000600082015250565b7f4552433732313a20617070726f76652063616c6c6572206973206e6f7420746f60008201527f6b656e206f776e6572206e6f7220617070726f76656420666f7220616c6c0000602082015250565b7f4552433732313a206d696e7420746f20746865207a65726f2061646472657373600082015250565b7f4552433732313a20696e76616c696420746f6b656e2049440000000000000000600082015250565b7f4552433732313a20617070726f76616c20746f2063757272656e74206f776e6560008201527f7200000000000000000000000000000000000000000000000000000000000000602082015250565b7f2261747472696275746573223a205b7b2274726169745f74797065223a22636f60008201527f6f6c6e657373222c2276616c7565223a3130307d5d2c2022696d616765223a22602082015250565b7f4552433732313a2063616c6c6572206973206e6f7420746f6b656e206f776e6560008201527f72206e6f7220617070726f766564000000000000000000000000000000000000602082015250565b612f5d816128ac565b8114612f6857600080fd5b50565b612f74816128be565b8114612f7f57600080fd5b50565b612f8b816128ca565b8114612f9657600080fd5b50565b612fa2816128f6565b8114612fad57600080fd5b50565b612fb981612920565b8114612fc457600080fd5b50565b612fd08161292a565b8114612fdb57600080fd5b5056fe4142434445464748494a4b4c4d4e4f505152535455565758595a6162636465666768696a6b6c6d6e6f707172737475767778797a303132333435363738392b2fa264697066735822122001e5a5d749815b21e011e458849c71d2eacc263869c6ae4504b6ab069db370e364736f6c634300080700334142434445464748494a4b4c4d4e4f505152535455565758595a6162636465666768696a6b6c6d6e6f707172737475767778797a303132333435363738392b2f",
  "devdoc": {
    "kind": "dev",
    "methods": {
      "approve(address,uint256)": {
        "details": "See {IERC721-approve}."
      },
      "balanceOf(address)": {
        "details": "See {IERC721-balanceOf}."
      },
      "getApproved(uint256)": {
        "details": "See {IERC721-getApproved}."
      },
      "isApprovedForAll(address,address)": {
        "details": "See {IERC721-isApprovedForAll}."
      },
      "name()": {
        "details": "See {IERC721Metadata-name}."
      },
      "ownerOf(uint256)": {
        "details": "See {IERC721-ownerOf}."
      },
      "safeTransferFrom(address,address,uint256)": {
        "details": "See {IERC721-safeTransferFrom}."
      },
      "safeTransferFrom(address,address,uint256,bytes)": {
        "details": "See {IERC721-safeTransferFrom}."
      },
      "setApprovalForAll(address,bool)": {
        "details": "See {IERC721-setApprovalForAll}."
      },
      "supportsInterface(bytes4)": {
        "details": "See {IERC165-supportsInterface}."
      },
      "symbol()": {
        "details": "See {IERC721Metadata-symbol}."
      },
      "tokenURI(uint256)": {
        "details": "See {IERC721Metadata-tokenURI}."
      },
      "transferFrom(address,address,uint256)": {
        "details": "See {IERC721-transferFrom}."
      }
    },
    "version": 1
  },
  "userdoc": {
    "kind": "user",
    "methods": {},
    "version": 1
  },
  "storageLayout": {
    "storage": [
      {
        "astId": 71,
        "contract": "contracts/DynamicSVGNFT.sol:DynamicSVGNFT",
        "label": "_name",
        "offset": 0,
        "slot": "0",
        "type": "t_string_storage"
      },
      {
        "astId": 73,
        "contract": "contracts/DynamicSVGNFT.sol:DynamicSVGNFT",
        "label": "_symbol",
        "offset": 0,
        "slot": "1",
        "type": "t_string_storage"
      },
      {
        "astId": 77,
        "contract": "contracts/DynamicSVGNFT.sol:DynamicSVGNFT",
        "label": "_owners",
        "offset": 0,
        "slot": "2",
        "type": "t_mapping(t_uint256,t_address)"
      },
      {
        "astId": 81,
        "contract": "contracts/DynamicSVGNFT.sol:DynamicSVGNFT",
        "label": "_balances",
        "offset": 0,
        "slot": "3",
        "type": "t_mapping(t_address,t_uint256)"
      },
      {
        "astId": 85,
        "contract": "contracts/DynamicSVGNFT.sol:DynamicSVGNFT",
        "label": "_tokenApprovals",
        "offset": 0,
        "slot": "4",
        "type": "t_mapping(t_uint256,t_address)"
      },
      {
        "astId": 91,
        "contract": "contracts/DynamicSVGNFT.sol:DynamicSVGNFT",
        "label": "_operatorApprovals",
        "offset": 0,
        "slot": "5",
        "type": "t_mapping(t_address,t_mapping(t_address,t_bool))"
      },
      {
        "astId": 1776,
        "contract": "contracts/DynamicSVGNFT.sol:DynamicSVGNFT",
        "label": "tokenCounter",
        "offset": 0,
        "slot": "6",
        "type": "t_uint256"
      },
      {
        "astId": 1778,
        "contract": "contracts/DynamicSVGNFT.sol:DynamicSVGNFT",
        "label": "lowImageURI",
        "offset": 0,
        "slot": "7",
        "type": "t_string_storage"
      },
      {
        "astId": 1780,
        "contract": "contracts/DynamicSVGNFT.sol:DynamicSVGNFT",
        "label": "highImageURI",
        "offset": 0,
        "slot": "8",
        "type": "t_string_storage"
      },
      {
        "astId": 1790,
        "contract": "contracts/DynamicSVGNFT.sol:DynamicSVGNFT",
        "label": "tokenIdtoTrigger",
        "offset": 0,
        "slot": "9",
        "type": "t_mapping(t_uint256,t_int256)"
      }
    ],
    "types": {
      "t_address": {
        "encoding": "inplace",
        "label": "address",
        "numberOfBytes": "20"
      },
      "t_bool": {
        "encoding": "inplace",
        "label": "bool",
        "numberOfBytes": "1"
      },
      "t_int256": {
        "encoding": "inplace",
        "label": "int256",
        "numberOfBytes": "32"
      },
      "t_mapping(t_address,t_bool)": {
        "encoding": "mapping",
        "key": "t_address",
        "label": "mapping(address => bool)",
        "numberOfBytes": "32",
        "value": "t_bool"
      },
      "t_mapping(t_address,t_mapping(t_address,t_bool))": {
        "encoding": "mapping",
        "key": "t_address",
        "label": "mapping(address => mapping(address => bool))",
        "numberOfBytes": "32",
        "value": "t_mapping(t_address,t_bool)"
      },
      "t_mapping(t_address,t_uint256)": {
        "encoding": "mapping",
        "key": "t_address",
        "label": "mapping(address => uint256)",
        "numberOfBytes": "32",
        "value": "t_uint256"
      },
      "t_mapping(t_uint256,t_address)": {
        "encoding": "mapping",
        "key": "t_uint256",
        "label": "mapping(uint256 => address)",
        "numberOfBytes": "32",
        "value": "t_address"
      },
      "t_mapping(t_uint256,t_int256)": {
        "encoding": "mapping",
        "key": "t_uint256",
        "label": "mapping(uint256 => int256)",
        "numberOfBytes": "32",
        "value": "t_int256"
      },
      "t_string_storage": {
        "encoding": "bytes",
        "label": "string",
        "numberOfBytes": "32"
      },
      "t_uint256": {
        "encoding": "inplace",
        "label": "uint256",
        "numberOfBytes": "32"
      }
    }
  }
}