{
  "address": "0x0F6D1758EEa870fca2Ec1f8b4E2f42a1417116f4",
  "abi": [
    {
      "inputs": [
        {
          "internalType": "address",
          "name": "_VRFCoordinatorV2",
          "type": "address"
        },
        {
          "internalType": "uint64",
          "name": "_subscriptionId",
          "type": "uint64"
        },
        {
          "internalType": "uint32",
          "name": "_callbackGasLimit",
          "type": "uint32"
        },
        {
          "internalType": "bytes32",
          "name": "_gasLane",
          "type": "bytes32"
        },
        {
          "internalType": "string[]",
          "name": "_tokenURI",
          "type": "string[]"
        },
        {
          "internalType": "uint256",
          "name": "_priceMint",
          "type": "uint256"
        }
      ],
      "stateMutability": "nonpayable",
      "type": "constructor"
    },
    {
      "inputs": [
        {
          "internalType": "address",
          "name": "have",
          "type": "address"
        },
        {
          "internalType": "address",
          "name": "want",
          "type": "address"
        }
      ],
      "name": "OnlyCoordinatorCanFulfill",
      "type": "error"
    },
    {
      "inputs": [],
      "name": "RandomIPFS__InvalidAmount",
      "type": "error"
    },
    {
      "inputs": [],
      "name": "RandomIPFS__InvalidRandomNumber",
      "type": "error"
    },
    {
      "anonymous": false,
      "inputs": [
        {
          "indexed": true,
          "internalType": "address",
          "name": "owner",
          "type": "address"
        },
        {
          "indexed": true,
          "internalType": "address",
          "name": "approved",
          "type": "address"
        },
        {
          "indexed": true,
          "internalType": "uint256",
          "name": "tokenId",
          "type": "uint256"
        }
      ],
      "name": "Approval",
      "type": "event"
    },
    {
      "anonymous": false,
      "inputs": [
        {
          "indexed": true,
          "internalType": "address",
          "name": "owner",
          "type": "address"
        },
        {
          "indexed": true,
          "internalType": "address",
          "name": "operator",
          "type": "address"
        },
        {
          "indexed": false,
          "internalType": "bool",
          "name": "approved",
          "type": "bool"
        }
      ],
      "name": "ApprovalForAll",
      "type": "event"
    },
    {
      "anonymous": false,
      "inputs": [
        {
          "indexed": false,
          "internalType": "enum RandomIPFS.TypeNFT",
          "name": "NFTType",
          "type": "uint8"
        },
        {
          "indexed": false,
          "internalType": "address",
          "name": "minter",
          "type": "address"
        }
      ],
      "name": "NFTMinted",
      "type": "event"
    },
    {
      "anonymous": false,
      "inputs": [
        {
          "indexed": false,
          "internalType": "uint256",
          "name": "requestId",
          "type": "uint256"
        },
        {
          "indexed": false,
          "internalType": "address",
          "name": "minter",
          "type": "address"
        }
      ],
      "name": "NFTRequest",
      "type": "event"
    },
    {
      "anonymous": false,
      "inputs": [
        {
          "indexed": true,
          "internalType": "address",
          "name": "from",
          "type": "address"
        },
        {
          "indexed": true,
          "internalType": "address",
          "name": "to",
          "type": "address"
        },
        {
          "indexed": true,
          "internalType": "uint256",
          "name": "tokenId",
          "type": "uint256"
        }
      ],
      "name": "Transfer",
      "type": "event"
    },
    {
      "inputs": [
        {
          "internalType": "address",
          "name": "to",
          "type": "address"
        },
        {
          "internalType": "uint256",
          "name": "tokenId",
          "type": "uint256"
        }
      ],
      "name": "approve",
      "outputs": [],
      "stateMutability": "nonpayable",
      "type": "function"
    },
    {
      "inputs": [
        {
          "internalType": "address",
          "name": "owner",
          "type": "address"
        }
      ],
      "name": "balanceOf",
      "outputs": [
        {
          "internalType": "uint256",
          "name": "",
          "type": "uint256"
        }
      ],
      "stateMutability": "view",
      "type": "function"
    },
    {
      "inputs": [
        {
          "internalType": "uint256",
          "name": "tokenId",
          "type": "uint256"
        }
      ],
      "name": "getApproved",
      "outputs": [
        {
          "internalType": "address",
          "name": "",
          "type": "address"
        }
      ],
      "stateMutability": "view",
      "type": "function"
    },
    {
      "inputs": [],
      "name": "getChanceArray",
      "outputs": [
        {
          "internalType": "uint256[3]",
          "name": "",
          "type": "uint256[3]"
        }
      ],
      "stateMutability": "pure",
      "type": "function"
    },
    {
      "inputs": [],
      "name": "getMintFee",
      "outputs": [
        {
          "internalType": "uint256",
          "name": "",
          "type": "uint256"
        }
      ],
      "stateMutability": "view",
      "type": "function"
    },
    {
      "inputs": [
        {
          "internalType": "uint256",
          "name": "index",
          "type": "uint256"
        }
      ],
      "name": "getNFTTokenUri",
      "outputs": [
        {
          "internalType": "string",
          "name": "",
          "type": "string"
        }
      ],
      "stateMutability": "view",
      "type": "function"
    },
    {
      "inputs": [],
      "name": "getTokenCounter",
      "outputs": [
        {
          "internalType": "uint256",
          "name": "",
          "type": "uint256"
        }
      ],
      "stateMutability": "view",
      "type": "function"
    },
    {
      "inputs": [
        {
          "internalType": "uint256",
          "name": "modded",
          "type": "uint256"
        }
      ],
      "name": "getType",
      "outputs": [
        {
          "internalType": "enum RandomIPFS.TypeNFT",
          "name": "",
          "type": "uint8"
        }
      ],
      "stateMutability": "pure",
      "type": "function"
    },
    {
      "inputs": [
        {
          "internalType": "address",
          "name": "owner",
          "type": "address"
        },
        {
          "internalType": "address",
          "name": "operator",
          "type": "address"
        }
      ],
      "name": "isApprovedForAll",
      "outputs": [
        {
          "internalType": "bool",
          "name": "",
          "type": "bool"
        }
      ],
      "stateMutability": "view",
      "type": "function"
    },
    {
      "inputs": [],
      "name": "mintNFT",
      "outputs": [
        {
          "internalType": "uint256",
          "name": "requestId",
          "type": "uint256"
        }
      ],
      "stateMutability": "payable",
      "type": "function"
    },
    {
      "inputs": [],
      "name": "name",
      "outputs": [
        {
          "internalType": "string",
          "name": "",
          "type": "string"
        }
      ],
      "stateMutability": "view",
      "type": "function"
    },
    {
      "inputs": [
        {
          "internalType": "uint256",
          "name": "tokenId",
          "type": "uint256"
        }
      ],
      "name": "ownerOf",
      "outputs": [
        {
          "internalType": "address",
          "name": "",
          "type": "address"
        }
      ],
      "stateMutability": "view",
      "type": "function"
    },
    {
      "inputs": [
        {
          "internalType": "uint256",
          "name": "requestId",
          "type": "uint256"
        },
        {
          "internalType": "uint256[]",
          "name": "randomWords",
          "type": "uint256[]"
        }
      ],
      "name": "rawFulfillRandomWords",
      "outputs": [],
      "stateMutability": "nonpayable",
      "type": "function"
    },
    {
      "inputs": [
        {
          "internalType": "address",
          "name": "from",
          "type": "address"
        },
        {
          "internalType": "address",
          "name": "to",
          "type": "address"
        },
        {
          "internalType": "uint256",
          "name": "tokenId",
          "type": "uint256"
        }
      ],
      "name": "safeTransferFrom",
      "outputs": [],
      "stateMutability": "nonpayable",
      "type": "function"
    },
    {
      "inputs": [
        {
          "internalType": "address",
          "name": "from",
          "type": "address"
        },
        {
          "internalType": "address",
          "name": "to",
          "type": "address"
        },
        {
          "internalType": "uint256",
          "name": "tokenId",
          "type": "uint256"
        },
        {
          "internalType": "bytes",
          "name": "data",
          "type": "bytes"
        }
      ],
      "name": "safeTransferFrom",
      "outputs": [],
      "stateMutability": "nonpayable",
      "type": "function"
    },
    {
      "inputs": [
        {
          "internalType": "address",
          "name": "operator",
          "type": "address"
        },
        {
          "internalType": "bool",
          "name": "approved",
          "type": "bool"
        }
      ],
      "name": "setApprovalForAll",
      "outputs": [],
      "stateMutability": "nonpayable",
      "type": "function"
    },
    {
      "inputs": [
        {
          "internalType": "bytes4",
          "name": "interfaceId",
          "type": "bytes4"
        }
      ],
      "name": "supportsInterface",
      "outputs": [
        {
          "internalType": "bool",
          "name": "",
          "type": "bool"
        }
      ],
      "stateMutability": "view",
      "type": "function"
    },
    {
      "inputs": [],
      "name": "symbol",
      "outputs": [
        {
          "internalType": "string",
          "name": "",
          "type": "string"
        }
      ],
      "stateMutability": "view",
      "type": "function"
    },
    {
      "inputs": [
        {
          "internalType": "uint256",
          "name": "tokenId",
          "type": "uint256"
        }
      ],
      "name": "tokenURI",
      "outputs": [
        {
          "internalType": "string",
          "name": "",
          "type": "string"
        }
      ],
      "stateMutability": "view",
      "type": "function"
    },
    {
      "inputs": [
        {
          "internalType": "address",
          "name": "from",
          "type": "address"
        },
        {
          "internalType": "address",
          "name": "to",
          "type": "address"
        },
        {
          "internalType": "uint256",
          "name": "tokenId",
          "type": "uint256"
        }
      ],
      "name": "transferFrom",
      "outputs": [],
      "stateMutability": "nonpayable",
      "type": "function"
    },
    {
      "inputs": [],
      "name": "withdraw",
      "outputs": [],
      "stateMutability": "payable",
      "type": "function"
    }
  ],
  "transactionHash": "0x74fb08370383ab233c394b409efe25bc3318d2e99f49866390e7dc779fb65947",
  "args": [
    "0x2ca8e0c643bde4c2e08ab1fa0da3401adad7734d",
    "6158",
    "50000",
    "0x79d3d8832d904592c0bf9818b621522c988bb8b0c05cdc3b15aea1b6e8db0c15",
    [
      "ipfs://QmdVo4VJLAcbVAvJyauCMRiT9eC94HdUwXwswWdpG1gz5i",
      "ipfs://QmVdJSrJDgRYPL7vB13y5xpA2UsRhMPFMUppJ1AXbJQVju",
      "ipfs://QmNVnozFTT58R8PkCiDNX8D1AFvbeBeMoKb2XiW3YDht66"
    ],
    "10000000000000000"
  ],
  "numDeployments": 1,
  "solcInputHash": "f1bcfe377e5efb12b9d9fb0fb1d0d2f9",
  "bytecode": "0x6101606040523480156200001257600080fd5b5060405162003f0a38038062003f0a83398181016040528101906200003891906200053a565b6040518060400160405280600681526020017f52616e646f6d00000000000000000000000000000000000000000000000000008152506040518060400160405280600481526020017f724e465400000000000000000000000000000000000000000000000000000000815250878073ffffffffffffffffffffffffffffffffffffffff1660808173ffffffffffffffffffffffffffffffffffffffff1660601b81525050508160009080519060200190620000f5929190620001f5565b5080600190805190602001906200010e929190620001f5565b5050508573ffffffffffffffffffffffffffffffffffffffff1660c08173ffffffffffffffffffffffffffffffffffffffff1660601b815250508060e081815250508467ffffffffffffffff166101008167ffffffffffffffff1660c01b815250508261012081815250508363ffffffff166101408163ffffffff1660e01b8152505060006008819055503373ffffffffffffffffffffffffffffffffffffffff1660a08173ffffffffffffffffffffffffffffffffffffffff1660601b815250508160099080519060200190620001e892919062000286565b505050505050506200089b565b828054620002039062000725565b90600052602060002090601f01602090048101928262000227576000855562000273565b82601f106200024257805160ff191683800117855562000273565b8280016001018555821562000273579182015b828111156200027257825182559160200191906001019062000255565b5b509050620002829190620002ed565b5090565b828054828255906000526020600020908101928215620002da579160200282015b82811115620002d9578251829080519060200190620002c8929190620001f5565b5091602001919060010190620002a7565b5b509050620002e991906200030c565b5090565b5b8082111562000308576000816000905550600101620002ee565b5090565b5b8082111562000330576000818162000326919062000334565b506001016200030d565b5090565b508054620003429062000725565b6000825580601f1062000356575062000377565b601f016020900490600052602060002090810190620003769190620002ed565b5b50565b6000620003916200038b846200061e565b620005f5565b90508083825260208201905082856020860282011115620003b757620003b6620007f4565b5b60005b858110156200040c57815167ffffffffffffffff811115620003e157620003e0620007ef565b5b808601620003f08982620004c2565b85526020850194506020840193505050600181019050620003ba565b5050509392505050565b60006200042d62000427846200064d565b620005f5565b9050828152602081018484840111156200044c576200044b620007f9565b5b62000459848285620006ef565b509392505050565b600081519050620004728162000819565b92915050565b600082601f83011262000490576200048f620007ef565b5b8151620004a28482602086016200037a565b91505092915050565b600081519050620004bc8162000833565b92915050565b600082601f830112620004da57620004d9620007ef565b5b8151620004ec84826020860162000416565b91505092915050565b60008151905062000506816200084d565b92915050565b6000815190506200051d8162000867565b92915050565b600081519050620005348162000881565b92915050565b60008060008060008060c087890312156200055a576200055962000803565b5b60006200056a89828a0162000461565b96505060206200057d89828a0162000523565b95505060406200059089828a016200050c565b9450506060620005a389828a01620004ab565b935050608087015167ffffffffffffffff811115620005c757620005c6620007fe565b5b620005d589828a0162000478565b92505060a0620005e889828a01620004f5565b9150509295509295509295565b60006200060162000614565b90506200060f82826200075b565b919050565b6000604051905090565b600067ffffffffffffffff8211156200063c576200063b620007c0565b5b602082029050602081019050919050565b600067ffffffffffffffff8211156200066b576200066a620007c0565b5b620006768262000808565b9050602081019050919050565b60006200069082620006a1565b9050919050565b6000819050919050565b600073ffffffffffffffffffffffffffffffffffffffff82169050919050565b6000819050919050565b600063ffffffff82169050919050565b600067ffffffffffffffff82169050919050565b60005b838110156200070f578082015181840152602081019050620006f2565b838111156200071f576000848401525b50505050565b600060028204905060018216806200073e57607f821691505b6020821081141562000755576200075462000791565b5b50919050565b620007668262000808565b810181811067ffffffffffffffff82111715620007885762000787620007c0565b5b80604052505050565b7f4e487b7100000000000000000000000000000000000000000000000000000000600052602260045260246000fd5b7f4e487b7100000000000000000000000000000000000000000000000000000000600052604160045260246000fd5b600080fd5b600080fd5b600080fd5b600080fd5b600080fd5b6000601f19601f8301169050919050565b620008248162000683565b81146200083057600080fd5b50565b6200083e8162000697565b81146200084a57600080fd5b50565b6200085881620006c1565b81146200086457600080fd5b50565b6200087281620006cb565b81146200087e57600080fd5b50565b6200088c81620006db565b81146200089857600080fd5b50565b60805160601c60a05160601c60c05160601c60e0516101005160c01c610120516101405160e01c6135f06200091a60003960006108bb01526000610877015260006108980152600081816107e20152610eba0152600061083b015260008181610b170152610b950152600081816109e00152610a3401526135f06000f3fe60806040526004361061012a5760003560e01c80635dacf5f4116100ab57806395d89b411161006f57806395d89b41146103d8578063a22cb46514610403578063b88d4fde1461042c578063c87b56dd14610455578063e61084d414610492578063e985e9c5146104cf5761012a565b80635dacf5f4146102dd5780636352211e146103085780636e02007d1461034557806370a08231146103705780637a5caab3146103ad5761012a565b80631fe543e3116100f25780631fe543e31461021b57806323b872dd146102445780633ccfd60b1461026d5780634036ab781461027757806342842e0e146102b45761012a565b806301ffc9a71461012f57806306fdde031461016c578063081812fc14610197578063095ea7b3146101d457806314f710fe146101fd575b600080fd5b34801561013b57600080fd5b50610156600480360381019061015191906124e3565b61050c565b6040516101639190612a5a565b60405180910390f35b34801561017857600080fd5b506101816105ee565b60405161018e9190612b0c565b60405180910390f35b3480156101a357600080fd5b506101be60048036038101906101b9919061253d565b610680565b6040516101cb91906129af565b60405180910390f35b3480156101e057600080fd5b506101fb60048036038101906101f691906124a3565b6106c6565b005b6102056107de565b6040516102129190612cce565b60405180910390f35b34801561022757600080fd5b50610242600480360381019061023d9190612597565b6109de565b005b34801561025057600080fd5b5061026b6004803603810190610266919061238d565b610a9e565b005b610275610afe565b005b34801561028357600080fd5b5061029e6004803603810190610299919061253d565b610c2b565b6040516102ab9190612ac8565b60405180910390f35b3480156102c057600080fd5b506102db60048036038101906102d6919061238d565b610cf7565b005b3480156102e957600080fd5b506102f2610d17565b6040516102ff9190612a3f565b60405180910390f35b34801561031457600080fd5b5061032f600480360381019061032a919061253d565b610d42565b60405161033c91906129af565b60405180910390f35b34801561035157600080fd5b5061035a610df4565b6040516103679190612cce565b60405180910390f35b34801561037c57600080fd5b5061039760048036038101906103929190612320565b610dfe565b6040516103a49190612cce565b60405180910390f35b3480156103b957600080fd5b506103c2610eb6565b6040516103cf9190612cce565b60405180910390f35b3480156103e457600080fd5b506103ed610ede565b6040516103fa9190612b0c565b60405180910390f35b34801561040f57600080fd5b5061042a60048036038101906104259190612463565b610f70565b005b34801561043857600080fd5b50610453600480360381019061044e91906123e0565b610f86565b005b34801561046157600080fd5b5061047c6004803603810190610477919061253d565b610fe8565b6040516104899190612b0c565b60405180910390f35b34801561049e57600080fd5b506104b960048036038101906104b4919061253d565b6110fb565b6040516104c69190612b0c565b60405180910390f35b3480156104db57600080fd5b506104f660048036038101906104f1919061234d565b6111ab565b6040516105039190612a5a565b60405180910390f35b60007f80ac58cd000000000000000000000000000000000000000000000000000000007bffffffffffffffffffffffffffffffffffffffffffffffffffffffff1916827bffffffffffffffffffffffffffffffffffffffffffffffffffffffff191614806105d757507f5b5e139f000000000000000000000000000000000000000000000000000000007bffffffffffffffffffffffffffffffffffffffffffffffffffffffff1916827bffffffffffffffffffffffffffffffffffffffffffffffffffffffff1916145b806105e757506105e68261123f565b5b9050919050565b6060600080546105fd90612fe1565b80601f016020809104026020016040519081016040528092919081815260200182805461062990612fe1565b80156106765780601f1061064b57610100808354040283529160200191610676565b820191906000526020600020905b81548152906001019060200180831161065957829003601f168201915b5050505050905090565b600061068b826112a9565b6004600083815260200190815260200160002060009054906101000a900473ffffffffffffffffffffffffffffffffffffffff169050919050565b60006106d182610d42565b90508073ffffffffffffffffffffffffffffffffffffffff168373ffffffffffffffffffffffffffffffffffffffff161415610742576040517f08c379a000000000000000000000000000000000000000000000000000000000815260040161073990612c8e565b60405180910390fd5b8073ffffffffffffffffffffffffffffffffffffffff166107616112f4565b73ffffffffffffffffffffffffffffffffffffffff161480610790575061078f8161078a6112f4565b6111ab565b5b6107cf576040517f08c379a00000000000000000000000000000000000000000000000000000000081526004016107c690612c2e565b60405180910390fd5b6107d983836112fc565b505050565b60007f0000000000000000000000000000000000000000000000000000000000000000341015610839576040517e8cd67d00000000000000000000000000000000000000000000000000000000815260040160405180910390fd5b7f000000000000000000000000000000000000000000000000000000000000000073ffffffffffffffffffffffffffffffffffffffff16635d3b1d307f00000000000000000000000000000000000000000000000000000000000000007f000000000000000000000000000000000000000000000000000000000000000060017f000000000000000000000000000000000000000000000000000000000000000060016040518663ffffffff1660e01b81526004016108fc959493929190612a75565b602060405180830381600087803b15801561091657600080fd5b505af115801561092a573d6000803e3d6000fd5b505050506040513d601f19601f8201168201806040525081019061094e919061256a565b9050336007600083815260200190815260200160002060006101000a81548173ffffffffffffffffffffffffffffffffffffffff021916908373ffffffffffffffffffffffffffffffffffffffff1602179055507f0ec1d56326083565f7bd9c30be70b2a4d17288e02bfe0efd84e51840816f0f6d81336040516109d3929190612ce9565b60405180910390a190565b7f000000000000000000000000000000000000000000000000000000000000000073ffffffffffffffffffffffffffffffffffffffff163373ffffffffffffffffffffffffffffffffffffffff1614610a9057337f00000000000000000000000000000000000000000000000000000000000000006040517f1cf993f4000000000000000000000000000000000000000000000000000000008152600401610a879291906129ca565b60405180910390fd5b610a9a82826113b5565b5050565b610aaf610aa96112f4565b82611533565b610aee576040517f08c379a0000000000000000000000000000000000000000000000000000000008152600401610ae590612cae565b60405180910390fd5b610af98383836115c8565b505050565b3373ffffffffffffffffffffffffffffffffffffffff167f000000000000000000000000000000000000000000000000000000000000000073ffffffffffffffffffffffffffffffffffffffff1614610b8c576040517f08c379a0000000000000000000000000000000000000000000000000000000008152600401610b8390612b8e565b60405180910390fd5b600047905060007f000000000000000000000000000000000000000000000000000000000000000073ffffffffffffffffffffffffffffffffffffffff1682604051610bd79061299a565b60006040518083038185875af1925050503d8060008114610c14576040519150601f19603f3d011682016040523d82523d6000602084013e610c19565b606091505b5050905080610c2757600080fd5b5050565b600080600090506000610c3c610d17565b905060005b6003811015610cbf57828510158015610c705750818160038110610c6857610c6761317a565b5b602002015185105b15610c9257806002811115610c8857610c8761311c565b5b9350505050610cf2565b818160038110610ca557610ca461317a565b5b602002015192508080610cb790613044565b915050610c41565b506040517f207294d400000000000000000000000000000000000000000000000000000000815260040160405180910390fd5b919050565b610d1283838360405180602001604052806000815250610f86565b505050565b610d1f6120cf565b6040518060600160405280600a8152602001601e81526020016064815250905090565b6000806002600084815260200190815260200160002060009054906101000a900473ffffffffffffffffffffffffffffffffffffffff169050600073ffffffffffffffffffffffffffffffffffffffff168173ffffffffffffffffffffffffffffffffffffffff161415610deb576040517f08c379a0000000000000000000000000000000000000000000000000000000008152600401610de290612c6e565b60405180910390fd5b80915050919050565b6000600854905090565b60008073ffffffffffffffffffffffffffffffffffffffff168273ffffffffffffffffffffffffffffffffffffffff161415610e6f576040517f08c379a0000000000000000000000000000000000000000000000000000000008152600401610e6690612bee565b60405180910390fd5b600360008373ffffffffffffffffffffffffffffffffffffffff1673ffffffffffffffffffffffffffffffffffffffff168152602001908152602001600020549050919050565b60007f0000000000000000000000000000000000000000000000000000000000000000905090565b606060018054610eed90612fe1565b80601f0160208091040260200160405190810160405280929190818152602001828054610f1990612fe1565b8015610f665780601f10610f3b57610100808354040283529160200191610f66565b820191906000526020600020905b815481529060010190602001808311610f4957829003601f168201915b5050505050905090565b610f82610f7b6112f4565b838361182f565b5050565b610f97610f916112f4565b83611533565b610fd6576040517f08c379a0000000000000000000000000000000000000000000000000000000008152600401610fcd90612cae565b60405180910390fd5b610fe28484848461199c565b50505050565b6060610ff3826112a9565b600060066000848152602001908152602001600020805461101390612fe1565b80601f016020809104026020016040519081016040528092919081815260200182805461103f90612fe1565b801561108c5780601f106110615761010080835404028352916020019161108c565b820191906000526020600020905b81548152906001019060200180831161106f57829003601f168201915b50505050509050600061109d6119f8565b90506000815114156110b35781925050506110f6565b6000825111156110e85780826040516020016110d0929190612976565b604051602081830303815290604052925050506110f6565b6110f184611a0f565b925050505b919050565b6060600982815481106111115761111061317a565b5b90600052602060002001805461112690612fe1565b80601f016020809104026020016040519081016040528092919081815260200182805461115290612fe1565b801561119f5780601f106111745761010080835404028352916020019161119f565b820191906000526020600020905b81548152906001019060200180831161118257829003601f168201915b50505050509050919050565b6000600560008473ffffffffffffffffffffffffffffffffffffffff1673ffffffffffffffffffffffffffffffffffffffff16815260200190815260200160002060008373ffffffffffffffffffffffffffffffffffffffff1673ffffffffffffffffffffffffffffffffffffffff16815260200190815260200160002060009054906101000a900460ff16905092915050565b60007f01ffc9a7000000000000000000000000000000000000000000000000000000007bffffffffffffffffffffffffffffffffffffffffffffffffffffffff1916827bffffffffffffffffffffffffffffffffffffffffffffffffffffffff1916149050919050565b6112b281611a77565b6112f1576040517f08c379a00000000000000000000000000000000000000000000000000000000081526004016112e890612c6e565b60405180910390fd5b50565b600033905090565b816004600083815260200190815260200160002060006101000a81548173ffffffffffffffffffffffffffffffffffffffff021916908373ffffffffffffffffffffffffffffffffffffffff160217905550808273ffffffffffffffffffffffffffffffffffffffff1661136f83610d42565b73ffffffffffffffffffffffffffffffffffffffff167f8c5be1e5ebec7d5bd14f71427d1e84f3dd0314c0f7b2291e5b200ac8c7c3b92560405160405180910390a45050565b60006007600084815260200190815260200160002060009054906101000a900473ffffffffffffffffffffffffffffffffffffffff16905060006008549050600061140b606486611406919061308d565b610c2b565b90506001600860008282546114209190612e0f565b925050819055506114318383611ae3565b6114f382600983600281111561144a5761144961311c565b5b8154811061145b5761145a61317a565b5b90600052602060002001805461147090612fe1565b80601f016020809104026020016040519081016040528092919081815260200182805461149c90612fe1565b80156114e95780601f106114be576101008083540402835291602001916114e9565b820191906000526020600020905b8154815290600101906020018083116114cc57829003601f168201915b5050505050611b01565b7fab79897476febbd649710b1bd1dc3e93a316d3dee65f65b022ab89a4b7e206b58184604051611524929190612ae3565b60405180910390a15050505050565b60008061153f83610d42565b90508073ffffffffffffffffffffffffffffffffffffffff168473ffffffffffffffffffffffffffffffffffffffff161480611581575061158081856111ab565b5b806115bf57508373ffffffffffffffffffffffffffffffffffffffff166115a784610680565b73ffffffffffffffffffffffffffffffffffffffff16145b91505092915050565b8273ffffffffffffffffffffffffffffffffffffffff166115e882610d42565b73ffffffffffffffffffffffffffffffffffffffff161461163e576040517f08c379a000000000000000000000000000000000000000000000000000000000815260040161163590612b4e565b60405180910390fd5b600073ffffffffffffffffffffffffffffffffffffffff168273ffffffffffffffffffffffffffffffffffffffff1614156116ae576040517f08c379a00000000000000000000000000000000000000000000000000000000081526004016116a590612bae565b60405180910390fd5b6116b9838383611b75565b6116c46000826112fc565b6001600360008573ffffffffffffffffffffffffffffffffffffffff1673ffffffffffffffffffffffffffffffffffffffff16815260200190815260200160002060008282546117149190612e96565b925050819055506001600360008473ffffffffffffffffffffffffffffffffffffffff1673ffffffffffffffffffffffffffffffffffffffff168152602001908152602001600020600082825461176b9190612e0f565b92505081905550816002600083815260200190815260200160002060006101000a81548173ffffffffffffffffffffffffffffffffffffffff021916908373ffffffffffffffffffffffffffffffffffffffff160217905550808273ffffffffffffffffffffffffffffffffffffffff168473ffffffffffffffffffffffffffffffffffffffff167fddf252ad1be2c89b69c2b068fc378daa952ba7f163c4a11628f55a4df523b3ef60405160405180910390a461182a838383611b7a565b505050565b8173ffffffffffffffffffffffffffffffffffffffff168373ffffffffffffffffffffffffffffffffffffffff16141561189e576040517f08c379a000000000000000000000000000000000000000000000000000000000815260040161189590612bce565b60405180910390fd5b80600560008573ffffffffffffffffffffffffffffffffffffffff1673ffffffffffffffffffffffffffffffffffffffff16815260200190815260200160002060008473ffffffffffffffffffffffffffffffffffffffff1673ffffffffffffffffffffffffffffffffffffffff16815260200190815260200160002060006101000a81548160ff0219169083151502179055508173ffffffffffffffffffffffffffffffffffffffff168373ffffffffffffffffffffffffffffffffffffffff167f17307eab39ab6107e8899845ad3d59bd9653f200f220920489ca2b5937696c318360405161198f9190612a5a565b60405180910390a3505050565b6119a78484846115c8565b6119b384848484611b7f565b6119f2576040517f08c379a00000000000000000000000000000000000000000000000000000000081526004016119e990612b2e565b60405180910390fd5b50505050565b606060405180602001604052806000815250905090565b6060611a1a826112a9565b6000611a246119f8565b90506000815111611a445760405180602001604052806000815250611a6f565b80611a4e84611d16565b604051602001611a5f929190612976565b6040516020818303038152906040525b915050919050565b60008073ffffffffffffffffffffffffffffffffffffffff166002600084815260200190815260200160002060009054906101000a900473ffffffffffffffffffffffffffffffffffffffff1673ffffffffffffffffffffffffffffffffffffffff1614159050919050565b611afd828260405180602001604052806000815250611e77565b5050565b611b0a82611a77565b611b49576040517f08c379a0000000000000000000000000000000000000000000000000000000008152600401611b4090612c0e565b60405180910390fd5b80600660008481526020019081526020016000209080519060200190611b709291906120f1565b505050565b505050565b505050565b6000611ba08473ffffffffffffffffffffffffffffffffffffffff16611ed2565b15611d09578373ffffffffffffffffffffffffffffffffffffffff1663150b7a02611bc96112f4565b8786866040518563ffffffff1660e01b8152600401611beb94939291906129f3565b602060405180830381600087803b158015611c0557600080fd5b505af1925050508015611c3657506040513d601f19601f82011682018060405250810190611c339190612510565b60015b611cb9573d8060008114611c66576040519150601f19603f3d011682016040523d82523d6000602084013e611c6b565b606091505b50600081511415611cb1576040517f08c379a0000000000000000000000000000000000000000000000000000000008152600401611ca890612b2e565b60405180910390fd5b805181602001fd5b63150b7a0260e01b7bffffffffffffffffffffffffffffffffffffffffffffffffffffffff1916817bffffffffffffffffffffffffffffffffffffffffffffffffffffffff191614915050611d0e565b600190505b949350505050565b60606000821415611d5e576040518060400160405280600181526020017f30000000000000000000000000000000000000000000000000000000000000008152509050611e72565b600082905060005b60008214611d90578080611d7990613044565b915050600a82611d899190612e65565b9150611d66565b60008167ffffffffffffffff811115611dac57611dab6131a9565b5b6040519080825280601f01601f191660200182016040528015611dde5781602001600182028036833780820191505090505b5090505b60008514611e6b57600182611df79190612e96565b9150600a85611e06919061308d565b6030611e129190612e0f565b60f81b818381518110611e2857611e2761317a565b5b60200101907effffffffffffffffffffffffffffffffffffffffffffffffffffffffffffff1916908160001a905350600a85611e649190612e65565b9450611de2565b8093505050505b919050565b611e818383611ef5565b611e8e6000848484611b7f565b611ecd576040517f08c379a0000000000000000000000000000000000000000000000000000000008152600401611ec490612b2e565b60405180910390fd5b505050565b6000808273ffffffffffffffffffffffffffffffffffffffff163b119050919050565b600073ffffffffffffffffffffffffffffffffffffffff168273ffffffffffffffffffffffffffffffffffffffff161415611f65576040517f08c379a0000000000000000000000000000000000000000000000000000000008152600401611f5c90612c4e565b60405180910390fd5b611f6e81611a77565b15611fae576040517f08c379a0000000000000000000000000000000000000000000000000000000008152600401611fa590612b6e565b60405180910390fd5b611fba60008383611b75565b6001600360008473ffffffffffffffffffffffffffffffffffffffff1673ffffffffffffffffffffffffffffffffffffffff168152602001908152602001600020600082825461200a9190612e0f565b92505081905550816002600083815260200190815260200160002060006101000a81548173ffffffffffffffffffffffffffffffffffffffff021916908373ffffffffffffffffffffffffffffffffffffffff160217905550808273ffffffffffffffffffffffffffffffffffffffff16600073ffffffffffffffffffffffffffffffffffffffff167fddf252ad1be2c89b69c2b068fc378daa952ba7f163c4a11628f55a4df523b3ef60405160405180910390a46120cb60008383611b7a565b5050565b6040518060600160405280600390602082028036833780820191505090505090565b8280546120fd90612fe1565b90600052602060002090601f01602090048101928261211f5760008555612166565b82601f1061213857805160ff1916838001178555612166565b82800160010185558215612166579182015b8281111561216557825182559160200191906001019061214a565b5b5090506121739190612177565b5090565b5b80821115612190576000816000905550600101612178565b5090565b60006121a76121a284612d37565b612d12565b905080838252602082019050828560208602820111156121ca576121c96131dd565b5b60005b858110156121fa57816121e088826122f6565b8452602084019350602083019250506001810190506121cd565b5050509392505050565b600061221761221284612d63565b612d12565b905082815260208101848484011115612233576122326131e2565b5b61223e848285612f9f565b509392505050565b6000813590506122558161355e565b92915050565b600082601f8301126122705761226f6131d8565b5b8135612280848260208601612194565b91505092915050565b60008135905061229881613575565b92915050565b6000813590506122ad8161358c565b92915050565b6000815190506122c28161358c565b92915050565b600082601f8301126122dd576122dc6131d8565b5b81356122ed848260208601612204565b91505092915050565b600081359050612305816135a3565b92915050565b60008151905061231a816135a3565b92915050565b600060208284031215612336576123356131ec565b5b600061234484828501612246565b91505092915050565b60008060408385031215612364576123636131ec565b5b600061237285828601612246565b925050602061238385828601612246565b9150509250929050565b6000806000606084860312156123a6576123a56131ec565b5b60006123b486828701612246565b93505060206123c586828701612246565b92505060406123d6868287016122f6565b9150509250925092565b600080600080608085870312156123fa576123f96131ec565b5b600061240887828801612246565b945050602061241987828801612246565b935050604061242a878288016122f6565b925050606085013567ffffffffffffffff81111561244b5761244a6131e7565b5b612457878288016122c8565b91505092959194509250565b6000806040838503121561247a576124796131ec565b5b600061248885828601612246565b925050602061249985828601612289565b9150509250929050565b600080604083850312156124ba576124b96131ec565b5b60006124c885828601612246565b92505060206124d9858286016122f6565b9150509250929050565b6000602082840312156124f9576124f86131ec565b5b60006125078482850161229e565b91505092915050565b600060208284031215612526576125256131ec565b5b6000612534848285016122b3565b91505092915050565b600060208284031215612553576125526131ec565b5b6000612561848285016122f6565b91505092915050565b6000602082840312156125805761257f6131ec565b5b600061258e8482850161230b565b91505092915050565b600080604083850312156125ae576125ad6131ec565b5b60006125bc858286016122f6565b925050602083013567ffffffffffffffff8111156125dd576125dc6131e7565b5b6125e98582860161225b565b9150509250929050565b60006125ff838361293a565b60208301905092915050565b61261481612eca565b82525050565b61262381612d9e565b61262d8184612dcc565b925061263882612d94565b8060005b8381101561266957815161265087826125f3565b965061265b83612dbf565b92505060018101905061263c565b505050505050565b61267a81612edc565b82525050565b61268981612ee8565b82525050565b600061269a82612da9565b6126a48185612dd7565b93506126b4818560208601612fae565b6126bd816131f1565b840191505092915050565b6126d181612f8d565b82525050565b60006126e282612db4565b6126ec8185612df3565b93506126fc818560208601612fae565b612705816131f1565b840191505092915050565b600061271b82612db4565b6127258185612e04565b9350612735818560208601612fae565b80840191505092915050565b600061274e603283612df3565b915061275982613202565b604082019050919050565b6000612771602583612df3565b915061277c82613251565b604082019050919050565b6000612794601c83612df3565b915061279f826132a0565b602082019050919050565b60006127b7601d83612df3565b91506127c2826132c9565b602082019050919050565b60006127da602483612df3565b91506127e5826132f2565b604082019050919050565b60006127fd601983612df3565b915061280882613341565b602082019050919050565b6000612820602983612df3565b915061282b8261336a565b604082019050919050565b6000612843602e83612df3565b915061284e826133b9565b604082019050919050565b6000612866603e83612df3565b915061287182613408565b604082019050919050565b6000612889602083612df3565b915061289482613457565b602082019050919050565b60006128ac601883612df3565b91506128b782613480565b602082019050919050565b60006128cf602183612df3565b91506128da826134a9565b604082019050919050565b60006128f2600083612de8565b91506128fd826134f8565b600082019050919050565b6000612915602e83612df3565b9150612920826134fb565b604082019050919050565b61293481612f31565b82525050565b61294381612f5f565b82525050565b61295281612f5f565b82525050565b61296181612f69565b82525050565b61297081612f79565b82525050565b60006129828285612710565b915061298e8284612710565b91508190509392505050565b60006129a5826128e5565b9150819050919050565b60006020820190506129c4600083018461260b565b92915050565b60006040820190506129df600083018561260b565b6129ec602083018461260b565b9392505050565b6000608082019050612a08600083018761260b565b612a15602083018661260b565b612a226040830185612949565b8181036060830152612a34818461268f565b905095945050505050565b6000606082019050612a54600083018461261a565b92915050565b6000602082019050612a6f6000830184612671565b92915050565b600060a082019050612a8a6000830188612680565b612a976020830187612967565b612aa4604083018661292b565b612ab16060830185612958565b612abe6080830184612958565b9695505050505050565b6000602082019050612add60008301846126c8565b92915050565b6000604082019050612af860008301856126c8565b612b05602083018461260b565b9392505050565b60006020820190508181036000830152612b2681846126d7565b905092915050565b60006020820190508181036000830152612b4781612741565b9050919050565b60006020820190508181036000830152612b6781612764565b9050919050565b60006020820190508181036000830152612b8781612787565b9050919050565b60006020820190508181036000830152612ba7816127aa565b9050919050565b60006020820190508181036000830152612bc7816127cd565b9050919050565b60006020820190508181036000830152612be7816127f0565b9050919050565b60006020820190508181036000830152612c0781612813565b9050919050565b60006020820190508181036000830152612c2781612836565b9050919050565b60006020820190508181036000830152612c4781612859565b9050919050565b60006020820190508181036000830152612c678161287c565b9050919050565b60006020820190508181036000830152612c878161289f565b9050919050565b60006020820190508181036000830152612ca7816128c2565b9050919050565b60006020820190508181036000830152612cc781612908565b9050919050565b6000602082019050612ce36000830184612949565b92915050565b6000604082019050612cfe6000830185612949565b612d0b602083018461260b565b9392505050565b6000612d1c612d2d565b9050612d288282613013565b919050565b6000604051905090565b600067ffffffffffffffff821115612d5257612d516131a9565b5b602082029050602081019050919050565b600067ffffffffffffffff821115612d7e57612d7d6131a9565b5b612d87826131f1565b9050602081019050919050565b6000819050919050565b600060039050919050565b600081519050919050565b600081519050919050565b6000602082019050919050565b600081905092915050565b600082825260208201905092915050565b600081905092915050565b600082825260208201905092915050565b600081905092915050565b6000612e1a82612f5f565b9150612e2583612f5f565b9250827fffffffffffffffffffffffffffffffffffffffffffffffffffffffffffffffff03821115612e5a57612e596130be565b5b828201905092915050565b6000612e7082612f5f565b9150612e7b83612f5f565b925082612e8b57612e8a6130ed565b5b828204905092915050565b6000612ea182612f5f565b9150612eac83612f5f565b925082821015612ebf57612ebe6130be565b5b828203905092915050565b6000612ed582612f3f565b9050919050565b60008115159050919050565b6000819050919050565b60007fffffffff0000000000000000000000000000000000000000000000000000000082169050919050565b6000819050612f2c8261354a565b919050565b600061ffff82169050919050565b600073ffffffffffffffffffffffffffffffffffffffff82169050919050565b6000819050919050565b600063ffffffff82169050919050565b600067ffffffffffffffff82169050919050565b6000612f9882612f1e565b9050919050565b82818337600083830152505050565b60005b83811015612fcc578082015181840152602081019050612fb1565b83811115612fdb576000848401525b50505050565b60006002820490506001821680612ff957607f821691505b6020821081141561300d5761300c61314b565b5b50919050565b61301c826131f1565b810181811067ffffffffffffffff8211171561303b5761303a6131a9565b5b80604052505050565b600061304f82612f5f565b91507fffffffffffffffffffffffffffffffffffffffffffffffffffffffffffffffff821415613082576130816130be565b5b600182019050919050565b600061309882612f5f565b91506130a383612f5f565b9250826130b3576130b26130ed565b5b828206905092915050565b7f4e487b7100000000000000000000000000000000000000000000000000000000600052601160045260246000fd5b7f4e487b7100000000000000000000000000000000000000000000000000000000600052601260045260246000fd5b7f4e487b7100000000000000000000000000000000000000000000000000000000600052602160045260246000fd5b7f4e487b7100000000000000000000000000000000000000000000000000000000600052602260045260246000fd5b7f4e487b7100000000000000000000000000000000000000000000000000000000600052603260045260246000fd5b7f4e487b7100000000000000000000000000000000000000000000000000000000600052604160045260246000fd5b600080fd5b600080fd5b600080fd5b600080fd5b600080fd5b6000601f19601f8301169050919050565b7f4552433732313a207472616e7366657220746f206e6f6e20455243373231526560008201527f63656976657220696d706c656d656e7465720000000000000000000000000000602082015250565b7f4552433732313a207472616e736665722066726f6d20696e636f72726563742060008201527f6f776e6572000000000000000000000000000000000000000000000000000000602082015250565b7f4552433732313a20746f6b656e20616c7265616479206d696e74656400000000600082015250565b7f4e6f6e2073656920696c2063726561746f7265206465676c69204e4654000000600082015250565b7f4552433732313a207472616e7366657220746f20746865207a65726f2061646460008201527f7265737300000000000000000000000000000000000000000000000000000000602082015250565b7f4552433732313a20617070726f766520746f2063616c6c657200000000000000600082015250565b7f4552433732313a2061646472657373207a65726f206973206e6f74206120766160008201527f6c6964206f776e65720000000000000000000000000000000000000000000000602082015250565b7f45524337323155524953746f726167653a2055524920736574206f66206e6f6e60008201527f6578697374656e7420746f6b656e000000000000000000000000000000000000602082015250565b7f4552433732313a20617070726f76652063616c6c6572206973206e6f7420746f60008201527f6b656e206f776e6572206e6f7220617070726f76656420666f7220616c6c0000602082015250565b7f4552433732313a206d696e7420746f20746865207a65726f2061646472657373600082015250565b7f4552433732313a20696e76616c696420746f6b656e2049440000000000000000600082015250565b7f4552433732313a20617070726f76616c20746f2063757272656e74206f776e6560008201527f7200000000000000000000000000000000000000000000000000000000000000602082015250565b50565b7f4552433732313a2063616c6c6572206973206e6f7420746f6b656e206f776e6560008201527f72206e6f7220617070726f766564000000000000000000000000000000000000602082015250565b6003811061355b5761355a61311c565b5b50565b61356781612eca565b811461357257600080fd5b50565b61357e81612edc565b811461358957600080fd5b50565b61359581612ef2565b81146135a057600080fd5b50565b6135ac81612f5f565b81146135b757600080fd5b5056fea2646970667358221220b7ef81d479ce8dec133db94dd3337eb76a11a406585e7504d1d93ab919334f3264736f6c63430008070033",
  "devdoc": {
    "kind": "dev",
    "methods": {
      "approve(address,uint256)": {
        "details": "See {IERC721-approve}."
      },
      "balanceOf(address)": {
        "details": "See {IERC721-balanceOf}."
      },
      "getApproved(uint256)": {
        "details": "See {IERC721-getApproved}."
      },
      "isApprovedForAll(address,address)": {
        "details": "See {IERC721-isApprovedForAll}."
      },
      "name()": {
        "details": "See {IERC721Metadata-name}."
      },
      "ownerOf(uint256)": {
        "details": "See {IERC721-ownerOf}."
      },
      "safeTransferFrom(address,address,uint256)": {
        "details": "See {IERC721-safeTransferFrom}."
      },
      "safeTransferFrom(address,address,uint256,bytes)": {
        "details": "See {IERC721-safeTransferFrom}."
      },
      "setApprovalForAll(address,bool)": {
        "details": "See {IERC721-setApprovalForAll}."
      },
      "supportsInterface(bytes4)": {
        "details": "See {IERC165-supportsInterface}."
      },
      "symbol()": {
        "details": "See {IERC721Metadata-symbol}."
      },
      "tokenURI(uint256)": {
        "details": "See {IERC721Metadata-tokenURI}."
      },
      "transferFrom(address,address,uint256)": {
        "details": "See {IERC721-transferFrom}."
      }
    },
    "version": 1
  },
  "userdoc": {
    "kind": "user",
    "methods": {},
    "version": 1
  },
  "storageLayout": {
    "storage": [
      {
        "astId": 172,
        "contract": "contracts/RandomIPFS.sol:RandomIPFS",
        "label": "_name",
        "offset": 0,
        "slot": "0",
        "type": "t_string_storage"
      },
      {
        "astId": 174,
        "contract": "contracts/RandomIPFS.sol:RandomIPFS",
        "label": "_symbol",
        "offset": 0,
        "slot": "1",
        "type": "t_string_storage"
      },
      {
        "astId": 178,
        "contract": "contracts/RandomIPFS.sol:RandomIPFS",
        "label": "_owners",
        "offset": 0,
        "slot": "2",
        "type": "t_mapping(t_uint256,t_address)"
      },
      {
        "astId": 182,
        "contract": "contracts/RandomIPFS.sol:RandomIPFS",
        "label": "_balances",
        "offset": 0,
        "slot": "3",
        "type": "t_mapping(t_address,t_uint256)"
      },
      {
        "astId": 186,
        "contract": "contracts/RandomIPFS.sol:RandomIPFS",
        "label": "_tokenApprovals",
        "offset": 0,
        "slot": "4",
        "type": "t_mapping(t_uint256,t_address)"
      },
      {
        "astId": 192,
        "contract": "contracts/RandomIPFS.sol:RandomIPFS",
        "label": "_operatorApprovals",
        "offset": 0,
        "slot": "5",
        "type": "t_mapping(t_address,t_mapping(t_address,t_bool))"
      },
      {
        "astId": 1160,
        "contract": "contracts/RandomIPFS.sol:RandomIPFS",
        "label": "_tokenURIs",
        "offset": 0,
        "slot": "6",
        "type": "t_mapping(t_uint256,t_string_storage)"
      },
      {
        "astId": 1906,
        "contract": "contracts/RandomIPFS.sol:RandomIPFS",
        "label": "RequestNFT",
        "offset": 0,
        "slot": "7",
        "type": "t_mapping(t_uint256,t_address)"
      },
      {
        "astId": 1923,
        "contract": "contracts/RandomIPFS.sol:RandomIPFS",
        "label": "s_tokenConter",
        "offset": 0,
        "slot": "8",
        "type": "t_uint256"
      },
      {
        "astId": 1926,
        "contract": "contracts/RandomIPFS.sol:RandomIPFS",
        "label": "s_tokenURI",
        "offset": 0,
        "slot": "9",
        "type": "t_array(t_string_storage)dyn_storage"
      }
    ],
    "types": {
      "t_address": {
        "encoding": "inplace",
        "label": "address",
        "numberOfBytes": "20"
      },
      "t_array(t_string_storage)dyn_storage": {
        "base": "t_string_storage",
        "encoding": "dynamic_array",
        "label": "string[]",
        "numberOfBytes": "32"
      },
      "t_bool": {
        "encoding": "inplace",
        "label": "bool",
        "numberOfBytes": "1"
      },
      "t_mapping(t_address,t_bool)": {
        "encoding": "mapping",
        "key": "t_address",
        "label": "mapping(address => bool)",
        "numberOfBytes": "32",
        "value": "t_bool"
      },
      "t_mapping(t_address,t_mapping(t_address,t_bool))": {
        "encoding": "mapping",
        "key": "t_address",
        "label": "mapping(address => mapping(address => bool))",
        "numberOfBytes": "32",
        "value": "t_mapping(t_address,t_bool)"
      },
      "t_mapping(t_address,t_uint256)": {
        "encoding": "mapping",
        "key": "t_address",
        "label": "mapping(address => uint256)",
        "numberOfBytes": "32",
        "value": "t_uint256"
      },
      "t_mapping(t_uint256,t_address)": {
        "encoding": "mapping",
        "key": "t_uint256",
        "label": "mapping(uint256 => address)",
        "numberOfBytes": "32",
        "value": "t_address"
      },
      "t_mapping(t_uint256,t_string_storage)": {
        "encoding": "mapping",
        "key": "t_uint256",
        "label": "mapping(uint256 => string)",
        "numberOfBytes": "32",
        "value": "t_string_storage"
      },
      "t_string_storage": {
        "encoding": "bytes",
        "label": "string",
        "numberOfBytes": "32"
      },
      "t_uint256": {
        "encoding": "inplace",
        "label": "uint256",
        "numberOfBytes": "32"
      }
    }
  }
}