{
  "address": "0x5FbDB2315678afecb367f032d93F642f64180aa3",
  "abi": [
    {
      "inputs": [],
      "stateMutability": "nonpayable",
      "type": "constructor"
    },
    {
      "anonymous": false,
      "inputs": [
        {
          "indexed": true,
          "internalType": "address",
          "name": "owner",
          "type": "address"
        },
        {
          "indexed": true,
          "internalType": "address",
          "name": "approved",
          "type": "address"
        },
        {
          "indexed": true,
          "internalType": "uint256",
          "name": "tokenId",
          "type": "uint256"
        }
      ],
      "name": "Approval",
      "type": "event"
    },
    {
      "anonymous": false,
      "inputs": [
        {
          "indexed": true,
          "internalType": "address",
          "name": "owner",
          "type": "address"
        },
        {
          "indexed": true,
          "internalType": "address",
          "name": "operator",
          "type": "address"
        },
        {
          "indexed": false,
          "internalType": "bool",
          "name": "approved",
          "type": "bool"
        }
      ],
      "name": "ApprovalForAll",
      "type": "event"
    },
    {
      "anonymous": false,
      "inputs": [
        {
          "indexed": true,
          "internalType": "address",
          "name": "from",
          "type": "address"
        },
        {
          "indexed": true,
          "internalType": "address",
          "name": "to",
          "type": "address"
        },
        {
          "indexed": true,
          "internalType": "uint256",
          "name": "tokenId",
          "type": "uint256"
        }
      ],
      "name": "Transfer",
      "type": "event"
    },
    {
      "inputs": [],
      "name": "TOKEN_URI",
      "outputs": [
        {
          "internalType": "string",
          "name": "",
          "type": "string"
        }
      ],
      "stateMutability": "view",
      "type": "function"
    },
    {
      "inputs": [
        {
          "internalType": "address",
          "name": "to",
          "type": "address"
        },
        {
          "internalType": "uint256",
          "name": "tokenId",
          "type": "uint256"
        }
      ],
      "name": "approve",
      "outputs": [],
      "stateMutability": "nonpayable",
      "type": "function"
    },
    {
      "inputs": [
        {
          "internalType": "address",
          "name": "owner",
          "type": "address"
        }
      ],
      "name": "balanceOf",
      "outputs": [
        {
          "internalType": "uint256",
          "name": "",
          "type": "uint256"
        }
      ],
      "stateMutability": "view",
      "type": "function"
    },
    {
      "inputs": [
        {
          "internalType": "uint256",
          "name": "tokenId",
          "type": "uint256"
        }
      ],
      "name": "getApproved",
      "outputs": [
        {
          "internalType": "address",
          "name": "",
          "type": "address"
        }
      ],
      "stateMutability": "view",
      "type": "function"
    },
    {
      "inputs": [],
      "name": "getTokenCounter",
      "outputs": [
        {
          "internalType": "uint256",
          "name": "",
          "type": "uint256"
        }
      ],
      "stateMutability": "view",
      "type": "function"
    },
    {
      "inputs": [
        {
          "internalType": "address",
          "name": "owner",
          "type": "address"
        },
        {
          "internalType": "address",
          "name": "operator",
          "type": "address"
        }
      ],
      "name": "isApprovedForAll",
      "outputs": [
        {
          "internalType": "bool",
          "name": "",
          "type": "bool"
        }
      ],
      "stateMutability": "view",
      "type": "function"
    },
    {
      "inputs": [],
      "name": "mintNft",
      "outputs": [
        {
          "internalType": "uint256",
          "name": "",
          "type": "uint256"
        }
      ],
      "stateMutability": "nonpayable",
      "type": "function"
    },
    {
      "inputs": [],
      "name": "name",
      "outputs": [
        {
          "internalType": "string",
          "name": "",
          "type": "string"
        }
      ],
      "stateMutability": "view",
      "type": "function"
    },
    {
      "inputs": [
        {
          "internalType": "uint256",
          "name": "tokenId",
          "type": "uint256"
        }
      ],
      "name": "ownerOf",
      "outputs": [
        {
          "internalType": "address",
          "name": "",
          "type": "address"
        }
      ],
      "stateMutability": "view",
      "type": "function"
    },
    {
      "inputs": [
        {
          "internalType": "address",
          "name": "from",
          "type": "address"
        },
        {
          "internalType": "address",
          "name": "to",
          "type": "address"
        },
        {
          "internalType": "uint256",
          "name": "tokenId",
          "type": "uint256"
        }
      ],
      "name": "safeTransferFrom",
      "outputs": [],
      "stateMutability": "nonpayable",
      "type": "function"
    },
    {
      "inputs": [
        {
          "internalType": "address",
          "name": "from",
          "type": "address"
        },
        {
          "internalType": "address",
          "name": "to",
          "type": "address"
        },
        {
          "internalType": "uint256",
          "name": "tokenId",
          "type": "uint256"
        },
        {
          "internalType": "bytes",
          "name": "data",
          "type": "bytes"
        }
      ],
      "name": "safeTransferFrom",
      "outputs": [],
      "stateMutability": "nonpayable",
      "type": "function"
    },
    {
      "inputs": [
        {
          "internalType": "address",
          "name": "operator",
          "type": "address"
        },
        {
          "internalType": "bool",
          "name": "approved",
          "type": "bool"
        }
      ],
      "name": "setApprovalForAll",
      "outputs": [],
      "stateMutability": "nonpayable",
      "type": "function"
    },
    {
      "inputs": [
        {
          "internalType": "bytes4",
          "name": "interfaceId",
          "type": "bytes4"
        }
      ],
      "name": "supportsInterface",
      "outputs": [
        {
          "internalType": "bool",
          "name": "",
          "type": "bool"
        }
      ],
      "stateMutability": "view",
      "type": "function"
    },
    {
      "inputs": [],
      "name": "symbol",
      "outputs": [
        {
          "internalType": "string",
          "name": "",
          "type": "string"
        }
      ],
      "stateMutability": "view",
      "type": "function"
    },
    {
      "inputs": [],
      "name": "tokenURI",
      "outputs": [
        {
          "internalType": "string",
          "name": "",
          "type": "string"
        }
      ],
      "stateMutability": "view",
      "type": "function"
    },
    {
      "inputs": [
        {
          "internalType": "uint256",
          "name": "tokenId",
          "type": "uint256"
        }
      ],
      "name": "tokenURI",
      "outputs": [
        {
          "internalType": "string",
          "name": "",
          "type": "string"
        }
      ],
      "stateMutability": "view",
      "type": "function"
    },
    {
      "inputs": [
        {
          "internalType": "address",
          "name": "from",
          "type": "address"
        },
        {
          "internalType": "address",
          "name": "to",
          "type": "address"
        },
        {
          "internalType": "uint256",
          "name": "tokenId",
          "type": "uint256"
        }
      ],
      "name": "transferFrom",
      "outputs": [],
      "stateMutability": "nonpayable",
      "type": "function"
    }
  ],
  "transactionHash": "0xdcc21ab00fb488b07e1cce4b75819aee3eac7dbf9a24fc73543ed8f686c1b037",
  "args": [],
  "numDeployments": 1,
  "solcInputHash": "6c89f6e8e29eed582e4b5093a2afbfa8",
  "bytecode": "0x60806040523480156200001157600080fd5b506040518060400160405280600581526020017f46697273740000000000000000000000000000000000000000000000000000008152506040518060400160405280600681526020017f6e65774e46540000000000000000000000000000000000000000000000000000815250816000908051906020019062000096929190620000c0565b508060019080519060200190620000af929190620000c0565b5050506000600681905550620001d5565b828054620000ce9062000170565b90600052602060002090601f016020900481019282620000f257600085556200013e565b82601f106200010d57805160ff19168380011785556200013e565b828001600101855582156200013e579182015b828111156200013d57825182559160200191906001019062000120565b5b5090506200014d919062000151565b5090565b5b808211156200016c57600081600090555060010162000152565b5090565b600060028204905060018216806200018957607f821691505b60208210811415620001a0576200019f620001a6565b5b50919050565b7f4e487b7100000000000000000000000000000000000000000000000000000000600052602260045260246000fd5b61264d80620001e56000396000f3fe608060405234801561001057600080fd5b506004361061010b5760003560e01c80636e02007d116100a2578063a22cb46511610071578063a22cb465146102ba578063b88d4fde146102d6578063c2229fea146102f2578063c87b56dd14610310578063e985e9c5146103405761010b565b80636e02007d1461023057806370a082311461024e57806378ce90351461027e57806395d89b411461029c5761010b565b806323b872dd116100de57806323b872dd146101aa5780633c130d90146101c657806342842e0e146101e45780636352211e146102005761010b565b806301ffc9a71461011057806306fdde0314610140578063081812fc1461015e578063095ea7b31461018e575b600080fd5b61012a6004803603810190610125919061196d565b610370565b6040516101379190611cd0565b60405180910390f35b610148610452565b6040516101559190611ceb565b60405180910390f35b610178600480360381019061017391906119c7565b6104e4565b6040516101859190611c69565b60405180910390f35b6101a860048036038101906101a3919061192d565b61052a565b005b6101c460048036038101906101bf9190611817565b610642565b005b6101ce6106a2565b6040516101db9190611ceb565b60405180910390f35b6101fe60048036038101906101f99190611817565b6106c2565b005b61021a600480360381019061021591906119c7565b6106e2565b6040516102279190611c69565b60405180910390f35b610238610794565b6040516102459190611e6d565b60405180910390f35b610268600480360381019061026391906117aa565b61079e565b6040516102759190611e6d565b60405180910390f35b610286610856565b6040516102939190611ceb565b60405180910390f35b6102a4610872565b6040516102b19190611ceb565b60405180910390f35b6102d460048036038101906102cf91906118ed565b610904565b005b6102f060048036038101906102eb919061186a565b61091a565b005b6102fa61097c565b6040516103079190611e6d565b60405180910390f35b61032a600480360381019061032591906119c7565b6109bd565b6040516103379190611ceb565b60405180910390f35b61035a600480360381019061035591906117d7565b610a25565b6040516103679190611cd0565b60405180910390f35b60007f80ac58cd000000000000000000000000000000000000000000000000000000007bffffffffffffffffffffffffffffffffffffffffffffffffffffffff1916827bffffffffffffffffffffffffffffffffffffffffffffffffffffffff1916148061043b57507f5b5e139f000000000000000000000000000000000000000000000000000000007bffffffffffffffffffffffffffffffffffffffffffffffffffffffff1916827bffffffffffffffffffffffffffffffffffffffffffffffffffffffff1916145b8061044b575061044a82610ab9565b5b9050919050565b60606000805461046190612092565b80601f016020809104026020016040519081016040528092919081815260200182805461048d90612092565b80156104da5780601f106104af576101008083540402835291602001916104da565b820191906000526020600020905b8154815290600101906020018083116104bd57829003601f168201915b5050505050905090565b60006104ef82610b23565b6004600083815260200190815260200160002060009054906101000a900473ffffffffffffffffffffffffffffffffffffffff169050919050565b6000610535826106e2565b90508073ffffffffffffffffffffffffffffffffffffffff168373ffffffffffffffffffffffffffffffffffffffff1614156105a6576040517f08c379a000000000000000000000000000000000000000000000000000000000815260040161059d90611e2d565b60405180910390fd5b8073ffffffffffffffffffffffffffffffffffffffff166105c5610b6e565b73ffffffffffffffffffffffffffffffffffffffff1614806105f457506105f3816105ee610b6e565b610a25565b5b610633576040517f08c379a000000000000000000000000000000000000000000000000000000000815260040161062a90611dcd565b60405180910390fd5b61063d8383610b76565b505050565b61065361064d610b6e565b82610c2f565b610692576040517f08c379a000000000000000000000000000000000000000000000000000000000815260040161068990611e4d565b60405180910390fd5b61069d838383610cc4565b505050565b60606040518060a00160405280606f81526020016125a9606f9139905090565b6106dd8383836040518060200160405280600081525061091a565b505050565b6000806002600084815260200190815260200160002060009054906101000a900473ffffffffffffffffffffffffffffffffffffffff169050600073ffffffffffffffffffffffffffffffffffffffff168173ffffffffffffffffffffffffffffffffffffffff16141561078b576040517f08c379a000000000000000000000000000000000000000000000000000000000815260040161078290611e0d565b60405180910390fd5b80915050919050565b6000600654905090565b60008073ffffffffffffffffffffffffffffffffffffffff168273ffffffffffffffffffffffffffffffffffffffff16141561080f576040517f08c379a000000000000000000000000000000000000000000000000000000000815260040161080690611dad565b60405180910390fd5b600360008373ffffffffffffffffffffffffffffffffffffffff1673ffffffffffffffffffffffffffffffffffffffff168152602001908152602001600020549050919050565b6040518060a00160405280606f81526020016125a9606f913981565b60606001805461088190612092565b80601f01602080910402602001604051908101604052809291908181526020018280546108ad90612092565b80156108fa5780601f106108cf576101008083540402835291602001916108fa565b820191906000526020600020905b8154815290600101906020018083116108dd57829003601f168201915b5050505050905090565b61091661090f610b6e565b8383610f2b565b5050565b61092b610925610b6e565b83610c2f565b61096a576040517f08c379a000000000000000000000000000000000000000000000000000000000815260040161096190611e4d565b60405180910390fd5b61097684848484611098565b50505050565b600061099a33600654604051806020016040528060008152506110f4565b600654600660008282546109ae9190611f21565b92505081905550600654905090565b60606109c882610b23565b60006109d261114f565b905060008151116109f25760405180602001604052806000815250610a1d565b806109fc84611166565b604051602001610a0d929190611c45565b6040516020818303038152906040525b915050919050565b6000600560008473ffffffffffffffffffffffffffffffffffffffff1673ffffffffffffffffffffffffffffffffffffffff16815260200190815260200160002060008373ffffffffffffffffffffffffffffffffffffffff1673ffffffffffffffffffffffffffffffffffffffff16815260200190815260200160002060009054906101000a900460ff16905092915050565b60007f01ffc9a7000000000000000000000000000000000000000000000000000000007bffffffffffffffffffffffffffffffffffffffffffffffffffffffff1916827bffffffffffffffffffffffffffffffffffffffffffffffffffffffff1916149050919050565b610b2c816112c7565b610b6b576040517f08c379a0000000000000000000000000000000000000000000000000000000008152600401610b6290611e0d565b60405180910390fd5b50565b600033905090565b816004600083815260200190815260200160002060006101000a81548173ffffffffffffffffffffffffffffffffffffffff021916908373ffffffffffffffffffffffffffffffffffffffff160217905550808273ffffffffffffffffffffffffffffffffffffffff16610be9836106e2565b73ffffffffffffffffffffffffffffffffffffffff167f8c5be1e5ebec7d5bd14f71427d1e84f3dd0314c0f7b2291e5b200ac8c7c3b92560405160405180910390a45050565b600080610c3b836106e2565b90508073ffffffffffffffffffffffffffffffffffffffff168473ffffffffffffffffffffffffffffffffffffffff161480610c7d5750610c7c8185610a25565b5b80610cbb57508373ffffffffffffffffffffffffffffffffffffffff16610ca3846104e4565b73ffffffffffffffffffffffffffffffffffffffff16145b91505092915050565b8273ffffffffffffffffffffffffffffffffffffffff16610ce4826106e2565b73ffffffffffffffffffffffffffffffffffffffff1614610d3a576040517f08c379a0000000000000000000000000000000000000000000000000000000008152600401610d3190611d2d565b60405180910390fd5b600073ffffffffffffffffffffffffffffffffffffffff168273ffffffffffffffffffffffffffffffffffffffff161415610daa576040517f08c379a0000000000000000000000000000000000000000000000000000000008152600401610da190611d6d565b60405180910390fd5b610db5838383611333565b610dc0600082610b76565b6001600360008573ffffffffffffffffffffffffffffffffffffffff1673ffffffffffffffffffffffffffffffffffffffff1681526020019081526020016000206000828254610e109190611fa8565b925050819055506001600360008473ffffffffffffffffffffffffffffffffffffffff1673ffffffffffffffffffffffffffffffffffffffff1681526020019081526020016000206000828254610e679190611f21565b92505081905550816002600083815260200190815260200160002060006101000a81548173ffffffffffffffffffffffffffffffffffffffff021916908373ffffffffffffffffffffffffffffffffffffffff160217905550808273ffffffffffffffffffffffffffffffffffffffff168473ffffffffffffffffffffffffffffffffffffffff167fddf252ad1be2c89b69c2b068fc378daa952ba7f163c4a11628f55a4df523b3ef60405160405180910390a4610f26838383611338565b505050565b8173ffffffffffffffffffffffffffffffffffffffff168373ffffffffffffffffffffffffffffffffffffffff161415610f9a576040517f08c379a0000000000000000000000000000000000000000000000000000000008152600401610f9190611d8d565b60405180910390fd5b80600560008573ffffffffffffffffffffffffffffffffffffffff1673ffffffffffffffffffffffffffffffffffffffff16815260200190815260200160002060008473ffffffffffffffffffffffffffffffffffffffff1673ffffffffffffffffffffffffffffffffffffffff16815260200190815260200160002060006101000a81548160ff0219169083151502179055508173ffffffffffffffffffffffffffffffffffffffff168373ffffffffffffffffffffffffffffffffffffffff167f17307eab39ab6107e8899845ad3d59bd9653f200f220920489ca2b5937696c318360405161108b9190611cd0565b60405180910390a3505050565b6110a3848484610cc4565b6110af8484848461133d565b6110ee576040517f08c379a00000000000000000000000000000000000000000000000000000000081526004016110e590611d0d565b60405180910390fd5b50505050565b6110fe83836114d4565b61110b600084848461133d565b61114a576040517f08c379a000000000000000000000000000000000000000000000000000000000815260040161114190611d0d565b60405180910390fd5b505050565b606060405180602001604052806000815250905090565b606060008214156111ae576040518060400160405280600181526020017f300000000000000000000000000000000000000000000000000000000000000081525090506112c2565b600082905060005b600082146111e05780806111c9906120f5565b915050600a826111d99190611f77565b91506111b6565b60008167ffffffffffffffff8111156111fc576111fb61222b565b5b6040519080825280601f01601f19166020018201604052801561122e5781602001600182028036833780820191505090505b5090505b600085146112bb576001826112479190611fa8565b9150600a85611256919061213e565b60306112629190611f21565b60f81b818381518110611278576112776121fc565b5b60200101907effffffffffffffffffffffffffffffffffffffffffffffffffffffffffffff1916908160001a905350600a856112b49190611f77565b9450611232565b8093505050505b919050565b60008073ffffffffffffffffffffffffffffffffffffffff166002600084815260200190815260200160002060009054906101000a900473ffffffffffffffffffffffffffffffffffffffff1673ffffffffffffffffffffffffffffffffffffffff1614159050919050565b505050565b505050565b600061135e8473ffffffffffffffffffffffffffffffffffffffff166116ae565b156114c7578373ffffffffffffffffffffffffffffffffffffffff1663150b7a02611387610b6e565b8786866040518563ffffffff1660e01b81526004016113a99493929190611c84565b602060405180830381600087803b1580156113c357600080fd5b505af19250505080156113f457506040513d601f19601f820116820180604052508101906113f1919061199a565b60015b611477573d8060008114611424576040519150601f19603f3d011682016040523d82523d6000602084013e611429565b606091505b5060008151141561146f576040517f08c379a000000000000000000000000000000000000000000000000000000000815260040161146690611d0d565b60405180910390fd5b805181602001fd5b63150b7a0260e01b7bffffffffffffffffffffffffffffffffffffffffffffffffffffffff1916817bffffffffffffffffffffffffffffffffffffffffffffffffffffffff1916149150506114cc565b600190505b949350505050565b600073ffffffffffffffffffffffffffffffffffffffff168273ffffffffffffffffffffffffffffffffffffffff161415611544576040517f08c379a000000000000000000000000000000000000000000000000000000000815260040161153b90611ded565b60405180910390fd5b61154d816112c7565b1561158d576040517f08c379a000000000000000000000000000000000000000000000000000000000815260040161158490611d4d565b60405180910390fd5b61159960008383611333565b6001600360008473ffffffffffffffffffffffffffffffffffffffff1673ffffffffffffffffffffffffffffffffffffffff16815260200190815260200160002060008282546115e99190611f21565b92505081905550816002600083815260200190815260200160002060006101000a81548173ffffffffffffffffffffffffffffffffffffffff021916908373ffffffffffffffffffffffffffffffffffffffff160217905550808273ffffffffffffffffffffffffffffffffffffffff16600073ffffffffffffffffffffffffffffffffffffffff167fddf252ad1be2c89b69c2b068fc378daa952ba7f163c4a11628f55a4df523b3ef60405160405180910390a46116aa60008383611338565b5050565b6000808273ffffffffffffffffffffffffffffffffffffffff163b119050919050565b60006116e46116df84611ead565b611e88565b905082815260208101848484011115611700576116ff61225f565b5b61170b848285612050565b509392505050565b6000813590506117228161254c565b92915050565b60008135905061173781612563565b92915050565b60008135905061174c8161257a565b92915050565b6000815190506117618161257a565b92915050565b600082601f83011261177c5761177b61225a565b5b813561178c8482602086016116d1565b91505092915050565b6000813590506117a481612591565b92915050565b6000602082840312156117c0576117bf612269565b5b60006117ce84828501611713565b91505092915050565b600080604083850312156117ee576117ed612269565b5b60006117fc85828601611713565b925050602061180d85828601611713565b9150509250929050565b6000806000606084860312156118305761182f612269565b5b600061183e86828701611713565b935050602061184f86828701611713565b925050604061186086828701611795565b9150509250925092565b6000806000806080858703121561188457611883612269565b5b600061189287828801611713565b94505060206118a387828801611713565b93505060406118b487828801611795565b925050606085013567ffffffffffffffff8111156118d5576118d4612264565b5b6118e187828801611767565b91505092959194509250565b6000806040838503121561190457611903612269565b5b600061191285828601611713565b925050602061192385828601611728565b9150509250929050565b6000806040838503121561194457611943612269565b5b600061195285828601611713565b925050602061196385828601611795565b9150509250929050565b60006020828403121561198357611982612269565b5b60006119918482850161173d565b91505092915050565b6000602082840312156119b0576119af612269565b5b60006119be84828501611752565b91505092915050565b6000602082840312156119dd576119dc612269565b5b60006119eb84828501611795565b91505092915050565b6119fd81611fdc565b82525050565b611a0c81611fee565b82525050565b6000611a1d82611ede565b611a278185611ef4565b9350611a3781856020860161205f565b611a408161226e565b840191505092915050565b6000611a5682611ee9565b611a608185611f05565b9350611a7081856020860161205f565b611a798161226e565b840191505092915050565b6000611a8f82611ee9565b611a998185611f16565b9350611aa981856020860161205f565b80840191505092915050565b6000611ac2603283611f05565b9150611acd8261227f565b604082019050919050565b6000611ae5602583611f05565b9150611af0826122ce565b604082019050919050565b6000611b08601c83611f05565b9150611b138261231d565b602082019050919050565b6000611b2b602483611f05565b9150611b3682612346565b604082019050919050565b6000611b4e601983611f05565b9150611b5982612395565b602082019050919050565b6000611b71602983611f05565b9150611b7c826123be565b604082019050919050565b6000611b94603e83611f05565b9150611b9f8261240d565b604082019050919050565b6000611bb7602083611f05565b9150611bc28261245c565b602082019050919050565b6000611bda601883611f05565b9150611be582612485565b602082019050919050565b6000611bfd602183611f05565b9150611c08826124ae565b604082019050919050565b6000611c20602e83611f05565b9150611c2b826124fd565b604082019050919050565b611c3f81612046565b82525050565b6000611c518285611a84565b9150611c5d8284611a84565b91508190509392505050565b6000602082019050611c7e60008301846119f4565b92915050565b6000608082019050611c9960008301876119f4565b611ca660208301866119f4565b611cb36040830185611c36565b8181036060830152611cc58184611a12565b905095945050505050565b6000602082019050611ce56000830184611a03565b92915050565b60006020820190508181036000830152611d058184611a4b565b905092915050565b60006020820190508181036000830152611d2681611ab5565b9050919050565b60006020820190508181036000830152611d4681611ad8565b9050919050565b60006020820190508181036000830152611d6681611afb565b9050919050565b60006020820190508181036000830152611d8681611b1e565b9050919050565b60006020820190508181036000830152611da681611b41565b9050919050565b60006020820190508181036000830152611dc681611b64565b9050919050565b60006020820190508181036000830152611de681611b87565b9050919050565b60006020820190508181036000830152611e0681611baa565b9050919050565b60006020820190508181036000830152611e2681611bcd565b9050919050565b60006020820190508181036000830152611e4681611bf0565b9050919050565b60006020820190508181036000830152611e6681611c13565b9050919050565b6000602082019050611e826000830184611c36565b92915050565b6000611e92611ea3565b9050611e9e82826120c4565b919050565b6000604051905090565b600067ffffffffffffffff821115611ec857611ec761222b565b5b611ed18261226e565b9050602081019050919050565b600081519050919050565b600081519050919050565b600082825260208201905092915050565b600082825260208201905092915050565b600081905092915050565b6000611f2c82612046565b9150611f3783612046565b9250827fffffffffffffffffffffffffffffffffffffffffffffffffffffffffffffffff03821115611f6c57611f6b61216f565b5b828201905092915050565b6000611f8282612046565b9150611f8d83612046565b925082611f9d57611f9c61219e565b5b828204905092915050565b6000611fb382612046565b9150611fbe83612046565b925082821015611fd157611fd061216f565b5b828203905092915050565b6000611fe782612026565b9050919050565b60008115159050919050565b60007fffffffff0000000000000000000000000000000000000000000000000000000082169050919050565b600073ffffffffffffffffffffffffffffffffffffffff82169050919050565b6000819050919050565b82818337600083830152505050565b60005b8381101561207d578082015181840152602081019050612062565b8381111561208c576000848401525b50505050565b600060028204905060018216806120aa57607f821691505b602082108114156120be576120bd6121cd565b5b50919050565b6120cd8261226e565b810181811067ffffffffffffffff821117156120ec576120eb61222b565b5b80604052505050565b600061210082612046565b91507fffffffffffffffffffffffffffffffffffffffffffffffffffffffffffffffff8214156121335761213261216f565b5b600182019050919050565b600061214982612046565b915061215483612046565b9250826121645761216361219e565b5b828206905092915050565b7f4e487b7100000000000000000000000000000000000000000000000000000000600052601160045260246000fd5b7f4e487b7100000000000000000000000000000000000000000000000000000000600052601260045260246000fd5b7f4e487b7100000000000000000000000000000000000000000000000000000000600052602260045260246000fd5b7f4e487b7100000000000000000000000000000000000000000000000000000000600052603260045260246000fd5b7f4e487b7100000000000000000000000000000000000000000000000000000000600052604160045260246000fd5b600080fd5b600080fd5b600080fd5b600080fd5b6000601f19601f8301169050919050565b7f4552433732313a207472616e7366657220746f206e6f6e20455243373231526560008201527f63656976657220696d706c656d656e7465720000000000000000000000000000602082015250565b7f4552433732313a207472616e736665722066726f6d20696e636f72726563742060008201527f6f776e6572000000000000000000000000000000000000000000000000000000602082015250565b7f4552433732313a20746f6b656e20616c7265616479206d696e74656400000000600082015250565b7f4552433732313a207472616e7366657220746f20746865207a65726f2061646460008201527f7265737300000000000000000000000000000000000000000000000000000000602082015250565b7f4552433732313a20617070726f766520746f2063616c6c657200000000000000600082015250565b7f4552433732313a2061646472657373207a65726f206973206e6f74206120766160008201527f6c6964206f776e65720000000000000000000000000000000000000000000000602082015250565b7f4552433732313a20617070726f76652063616c6c6572206973206e6f7420746f60008201527f6b656e206f776e6572206e6f7220617070726f76656420666f7220616c6c0000602082015250565b7f4552433732313a206d696e7420746f20746865207a65726f2061646472657373600082015250565b7f4552433732313a20696e76616c696420746f6b656e2049440000000000000000600082015250565b7f4552433732313a20617070726f76616c20746f2063757272656e74206f776e6560008201527f7200000000000000000000000000000000000000000000000000000000000000602082015250565b7f4552433732313a2063616c6c6572206973206e6f7420746f6b656e206f776e6560008201527f72206e6f7220617070726f766564000000000000000000000000000000000000602082015250565b61255581611fdc565b811461256057600080fd5b50565b61256c81611fee565b811461257757600080fd5b50565b61258381611ffa565b811461258e57600080fd5b50565b61259a81612046565b81146125a557600080fd5b5056fe687474703a2f2f62616679626569656f7932326c71626462726863717a6971716e356566736f68746534753467326c69647a3363766563666c337979326a337065752e697066732e6c6f63616c686f73743a383038302f3f66696c656e616d653d53696d706c654e46542e6a736f6ea2646970667358221220cb8105c237c153f02e163bee2e93c50f28c7479f3fe3b3088eddceb3da57104864736f6c63430008070033",
  "devdoc": {
    "kind": "dev",
    "methods": {
      "approve(address,uint256)": {
        "details": "See {IERC721-approve}."
      },
      "balanceOf(address)": {
        "details": "See {IERC721-balanceOf}."
      },
      "getApproved(uint256)": {
        "details": "See {IERC721-getApproved}."
      },
      "isApprovedForAll(address,address)": {
        "details": "See {IERC721-isApprovedForAll}."
      },
      "name()": {
        "details": "See {IERC721Metadata-name}."
      },
      "ownerOf(uint256)": {
        "details": "See {IERC721-ownerOf}."
      },
      "safeTransferFrom(address,address,uint256)": {
        "details": "See {IERC721-safeTransferFrom}."
      },
      "safeTransferFrom(address,address,uint256,bytes)": {
        "details": "See {IERC721-safeTransferFrom}."
      },
      "setApprovalForAll(address,bool)": {
        "details": "See {IERC721-setApprovalForAll}."
      },
      "supportsInterface(bytes4)": {
        "details": "See {IERC165-supportsInterface}."
      },
      "symbol()": {
        "details": "See {IERC721Metadata-symbol}."
      },
      "tokenURI(uint256)": {
        "details": "See {IERC721Metadata-tokenURI}."
      },
      "transferFrom(address,address,uint256)": {
        "details": "See {IERC721-transferFrom}."
      }
    },
    "version": 1
  },
  "userdoc": {
    "kind": "user",
    "methods": {},
    "version": 1
  },
  "storageLayout": {
    "storage": [
      {
        "astId": 1183,
        "contract": "contracts/BasicNFT.sol:BasicNFT",
        "label": "_name",
        "offset": 0,
        "slot": "0",
        "type": "t_string_storage"
      },
      {
        "astId": 1185,
        "contract": "contracts/BasicNFT.sol:BasicNFT",
        "label": "_symbol",
        "offset": 0,
        "slot": "1",
        "type": "t_string_storage"
      },
      {
        "astId": 1189,
        "contract": "contracts/BasicNFT.sol:BasicNFT",
        "label": "_owners",
        "offset": 0,
        "slot": "2",
        "type": "t_mapping(t_uint256,t_address)"
      },
      {
        "astId": 1193,
        "contract": "contracts/BasicNFT.sol:BasicNFT",
        "label": "_balances",
        "offset": 0,
        "slot": "3",
        "type": "t_mapping(t_address,t_uint256)"
      },
      {
        "astId": 1197,
        "contract": "contracts/BasicNFT.sol:BasicNFT",
        "label": "_tokenApprovals",
        "offset": 0,
        "slot": "4",
        "type": "t_mapping(t_uint256,t_address)"
      },
      {
        "astId": 1203,
        "contract": "contracts/BasicNFT.sol:BasicNFT",
        "label": "_operatorApprovals",
        "offset": 0,
        "slot": "5",
        "type": "t_mapping(t_address,t_mapping(t_address,t_bool))"
      },
      {
        "astId": 3014,
        "contract": "contracts/BasicNFT.sol:BasicNFT",
        "label": "tokenId",
        "offset": 0,
        "slot": "6",
        "type": "t_uint256"
      }
    ],
    "types": {
      "t_address": {
        "encoding": "inplace",
        "label": "address",
        "numberOfBytes": "20"
      },
      "t_bool": {
        "encoding": "inplace",
        "label": "bool",
        "numberOfBytes": "1"
      },
      "t_mapping(t_address,t_bool)": {
        "encoding": "mapping",
        "key": "t_address",
        "label": "mapping(address => bool)",
        "numberOfBytes": "32",
        "value": "t_bool"
      },
      "t_mapping(t_address,t_mapping(t_address,t_bool))": {
        "encoding": "mapping",
        "key": "t_address",
        "label": "mapping(address => mapping(address => bool))",
        "numberOfBytes": "32",
        "value": "t_mapping(t_address,t_bool)"
      },
      "t_mapping(t_address,t_uint256)": {
        "encoding": "mapping",
        "key": "t_address",
        "label": "mapping(address => uint256)",
        "numberOfBytes": "32",
        "value": "t_uint256"
      },
      "t_mapping(t_uint256,t_address)": {
        "encoding": "mapping",
        "key": "t_uint256",
        "label": "mapping(uint256 => address)",
        "numberOfBytes": "32",
        "value": "t_address"
      },
      "t_string_storage": {
        "encoding": "bytes",
        "label": "string",
        "numberOfBytes": "32"
      },
      "t_uint256": {
        "encoding": "inplace",
        "label": "uint256",
        "numberOfBytes": "32"
      }
    }
  }
}