{
  "address": "0xe7f1725E7734CE288F8367e1Bb143E90bb3F0512",
  "abi": [
    {
      "inputs": [
        {
          "internalType": "address",
          "name": "VRFCoordinatorV2",
          "type": "address"
        },
        {
          "internalType": "uint64",
          "name": "subscriptionID",
          "type": "uint64"
        },
        {
          "internalType": "uint32",
          "name": "callbackGasLimit",
          "type": "uint32"
        },
        {
          "internalType": "bytes32",
          "name": "gasLane",
          "type": "bytes32"
        },
        {
          "internalType": "string[3]",
          "name": "_NFTTokenUris",
          "type": "string[3]"
        },
        {
          "internalType": "uint256",
          "name": "_mintPrice",
          "type": "uint256"
        }
      ],
      "stateMutability": "nonpayable",
      "type": "constructor"
    },
    {
      "inputs": [
        {
          "internalType": "address",
          "name": "have",
          "type": "address"
        },
        {
          "internalType": "address",
          "name": "want",
          "type": "address"
        }
      ],
      "name": "OnlyCoordinatorCanFulfill",
      "type": "error"
    },
    {
      "inputs": [],
      "name": "RangeOutOfRanges",
      "type": "error"
    },
    {
      "inputs": [],
      "name": "TransfertFailed",
      "type": "error"
    },
    {
      "anonymous": false,
      "inputs": [
        {
          "indexed": true,
          "internalType": "address",
          "name": "owner",
          "type": "address"
        },
        {
          "indexed": true,
          "internalType": "address",
          "name": "approved",
          "type": "address"
        },
        {
          "indexed": true,
          "internalType": "uint256",
          "name": "tokenId",
          "type": "uint256"
        }
      ],
      "name": "Approval",
      "type": "event"
    },
    {
      "anonymous": false,
      "inputs": [
        {
          "indexed": true,
          "internalType": "address",
          "name": "owner",
          "type": "address"
        },
        {
          "indexed": true,
          "internalType": "address",
          "name": "operator",
          "type": "address"
        },
        {
          "indexed": false,
          "internalType": "bool",
          "name": "approved",
          "type": "bool"
        }
      ],
      "name": "ApprovalForAll",
      "type": "event"
    },
    {
      "anonymous": false,
      "inputs": [
        {
          "indexed": false,
          "internalType": "enum RandomIPFS.Type",
          "name": "NFTType",
          "type": "uint8"
        },
        {
          "indexed": false,
          "internalType": "address",
          "name": "minter",
          "type": "address"
        }
      ],
      "name": "NFTMinted",
      "type": "event"
    },
    {
      "anonymous": false,
      "inputs": [
        {
          "indexed": false,
          "internalType": "uint256",
          "name": "requestId",
          "type": "uint256"
        },
        {
          "indexed": false,
          "internalType": "address",
          "name": "minter",
          "type": "address"
        }
      ],
      "name": "NFTRequest",
      "type": "event"
    },
    {
      "anonymous": false,
      "inputs": [
        {
          "indexed": true,
          "internalType": "address",
          "name": "from",
          "type": "address"
        },
        {
          "indexed": true,
          "internalType": "address",
          "name": "to",
          "type": "address"
        },
        {
          "indexed": true,
          "internalType": "uint256",
          "name": "tokenId",
          "type": "uint256"
        }
      ],
      "name": "Transfer",
      "type": "event"
    },
    {
      "inputs": [
        {
          "internalType": "address",
          "name": "to",
          "type": "address"
        },
        {
          "internalType": "uint256",
          "name": "tokenId",
          "type": "uint256"
        }
      ],
      "name": "approve",
      "outputs": [],
      "stateMutability": "nonpayable",
      "type": "function"
    },
    {
      "inputs": [
        {
          "internalType": "address",
          "name": "owner",
          "type": "address"
        }
      ],
      "name": "balanceOf",
      "outputs": [
        {
          "internalType": "uint256",
          "name": "",
          "type": "uint256"
        }
      ],
      "stateMutability": "view",
      "type": "function"
    },
    {
      "inputs": [
        {
          "internalType": "uint256",
          "name": "tokenId",
          "type": "uint256"
        }
      ],
      "name": "getApproved",
      "outputs": [
        {
          "internalType": "address",
          "name": "",
          "type": "address"
        }
      ],
      "stateMutability": "view",
      "type": "function"
    },
    {
      "inputs": [],
      "name": "getChanceArray",
      "outputs": [
        {
          "internalType": "uint256[3]",
          "name": "",
          "type": "uint256[3]"
        }
      ],
      "stateMutability": "pure",
      "type": "function"
    },
    {
      "inputs": [],
      "name": "getMintFee",
      "outputs": [
        {
          "internalType": "uint256",
          "name": "",
          "type": "uint256"
        }
      ],
      "stateMutability": "view",
      "type": "function"
    },
    {
      "inputs": [
        {
          "internalType": "uint256",
          "name": "index",
          "type": "uint256"
        }
      ],
      "name": "getNFTTokenUri",
      "outputs": [
        {
          "internalType": "string",
          "name": "",
          "type": "string"
        }
      ],
      "stateMutability": "view",
      "type": "function"
    },
    {
      "inputs": [],
      "name": "getTokenCounter",
      "outputs": [
        {
          "internalType": "uint256",
          "name": "",
          "type": "uint256"
        }
      ],
      "stateMutability": "view",
      "type": "function"
    },
    {
      "inputs": [
        {
          "internalType": "uint256",
          "name": "modded",
          "type": "uint256"
        }
      ],
      "name": "getType",
      "outputs": [
        {
          "internalType": "enum RandomIPFS.Type",
          "name": "",
          "type": "uint8"
        }
      ],
      "stateMutability": "pure",
      "type": "function"
    },
    {
      "inputs": [
        {
          "internalType": "address",
          "name": "owner",
          "type": "address"
        },
        {
          "internalType": "address",
          "name": "operator",
          "type": "address"
        }
      ],
      "name": "isApprovedForAll",
      "outputs": [
        {
          "internalType": "bool",
          "name": "",
          "type": "bool"
        }
      ],
      "stateMutability": "view",
      "type": "function"
    },
    {
      "inputs": [],
      "name": "mintNFT",
      "outputs": [
        {
          "internalType": "uint256",
          "name": "requestId",
          "type": "uint256"
        }
      ],
      "stateMutability": "payable",
      "type": "function"
    },
    {
      "inputs": [],
      "name": "name",
      "outputs": [
        {
          "internalType": "string",
          "name": "",
          "type": "string"
        }
      ],
      "stateMutability": "view",
      "type": "function"
    },
    {
      "inputs": [
        {
          "internalType": "uint256",
          "name": "tokenId",
          "type": "uint256"
        }
      ],
      "name": "ownerOf",
      "outputs": [
        {
          "internalType": "address",
          "name": "",
          "type": "address"
        }
      ],
      "stateMutability": "view",
      "type": "function"
    },
    {
      "inputs": [
        {
          "internalType": "uint256",
          "name": "requestId",
          "type": "uint256"
        },
        {
          "internalType": "uint256[]",
          "name": "randomWords",
          "type": "uint256[]"
        }
      ],
      "name": "rawFulfillRandomWords",
      "outputs": [],
      "stateMutability": "nonpayable",
      "type": "function"
    },
    {
      "inputs": [
        {
          "internalType": "uint256",
          "name": "",
          "type": "uint256"
        }
      ],
      "name": "s_requestID2Sender",
      "outputs": [
        {
          "internalType": "address",
          "name": "",
          "type": "address"
        }
      ],
      "stateMutability": "view",
      "type": "function"
    },
    {
      "inputs": [
        {
          "internalType": "address",
          "name": "from",
          "type": "address"
        },
        {
          "internalType": "address",
          "name": "to",
          "type": "address"
        },
        {
          "internalType": "uint256",
          "name": "tokenId",
          "type": "uint256"
        }
      ],
      "name": "safeTransferFrom",
      "outputs": [],
      "stateMutability": "nonpayable",
      "type": "function"
    },
    {
      "inputs": [
        {
          "internalType": "address",
          "name": "from",
          "type": "address"
        },
        {
          "internalType": "address",
          "name": "to",
          "type": "address"
        },
        {
          "internalType": "uint256",
          "name": "tokenId",
          "type": "uint256"
        },
        {
          "internalType": "bytes",
          "name": "data",
          "type": "bytes"
        }
      ],
      "name": "safeTransferFrom",
      "outputs": [],
      "stateMutability": "nonpayable",
      "type": "function"
    },
    {
      "inputs": [
        {
          "internalType": "address",
          "name": "operator",
          "type": "address"
        },
        {
          "internalType": "bool",
          "name": "approved",
          "type": "bool"
        }
      ],
      "name": "setApprovalForAll",
      "outputs": [],
      "stateMutability": "nonpayable",
      "type": "function"
    },
    {
      "inputs": [
        {
          "internalType": "bytes4",
          "name": "interfaceId",
          "type": "bytes4"
        }
      ],
      "name": "supportsInterface",
      "outputs": [
        {
          "internalType": "bool",
          "name": "",
          "type": "bool"
        }
      ],
      "stateMutability": "view",
      "type": "function"
    },
    {
      "inputs": [],
      "name": "symbol",
      "outputs": [
        {
          "internalType": "string",
          "name": "",
          "type": "string"
        }
      ],
      "stateMutability": "view",
      "type": "function"
    },
    {
      "inputs": [],
      "name": "tokenCounter",
      "outputs": [
        {
          "internalType": "uint256",
          "name": "",
          "type": "uint256"
        }
      ],
      "stateMutability": "view",
      "type": "function"
    },
    {
      "inputs": [
        {
          "internalType": "uint256",
          "name": "tokenId",
          "type": "uint256"
        }
      ],
      "name": "tokenURI",
      "outputs": [
        {
          "internalType": "string",
          "name": "",
          "type": "string"
        }
      ],
      "stateMutability": "view",
      "type": "function"
    },
    {
      "inputs": [
        {
          "internalType": "address",
          "name": "from",
          "type": "address"
        },
        {
          "internalType": "address",
          "name": "to",
          "type": "address"
        },
        {
          "internalType": "uint256",
          "name": "tokenId",
          "type": "uint256"
        }
      ],
      "name": "transferFrom",
      "outputs": [],
      "stateMutability": "nonpayable",
      "type": "function"
    },
    {
      "inputs": [],
      "name": "withdraw",
      "outputs": [],
      "stateMutability": "payable",
      "type": "function"
    }
  ],
  "transactionHash": "0x8e9e22ecc7ef4771a7094a37de5f0c5b4c6c566b8319f006b686738165d203bd",
  "args": [
    "0x2ca8e0c643bde4c2e08ab1fa0da3401adad7734d",
    "588",
    "50000",
    "0xd89b2bf150e3b9e13446986e571fb9cab24b13cea0a43ea20a6049a85cc807cc",
    [
      "ipfs://QmdVo4VJLAcbVAvJyauCMRiT9eC94HdUwXwswWdpG1gz5i",
      "ipfs://QmVdJSrJDgRYPL7vB13y5xpA2UsRhMPFMUppJ1AXbJQVju",
      "ipfs://QmNVnozFTT58R8PkCiDNX8D1AFvbeBeMoKb2XiW3YDht66"
    ],
    "10000000000000000"
  ],
  "numDeployments": 1,
  "solcInputHash": "6c89f6e8e29eed582e4b5093a2afbfa8",
  "bytecode": "0x6101406040523480156200001257600080fd5b50604051620040e1380380620040e183398181016040528101906200003891906200052a565b6040518060400160405280600681526020017f52616e646f6d00000000000000000000000000000000000000000000000000008152506040518060400160405280600481526020017f724e465400000000000000000000000000000000000000000000000000000000815250878073ffffffffffffffffffffffffffffffffffffffff1660808173ffffffffffffffffffffffffffffffffffffffff1660601b81525050508160009080519060200190620000f5929190620001f1565b5080600190805190602001906200010e929190620001f1565b50505033600760006101000a81548173ffffffffffffffffffffffffffffffffffffffff021916908373ffffffffffffffffffffffffffffffffffffffff1602179055508573ffffffffffffffffffffffffffffffffffffffff1660a08173ffffffffffffffffffffffffffffffffffffffff1660601b815250508467ffffffffffffffff1660c08167ffffffffffffffff1660c01b815250508363ffffffff1660e08163ffffffff1660e01b8152505082610100818152505081600b906003620001db92919062000282565b5080610120818152505050505050505062000885565b828054620001ff906200070f565b90600052602060002090601f0160209004810192826200022357600085556200026f565b82601f106200023e57805160ff19168380011785556200026f565b828001600101855582156200026f579182015b828111156200026e57825182559160200191906001019062000251565b5b5090506200027e9190620002e9565b5090565b828054828255906000526020600020908101928215620002d6579160200282015b82811115620002d5578251829080519060200190620002c4929190620001f1565b5091602001919060010190620002a3565b5b509050620002e5919062000308565b5090565b5b8082111562000304576000816000905550600101620002ea565b5090565b5b808211156200032c576000818162000322919062000330565b5060010162000309565b5090565b5080546200033e906200070f565b6000825580601f1062000352575062000373565b601f016020900490600052602060002090810190620003729190620002e9565b5b50565b60006200038d62000387846200060e565b620005e5565b90508082856020860282011115620003aa57620003a9620007de565b5b60005b85811015620003ff57815167ffffffffffffffff811115620003d457620003d3620007d9565b5b808601620003e38982620004b2565b85526020850194506020840193505050600181019050620003ad565b5050509392505050565b6000620004206200041a8462000637565b620005e5565b9050828152602081018484840111156200043f576200043e620007e3565b5b6200044c848285620006d9565b509392505050565b600081519050620004658162000803565b92915050565b600082601f830112620004835762000482620007d9565b5b60036200049284828562000376565b91505092915050565b600081519050620004ac816200081d565b92915050565b600082601f830112620004ca57620004c9620007d9565b5b8151620004dc84826020860162000409565b91505092915050565b600081519050620004f68162000837565b92915050565b6000815190506200050d8162000851565b92915050565b60008151905062000524816200086b565b92915050565b60008060008060008060c087890312156200054a5762000549620007ed565b5b60006200055a89828a0162000454565b96505060206200056d89828a0162000513565b95505060406200058089828a01620004fc565b94505060606200059389828a016200049b565b935050608087015167ffffffffffffffff811115620005b757620005b6620007e8565b5b620005c589828a016200046b565b92505060a0620005d889828a01620004e5565b9150509295509295509295565b6000620005f162000604565b9050620005ff828262000745565b919050565b6000604051905090565b600067ffffffffffffffff8211156200062c576200062b620007aa565b5b602082029050919050565b600067ffffffffffffffff821115620006555762000654620007aa565b5b6200066082620007f2565b9050602081019050919050565b60006200067a826200068b565b9050919050565b6000819050919050565b600073ffffffffffffffffffffffffffffffffffffffff82169050919050565b6000819050919050565b600063ffffffff82169050919050565b600067ffffffffffffffff82169050919050565b60005b83811015620006f9578082015181840152602081019050620006dc565b8381111562000709576000848401525b50505050565b600060028204905060018216806200072857607f821691505b602082108114156200073f576200073e6200077b565b5b50919050565b6200075082620007f2565b810181811067ffffffffffffffff82111715620007725762000771620007aa565b5b80604052505050565b7f4e487b7100000000000000000000000000000000000000000000000000000000600052602260045260246000fd5b7f4e487b7100000000000000000000000000000000000000000000000000000000600052604160045260246000fd5b600080fd5b600080fd5b600080fd5b600080fd5b600080fd5b6000601f19601f8301169050919050565b6200080e816200066d565b81146200081a57600080fd5b50565b620008288162000681565b81146200083457600080fd5b50565b6200084281620006ab565b81146200084e57600080fd5b50565b6200085c81620006b5565b81146200086857600080fd5b50565b6200087681620006c5565b81146200088257600080fd5b50565b60805160601c60a05160601c60c05160c01c60e05160e01c61010051610120516137f2620008ef6000396000818161086a0152610f7b015260006109130152600061095701526000610934015260006108d7015260008181610a7d0152610ad101526137f26000f3fe6080604052600436106101405760003560e01c80636352211e116100b6578063b88d4fde1161006f578063b88d4fde14610442578063c87b56dd1461046b578063d082e381146104a8578063e61084d4146104d3578063e985e9c514610510578063ed51249d1461054d57610140565b80636352211e1461031e5780636e02007d1461035b57806370a08231146103865780637a5caab3146103c357806395d89b41146103ee578063a22cb4651461041957610140565b80631fe543e3116101085780631fe543e31461023157806323b872dd1461025a5780633ccfd60b146102835780634036ab781461028d57806342842e0e146102ca5780635dacf5f4146102f357610140565b806301ffc9a71461014557806306fdde0314610182578063081812fc146101ad578063095ea7b3146101ea57806314f710fe14610213575b600080fd5b34801561015157600080fd5b5061016c600480360381019061016791906125f9565b61058a565b6040516101799190612b93565b60405180910390f35b34801561018e57600080fd5b5061019761066c565b6040516101a49190612c45565b60405180910390f35b3480156101b957600080fd5b506101d460048036038101906101cf9190612653565b6106fe565b6040516101e19190612ae8565b60405180910390f35b3480156101f657600080fd5b50610211600480360381019061020c91906125b9565b610744565b005b61021b61085c565b6040516102289190612e27565b60405180910390f35b34801561023d57600080fd5b50610258600480360381019061025391906126ad565b610a7b565b005b34801561026657600080fd5b50610281600480360381019061027c91906124a3565b610b3b565b005b61028b610b9b565b005b34801561029957600080fd5b506102b460048036038101906102af9190612653565b610cd7565b6040516102c19190612c01565b60405180910390f35b3480156102d657600080fd5b506102f160048036038101906102ec91906124a3565b610db8565b005b3480156102ff57600080fd5b50610308610dd8565b6040516103159190612b78565b60405180910390f35b34801561032a57600080fd5b5061034560048036038101906103409190612653565b610e03565b6040516103529190612ae8565b60405180910390f35b34801561036757600080fd5b50610370610eb5565b60405161037d9190612e27565b60405180910390f35b34801561039257600080fd5b506103ad60048036038101906103a89190612436565b610ebf565b6040516103ba9190612e27565b60405180910390f35b3480156103cf57600080fd5b506103d8610f77565b6040516103e59190612e27565b60405180910390f35b3480156103fa57600080fd5b50610403610f9f565b6040516104109190612c45565b60405180910390f35b34801561042557600080fd5b50610440600480360381019061043b9190612579565b611031565b005b34801561044e57600080fd5b50610469600480360381019061046491906124f6565b611047565b005b34801561047757600080fd5b50610492600480360381019061048d9190612653565b6110a9565b60405161049f9190612c45565b60405180910390f35b3480156104b457600080fd5b506104bd6111bc565b6040516104ca9190612e27565b60405180910390f35b3480156104df57600080fd5b506104fa60048036038101906104f59190612653565b6111c2565b6040516105079190612c45565b60405180910390f35b34801561051c57600080fd5b5061053760048036038101906105329190612463565b611272565b6040516105449190612b93565b60405180910390f35b34801561055957600080fd5b50610574600480360381019061056f9190612653565b611306565b6040516105819190612ae8565b60405180910390f35b60007f80ac58cd000000000000000000000000000000000000000000000000000000007bffffffffffffffffffffffffffffffffffffffffffffffffffffffff1916827bffffffffffffffffffffffffffffffffffffffffffffffffffffffff1916148061065557507f5b5e139f000000000000000000000000000000000000000000000000000000007bffffffffffffffffffffffffffffffffffffffffffffffffffffffff1916827bffffffffffffffffffffffffffffffffffffffffffffffffffffffff1916145b80610665575061066482611339565b5b9050919050565b60606000805461067b90613194565b80601f01602080910402602001604051908101604052809291908181526020018280546106a790613194565b80156106f45780601f106106c9576101008083540402835291602001916106f4565b820191906000526020600020905b8154815290600101906020018083116106d757829003601f168201915b5050505050905090565b6000610709826113a3565b6004600083815260200190815260200160002060009054906101000a900473ffffffffffffffffffffffffffffffffffffffff169050919050565b600061074f82610e03565b90508073ffffffffffffffffffffffffffffffffffffffff168373ffffffffffffffffffffffffffffffffffffffff1614156107c0576040517f08c379a00000000000000000000000000000000000000000000000000000000081526004016107b790612de7565b60405180910390fd5b8073ffffffffffffffffffffffffffffffffffffffff166107df6113ee565b73ffffffffffffffffffffffffffffffffffffffff16148061080e575061080d816108086113ee565b611272565b5b61084d576040517f08c379a000000000000000000000000000000000000000000000000000000000815260040161084490612d87565b60405180910390fd5b61085783836113f6565b505050565b600034670de0b6b3a76400007f00000000000000000000000000000000000000000000000000000000000000006108939190612fef565b8110156108d5576040517f08c379a00000000000000000000000000000000000000000000000000000000081526004016108cc90612c67565b60405180910390fd5b7f000000000000000000000000000000000000000000000000000000000000000073ffffffffffffffffffffffffffffffffffffffff16635d3b1d307f00000000000000000000000000000000000000000000000000000000000000007f000000000000000000000000000000000000000000000000000000000000000060027f000000000000000000000000000000000000000000000000000000000000000060016040518663ffffffff1660e01b8152600401610998959493929190612bae565b602060405180830381600087803b1580156109b257600080fd5b505af11580156109c6573d6000803e3d6000fd5b505050506040513d601f19601f820116820180604052508101906109ea9190612680565b9150336009600084815260200190815260200160002060006101000a81548173ffffffffffffffffffffffffffffffffffffffff021916908373ffffffffffffffffffffffffffffffffffffffff1602179055507f0ec1d56326083565f7bd9c30be70b2a4d17288e02bfe0efd84e51840816f0f6d8233604051610a6f929190612e42565b60405180910390a15090565b7f000000000000000000000000000000000000000000000000000000000000000073ffffffffffffffffffffffffffffffffffffffff163373ffffffffffffffffffffffffffffffffffffffff1614610b2d57337f00000000000000000000000000000000000000000000000000000000000000006040517f1cf993f4000000000000000000000000000000000000000000000000000000008152600401610b24929190612b03565b60405180910390fd5b610b3782826114af565b5050565b610b4c610b466113ee565b82611649565b610b8b576040517f08c379a0000000000000000000000000000000000000000000000000000000008152600401610b8290612e07565b60405180910390fd5b610b968383836116de565b505050565b3373ffffffffffffffffffffffffffffffffffffffff16600760009054906101000a900473ffffffffffffffffffffffffffffffffffffffff1673ffffffffffffffffffffffffffffffffffffffff1614610c2b576040517f08c379a0000000000000000000000000000000000000000000000000000000008152600401610c2290612ce7565b60405180910390fd5b600047905060003373ffffffffffffffffffffffffffffffffffffffff1682604051610c5690612ad3565b60006040518083038185875af1925050503d8060008114610c93576040519150601f19603f3d011682016040523d82523d6000602084013e610c98565b606091505b5050905080610cd3576040517f5226523a00000000000000000000000000000000000000000000000000000000815260040160405180910390fd5b5050565b600080600090506000610ce8610dd8565b905060005b60038111610d8057828510158015610d265750818160038110610d1357610d1261332d565b5b602002015183610d239190612f68565b85105b15610d4857806002811115610d3e57610d3d6132cf565b5b9350505050610db3565b818160038110610d5b57610d5a61332d565b5b602002015183610d6b9190612f68565b92508080610d78906131f7565b915050610ced565b506040517fc49cf25d00000000000000000000000000000000000000000000000000000000815260040160405180910390fd5b919050565b610dd383838360405180602001604052806000815250611047565b505050565b610de06121e5565b6040518060600160405280600a8152602001601e81526020016064815250905090565b6000806002600084815260200190815260200160002060009054906101000a900473ffffffffffffffffffffffffffffffffffffffff169050600073ffffffffffffffffffffffffffffffffffffffff168173ffffffffffffffffffffffffffffffffffffffff161415610eac576040517f08c379a0000000000000000000000000000000000000000000000000000000008152600401610ea390612dc7565b60405180910390fd5b80915050919050565b6000600a54905090565b60008073ffffffffffffffffffffffffffffffffffffffff168273ffffffffffffffffffffffffffffffffffffffff161415610f30576040517f08c379a0000000000000000000000000000000000000000000000000000000008152600401610f2790612d47565b60405180910390fd5b600360008373ffffffffffffffffffffffffffffffffffffffff1673ffffffffffffffffffffffffffffffffffffffff168152602001908152602001600020549050919050565b60007f0000000000000000000000000000000000000000000000000000000000000000905090565b606060018054610fae90613194565b80601f0160208091040260200160405190810160405280929190818152602001828054610fda90613194565b80156110275780601f10610ffc57610100808354040283529160200191611027565b820191906000526020600020905b81548152906001019060200180831161100a57829003601f168201915b5050505050905090565b61104361103c6113ee565b8383611945565b5050565b6110586110526113ee565b83611649565b611097576040517f08c379a000000000000000000000000000000000000000000000000000000000815260040161108e90612e07565b60405180910390fd5b6110a384848484611ab2565b50505050565b60606110b4826113a3565b60006006600084815260200190815260200160002080546110d490613194565b80601f016020809104026020016040519081016040528092919081815260200182805461110090613194565b801561114d5780601f106111225761010080835404028352916020019161114d565b820191906000526020600020905b81548152906001019060200180831161113057829003601f168201915b50505050509050600061115e611b0e565b90506000815114156111745781925050506111b7565b6000825111156111a9578082604051602001611191929190612aaf565b604051602081830303815290604052925050506111b7565b6111b284611b25565b925050505b919050565b600a5481565b6060600b82815481106111d8576111d761332d565b5b9060005260206000200180546111ed90613194565b80601f016020809104026020016040519081016040528092919081815260200182805461121990613194565b80156112665780601f1061123b57610100808354040283529160200191611266565b820191906000526020600020905b81548152906001019060200180831161124957829003601f168201915b50505050509050919050565b6000600560008473ffffffffffffffffffffffffffffffffffffffff1673ffffffffffffffffffffffffffffffffffffffff16815260200190815260200160002060008373ffffffffffffffffffffffffffffffffffffffff1673ffffffffffffffffffffffffffffffffffffffff16815260200190815260200160002060009054906101000a900460ff16905092915050565b60096020528060005260406000206000915054906101000a900473ffffffffffffffffffffffffffffffffffffffff1681565b60007f01ffc9a7000000000000000000000000000000000000000000000000000000007bffffffffffffffffffffffffffffffffffffffffffffffffffffffff1916827bffffffffffffffffffffffffffffffffffffffffffffffffffffffff1916149050919050565b6113ac81611b8d565b6113eb576040517f08c379a00000000000000000000000000000000000000000000000000000000081526004016113e290612dc7565b60405180910390fd5b50565b600033905090565b816004600083815260200190815260200160002060006101000a81548173ffffffffffffffffffffffffffffffffffffffff021916908373ffffffffffffffffffffffffffffffffffffffff160217905550808273ffffffffffffffffffffffffffffffffffffffff1661146983610e03565b73ffffffffffffffffffffffffffffffffffffffff167f8c5be1e5ebec7d5bd14f71427d1e84f3dd0314c0f7b2291e5b200ac8c7c3b92560405160405180910390a45050565b60006009600084815260200190815260200160002060009054906101000a900473ffffffffffffffffffffffffffffffffffffffff1690506000600a54905060006064846000815181106115065761150561332d565b5b60200260200101516115189190613240565b9050600061152582610cd7565b90506001600a546115369190612f68565b600a819055506115468484611bf9565b61160883600b83600281111561155f5761155e6132cf565b5b815481106115705761156f61332d565b5b90600052602060002001805461158590613194565b80601f01602080910402602001604051908101604052809291908181526020018280546115b190613194565b80156115fe5780601f106115d3576101008083540402835291602001916115fe565b820191906000526020600020905b8154815290600101906020018083116115e157829003601f168201915b5050505050611c17565b7fab79897476febbd649710b1bd1dc3e93a316d3dee65f65b022ab89a4b7e206b58185604051611639929190612c1c565b60405180910390a1505050505050565b60008061165583610e03565b90508073ffffffffffffffffffffffffffffffffffffffff168473ffffffffffffffffffffffffffffffffffffffff16148061169757506116968185611272565b5b806116d557508373ffffffffffffffffffffffffffffffffffffffff166116bd846106fe565b73ffffffffffffffffffffffffffffffffffffffff16145b91505092915050565b8273ffffffffffffffffffffffffffffffffffffffff166116fe82610e03565b73ffffffffffffffffffffffffffffffffffffffff1614611754576040517f08c379a000000000000000000000000000000000000000000000000000000000815260040161174b90612ca7565b60405180910390fd5b600073ffffffffffffffffffffffffffffffffffffffff168273ffffffffffffffffffffffffffffffffffffffff1614156117c4576040517f08c379a00000000000000000000000000000000000000000000000000000000081526004016117bb90612d07565b60405180910390fd5b6117cf838383611c8b565b6117da6000826113f6565b6001600360008573ffffffffffffffffffffffffffffffffffffffff1673ffffffffffffffffffffffffffffffffffffffff168152602001908152602001600020600082825461182a9190613049565b925050819055506001600360008473ffffffffffffffffffffffffffffffffffffffff1673ffffffffffffffffffffffffffffffffffffffff16815260200190815260200160002060008282546118819190612f68565b92505081905550816002600083815260200190815260200160002060006101000a81548173ffffffffffffffffffffffffffffffffffffffff021916908373ffffffffffffffffffffffffffffffffffffffff160217905550808273ffffffffffffffffffffffffffffffffffffffff168473ffffffffffffffffffffffffffffffffffffffff167fddf252ad1be2c89b69c2b068fc378daa952ba7f163c4a11628f55a4df523b3ef60405160405180910390a4611940838383611c90565b505050565b8173ffffffffffffffffffffffffffffffffffffffff168373ffffffffffffffffffffffffffffffffffffffff1614156119b4576040517f08c379a00000000000000000000000000000000000000000000000000000000081526004016119ab90612d27565b60405180910390fd5b80600560008573ffffffffffffffffffffffffffffffffffffffff1673ffffffffffffffffffffffffffffffffffffffff16815260200190815260200160002060008473ffffffffffffffffffffffffffffffffffffffff1673ffffffffffffffffffffffffffffffffffffffff16815260200190815260200160002060006101000a81548160ff0219169083151502179055508173ffffffffffffffffffffffffffffffffffffffff168373ffffffffffffffffffffffffffffffffffffffff167f17307eab39ab6107e8899845ad3d59bd9653f200f220920489ca2b5937696c3183604051611aa59190612b93565b60405180910390a3505050565b611abd8484846116de565b611ac984848484611c95565b611b08576040517f08c379a0000000000000000000000000000000000000000000000000000000008152600401611aff90612c87565b60405180910390fd5b50505050565b606060405180602001604052806000815250905090565b6060611b30826113a3565b6000611b3a611b0e565b90506000815111611b5a5760405180602001604052806000815250611b85565b80611b6484611e2c565b604051602001611b75929190612aaf565b6040516020818303038152906040525b915050919050565b60008073ffffffffffffffffffffffffffffffffffffffff166002600084815260200190815260200160002060009054906101000a900473ffffffffffffffffffffffffffffffffffffffff1673ffffffffffffffffffffffffffffffffffffffff1614159050919050565b611c13828260405180602001604052806000815250611f8d565b5050565b611c2082611b8d565b611c5f576040517f08c379a0000000000000000000000000000000000000000000000000000000008152600401611c5690612d67565b60405180910390fd5b80600660008481526020019081526020016000209080519060200190611c86929190612207565b505050565b505050565b505050565b6000611cb68473ffffffffffffffffffffffffffffffffffffffff16611fe8565b15611e1f578373ffffffffffffffffffffffffffffffffffffffff1663150b7a02611cdf6113ee565b8786866040518563ffffffff1660e01b8152600401611d019493929190612b2c565b602060405180830381600087803b158015611d1b57600080fd5b505af1925050508015611d4c57506040513d601f19601f82011682018060405250810190611d499190612626565b60015b611dcf573d8060008114611d7c576040519150601f19603f3d011682016040523d82523d6000602084013e611d81565b606091505b50600081511415611dc7576040517f08c379a0000000000000000000000000000000000000000000000000000000008152600401611dbe90612c87565b60405180910390fd5b805181602001fd5b63150b7a0260e01b7bffffffffffffffffffffffffffffffffffffffffffffffffffffffff1916817bffffffffffffffffffffffffffffffffffffffffffffffffffffffff191614915050611e24565b600190505b949350505050565b60606000821415611e74576040518060400160405280600181526020017f30000000000000000000000000000000000000000000000000000000000000008152509050611f88565b600082905060005b60008214611ea6578080611e8f906131f7565b915050600a82611e9f9190612fbe565b9150611e7c565b60008167ffffffffffffffff811115611ec257611ec161335c565b5b6040519080825280601f01601f191660200182016040528015611ef45781602001600182028036833780820191505090505b5090505b60008514611f8157600182611f0d9190613049565b9150600a85611f1c9190613240565b6030611f289190612f68565b60f81b818381518110611f3e57611f3d61332d565b5b60200101907effffffffffffffffffffffffffffffffffffffffffffffffffffffffffffff1916908160001a905350600a85611f7a9190612fbe565b9450611ef8565b8093505050505b919050565b611f97838361200b565b611fa46000848484611c95565b611fe3576040517f08c379a0000000000000000000000000000000000000000000000000000000008152600401611fda90612c87565b60405180910390fd5b505050565b6000808273ffffffffffffffffffffffffffffffffffffffff163b119050919050565b600073ffffffffffffffffffffffffffffffffffffffff168273ffffffffffffffffffffffffffffffffffffffff16141561207b576040517f08c379a000000000000000000000000000000000000000000000000000000000815260040161207290612da7565b60405180910390fd5b61208481611b8d565b156120c4576040517f08c379a00000000000000000000000000000000000000000000000000000000081526004016120bb90612cc7565b60405180910390fd5b6120d060008383611c8b565b6001600360008473ffffffffffffffffffffffffffffffffffffffff1673ffffffffffffffffffffffffffffffffffffffff16815260200190815260200160002060008282546121209190612f68565b92505081905550816002600083815260200190815260200160002060006101000a81548173ffffffffffffffffffffffffffffffffffffffff021916908373ffffffffffffffffffffffffffffffffffffffff160217905550808273ffffffffffffffffffffffffffffffffffffffff16600073ffffffffffffffffffffffffffffffffffffffff167fddf252ad1be2c89b69c2b068fc378daa952ba7f163c4a11628f55a4df523b3ef60405160405180910390a46121e160008383611c90565b5050565b6040518060600160405280600390602082028036833780820191505090505090565b82805461221390613194565b90600052602060002090601f016020900481019282612235576000855561227c565b82601f1061224e57805160ff191683800117855561227c565b8280016001018555821561227c579182015b8281111561227b578251825591602001919060010190612260565b5b509050612289919061228d565b5090565b5b808211156122a657600081600090555060010161228e565b5090565b60006122bd6122b884612e90565b612e6b565b905080838252602082019050828560208602820111156122e0576122df613390565b5b60005b8581101561231057816122f6888261240c565b8452602084019350602083019250506001810190506122e3565b5050509392505050565b600061232d61232884612ebc565b612e6b565b90508281526020810184848401111561234957612348613395565b5b612354848285613152565b509392505050565b60008135905061236b81613760565b92915050565b600082601f8301126123865761238561338b565b5b81356123968482602086016122aa565b91505092915050565b6000813590506123ae81613777565b92915050565b6000813590506123c38161378e565b92915050565b6000815190506123d88161378e565b92915050565b600082601f8301126123f3576123f261338b565b5b813561240384826020860161231a565b91505092915050565b60008135905061241b816137a5565b92915050565b600081519050612430816137a5565b92915050565b60006020828403121561244c5761244b61339f565b5b600061245a8482850161235c565b91505092915050565b6000806040838503121561247a5761247961339f565b5b60006124888582860161235c565b92505060206124998582860161235c565b9150509250929050565b6000806000606084860312156124bc576124bb61339f565b5b60006124ca8682870161235c565b93505060206124db8682870161235c565b92505060406124ec8682870161240c565b9150509250925092565b600080600080608085870312156125105761250f61339f565b5b600061251e8782880161235c565b945050602061252f8782880161235c565b93505060406125408782880161240c565b925050606085013567ffffffffffffffff8111156125615761256061339a565b5b61256d878288016123de565b91505092959194509250565b600080604083850312156125905761258f61339f565b5b600061259e8582860161235c565b92505060206125af8582860161239f565b9150509250929050565b600080604083850312156125d0576125cf61339f565b5b60006125de8582860161235c565b92505060206125ef8582860161240c565b9150509250929050565b60006020828403121561260f5761260e61339f565b5b600061261d848285016123b4565b91505092915050565b60006020828403121561263c5761263b61339f565b5b600061264a848285016123c9565b91505092915050565b6000602082840312156126695761266861339f565b5b60006126778482850161240c565b91505092915050565b6000602082840312156126965761269561339f565b5b60006126a484828501612421565b91505092915050565b600080604083850312156126c4576126c361339f565b5b60006126d28582860161240c565b925050602083013567ffffffffffffffff8111156126f3576126f261339a565b5b6126ff85828601612371565b9150509250929050565b60006127158383612a73565b60208301905092915050565b61272a8161307d565b82525050565b61273981612ef7565b6127438184612f25565b925061274e82612eed565b8060005b8381101561277f5781516127668782612709565b965061277183612f18565b925050600181019050612752565b505050505050565b6127908161308f565b82525050565b61279f8161309b565b82525050565b60006127b082612f02565b6127ba8185612f30565b93506127ca818560208601613161565b6127d3816133a4565b840191505092915050565b6127e781613140565b82525050565b60006127f882612f0d565b6128028185612f4c565b9350612812818560208601613161565b61281b816133a4565b840191505092915050565b600061283182612f0d565b61283b8185612f5d565b935061284b818560208601613161565b80840191505092915050565b6000612864603183612f4c565b915061286f826133b5565b604082019050919050565b6000612887603283612f4c565b915061289282613404565b604082019050919050565b60006128aa602583612f4c565b91506128b582613453565b604082019050919050565b60006128cd601c83612f4c565b91506128d8826134a2565b602082019050919050565b60006128f0601d83612f4c565b91506128fb826134cb565b602082019050919050565b6000612913602483612f4c565b915061291e826134f4565b604082019050919050565b6000612936601983612f4c565b915061294182613543565b602082019050919050565b6000612959602983612f4c565b91506129648261356c565b604082019050919050565b600061297c602e83612f4c565b9150612987826135bb565b604082019050919050565b600061299f603e83612f4c565b91506129aa8261360a565b604082019050919050565b60006129c2602083612f4c565b91506129cd82613659565b602082019050919050565b60006129e5601883612f4c565b91506129f082613682565b602082019050919050565b6000612a08602183612f4c565b9150612a13826136ab565b604082019050919050565b6000612a2b600083612f41565b9150612a36826136fa565b600082019050919050565b6000612a4e602e83612f4c565b9150612a59826136fd565b604082019050919050565b612a6d816130e4565b82525050565b612a7c81613112565b82525050565b612a8b81613112565b82525050565b612a9a8161311c565b82525050565b612aa98161312c565b82525050565b6000612abb8285612826565b9150612ac78284612826565b91508190509392505050565b6000612ade82612a1e565b9150819050919050565b6000602082019050612afd6000830184612721565b92915050565b6000604082019050612b186000830185612721565b612b256020830184612721565b9392505050565b6000608082019050612b416000830187612721565b612b4e6020830186612721565b612b5b6040830185612a82565b8181036060830152612b6d81846127a5565b905095945050505050565b6000606082019050612b8d6000830184612730565b92915050565b6000602082019050612ba86000830184612787565b92915050565b600060a082019050612bc36000830188612796565b612bd06020830187612aa0565b612bdd6040830186612a64565b612bea6060830185612a91565b612bf76080830184612a91565b9695505050505050565b6000602082019050612c1660008301846127de565b92915050565b6000604082019050612c3160008301856127de565b612c3e6020830184612721565b9392505050565b60006020820190508181036000830152612c5f81846127ed565b905092915050565b60006020820190508181036000830152612c8081612857565b9050919050565b60006020820190508181036000830152612ca08161287a565b9050919050565b60006020820190508181036000830152612cc08161289d565b9050919050565b60006020820190508181036000830152612ce0816128c0565b9050919050565b60006020820190508181036000830152612d00816128e3565b9050919050565b60006020820190508181036000830152612d2081612906565b9050919050565b60006020820190508181036000830152612d4081612929565b9050919050565b60006020820190508181036000830152612d608161294c565b9050919050565b60006020820190508181036000830152612d808161296f565b9050919050565b60006020820190508181036000830152612da081612992565b9050919050565b60006020820190508181036000830152612dc0816129b5565b9050919050565b60006020820190508181036000830152612de0816129d8565b9050919050565b60006020820190508181036000830152612e00816129fb565b9050919050565b60006020820190508181036000830152612e2081612a41565b9050919050565b6000602082019050612e3c6000830184612a82565b92915050565b6000604082019050612e576000830185612a82565b612e646020830184612721565b9392505050565b6000612e75612e86565b9050612e8182826131c6565b919050565b6000604051905090565b600067ffffffffffffffff821115612eab57612eaa61335c565b5b602082029050602081019050919050565b600067ffffffffffffffff821115612ed757612ed661335c565b5b612ee0826133a4565b9050602081019050919050565b6000819050919050565b600060039050919050565b600081519050919050565b600081519050919050565b6000602082019050919050565b600081905092915050565b600082825260208201905092915050565b600081905092915050565b600082825260208201905092915050565b600081905092915050565b6000612f7382613112565b9150612f7e83613112565b9250827fffffffffffffffffffffffffffffffffffffffffffffffffffffffffffffffff03821115612fb357612fb2613271565b5b828201905092915050565b6000612fc982613112565b9150612fd483613112565b925082612fe457612fe36132a0565b5b828204905092915050565b6000612ffa82613112565b915061300583613112565b9250817fffffffffffffffffffffffffffffffffffffffffffffffffffffffffffffffff048311821515161561303e5761303d613271565b5b828202905092915050565b600061305482613112565b915061305f83613112565b92508282101561307257613071613271565b5b828203905092915050565b6000613088826130f2565b9050919050565b60008115159050919050565b6000819050919050565b60007fffffffff0000000000000000000000000000000000000000000000000000000082169050919050565b60008190506130df8261374c565b919050565b600061ffff82169050919050565b600073ffffffffffffffffffffffffffffffffffffffff82169050919050565b6000819050919050565b600063ffffffff82169050919050565b600067ffffffffffffffff82169050919050565b600061314b826130d1565b9050919050565b82818337600083830152505050565b60005b8381101561317f578082015181840152602081019050613164565b8381111561318e576000848401525b50505050565b600060028204905060018216806131ac57607f821691505b602082108114156131c0576131bf6132fe565b5b50919050565b6131cf826133a4565b810181811067ffffffffffffffff821117156131ee576131ed61335c565b5b80604052505050565b600061320282613112565b91507fffffffffffffffffffffffffffffffffffffffffffffffffffffffffffffffff82141561323557613234613271565b5b600182019050919050565b600061324b82613112565b915061325683613112565b925082613266576132656132a0565b5b828206905092915050565b7f4e487b7100000000000000000000000000000000000000000000000000000000600052601160045260246000fd5b7f4e487b7100000000000000000000000000000000000000000000000000000000600052601260045260246000fd5b7f4e487b7100000000000000000000000000000000000000000000000000000000600052602160045260246000fd5b7f4e487b7100000000000000000000000000000000000000000000000000000000600052602260045260246000fd5b7f4e487b7100000000000000000000000000000000000000000000000000000000600052603260045260246000fd5b7f4e487b7100000000000000000000000000000000000000000000000000000000600052604160045260246000fd5b600080fd5b600080fd5b600080fd5b600080fd5b600080fd5b6000601f19601f8301169050919050565b7f7175616e746974617469766f20696e766961746f206e6f6e207375666669636960008201527f656e746520616c20706167616d656e746f000000000000000000000000000000602082015250565b7f4552433732313a207472616e7366657220746f206e6f6e20455243373231526560008201527f63656976657220696d706c656d656e7465720000000000000000000000000000602082015250565b7f4552433732313a207472616e736665722066726f6d20696e636f72726563742060008201527f6f776e6572000000000000000000000000000000000000000000000000000000602082015250565b7f4552433732313a20746f6b656e20616c7265616479206d696e74656400000000600082015250565b7f4e6f6e2073656920696c2063726561746f7265206465676c69204e4654000000600082015250565b7f4552433732313a207472616e7366657220746f20746865207a65726f2061646460008201527f7265737300000000000000000000000000000000000000000000000000000000602082015250565b7f4552433732313a20617070726f766520746f2063616c6c657200000000000000600082015250565b7f4552433732313a2061646472657373207a65726f206973206e6f74206120766160008201527f6c6964206f776e65720000000000000000000000000000000000000000000000602082015250565b7f45524337323155524953746f726167653a2055524920736574206f66206e6f6e60008201527f6578697374656e7420746f6b656e000000000000000000000000000000000000602082015250565b7f4552433732313a20617070726f76652063616c6c6572206973206e6f7420746f60008201527f6b656e206f776e6572206e6f7220617070726f76656420666f7220616c6c0000602082015250565b7f4552433732313a206d696e7420746f20746865207a65726f2061646472657373600082015250565b7f4552433732313a20696e76616c696420746f6b656e2049440000000000000000600082015250565b7f4552433732313a20617070726f76616c20746f2063757272656e74206f776e6560008201527f7200000000000000000000000000000000000000000000000000000000000000602082015250565b50565b7f4552433732313a2063616c6c6572206973206e6f7420746f6b656e206f776e6560008201527f72206e6f7220617070726f766564000000000000000000000000000000000000602082015250565b6003811061375d5761375c6132cf565b5b50565b6137698161307d565b811461377457600080fd5b50565b6137808161308f565b811461378b57600080fd5b50565b613797816130a5565b81146137a257600080fd5b50565b6137ae81613112565b81146137b957600080fd5b5056fea2646970667358221220613c8d73cb4feed37f47d25331ca84675d4b88563e3a77aca20ee0d40cf7a89064736f6c63430008070033",
  "devdoc": {
    "kind": "dev",
    "methods": {
      "approve(address,uint256)": {
        "details": "See {IERC721-approve}."
      },
      "balanceOf(address)": {
        "details": "See {IERC721-balanceOf}."
      },
      "getApproved(uint256)": {
        "details": "See {IERC721-getApproved}."
      },
      "isApprovedForAll(address,address)": {
        "details": "See {IERC721-isApprovedForAll}."
      },
      "name()": {
        "details": "See {IERC721Metadata-name}."
      },
      "ownerOf(uint256)": {
        "details": "See {IERC721-ownerOf}."
      },
      "safeTransferFrom(address,address,uint256)": {
        "details": "See {IERC721-safeTransferFrom}."
      },
      "safeTransferFrom(address,address,uint256,bytes)": {
        "details": "See {IERC721-safeTransferFrom}."
      },
      "setApprovalForAll(address,bool)": {
        "details": "See {IERC721-setApprovalForAll}."
      },
      "supportsInterface(bytes4)": {
        "details": "See {IERC165-supportsInterface}."
      },
      "symbol()": {
        "details": "See {IERC721Metadata-symbol}."
      },
      "tokenURI(uint256)": {
        "details": "See {IERC721Metadata-tokenURI}."
      },
      "transferFrom(address,address,uint256)": {
        "details": "See {IERC721-transferFrom}."
      }
    },
    "version": 1
  },
  "userdoc": {
    "kind": "user",
    "methods": {},
    "version": 1
  },
  "storageLayout": {
    "storage": [
      {
        "astId": 1183,
        "contract": "contracts/RandomIPFS.sol:RandomIPFS",
        "label": "_name",
        "offset": 0,
        "slot": "0",
        "type": "t_string_storage"
      },
      {
        "astId": 1185,
        "contract": "contracts/RandomIPFS.sol:RandomIPFS",
        "label": "_symbol",
        "offset": 0,
        "slot": "1",
        "type": "t_string_storage"
      },
      {
        "astId": 1189,
        "contract": "contracts/RandomIPFS.sol:RandomIPFS",
        "label": "_owners",
        "offset": 0,
        "slot": "2",
        "type": "t_mapping(t_uint256,t_address)"
      },
      {
        "astId": 1193,
        "contract": "contracts/RandomIPFS.sol:RandomIPFS",
        "label": "_balances",
        "offset": 0,
        "slot": "3",
        "type": "t_mapping(t_address,t_uint256)"
      },
      {
        "astId": 1197,
        "contract": "contracts/RandomIPFS.sol:RandomIPFS",
        "label": "_tokenApprovals",
        "offset": 0,
        "slot": "4",
        "type": "t_mapping(t_uint256,t_address)"
      },
      {
        "astId": 1203,
        "contract": "contracts/RandomIPFS.sol:RandomIPFS",
        "label": "_operatorApprovals",
        "offset": 0,
        "slot": "5",
        "type": "t_mapping(t_address,t_mapping(t_address,t_bool))"
      },
      {
        "astId": 2171,
        "contract": "contracts/RandomIPFS.sol:RandomIPFS",
        "label": "_tokenURIs",
        "offset": 0,
        "slot": "6",
        "type": "t_mapping(t_uint256,t_string_storage)"
      },
      {
        "astId": 3281,
        "contract": "contracts/RandomIPFS.sol:RandomIPFS",
        "label": "owner",
        "offset": 0,
        "slot": "7",
        "type": "t_address"
      },
      {
        "astId": 3283,
        "contract": "contracts/RandomIPFS.sol:RandomIPFS",
        "label": "amountEarn",
        "offset": 0,
        "slot": "8",
        "type": "t_uint256"
      },
      {
        "astId": 3302,
        "contract": "contracts/RandomIPFS.sol:RandomIPFS",
        "label": "s_requestID2Sender",
        "offset": 0,
        "slot": "9",
        "type": "t_mapping(t_uint256,t_address)"
      },
      {
        "astId": 3304,
        "contract": "contracts/RandomIPFS.sol:RandomIPFS",
        "label": "tokenCounter",
        "offset": 0,
        "slot": "10",
        "type": "t_uint256"
      },
      {
        "astId": 3310,
        "contract": "contracts/RandomIPFS.sol:RandomIPFS",
        "label": "NFTTokenUris",
        "offset": 0,
        "slot": "11",
        "type": "t_array(t_string_storage)dyn_storage"
      }
    ],
    "types": {
      "t_address": {
        "encoding": "inplace",
        "label": "address",
        "numberOfBytes": "20"
      },
      "t_array(t_string_storage)dyn_storage": {
        "base": "t_string_storage",
        "encoding": "dynamic_array",
        "label": "string[]",
        "numberOfBytes": "32"
      },
      "t_bool": {
        "encoding": "inplace",
        "label": "bool",
        "numberOfBytes": "1"
      },
      "t_mapping(t_address,t_bool)": {
        "encoding": "mapping",
        "key": "t_address",
        "label": "mapping(address => bool)",
        "numberOfBytes": "32",
        "value": "t_bool"
      },
      "t_mapping(t_address,t_mapping(t_address,t_bool))": {
        "encoding": "mapping",
        "key": "t_address",
        "label": "mapping(address => mapping(address => bool))",
        "numberOfBytes": "32",
        "value": "t_mapping(t_address,t_bool)"
      },
      "t_mapping(t_address,t_uint256)": {
        "encoding": "mapping",
        "key": "t_address",
        "label": "mapping(address => uint256)",
        "numberOfBytes": "32",
        "value": "t_uint256"
      },
      "t_mapping(t_uint256,t_address)": {
        "encoding": "mapping",
        "key": "t_uint256",
        "label": "mapping(uint256 => address)",
        "numberOfBytes": "32",
        "value": "t_address"
      },
      "t_mapping(t_uint256,t_string_storage)": {
        "encoding": "mapping",
        "key": "t_uint256",
        "label": "mapping(uint256 => string)",
        "numberOfBytes": "32",
        "value": "t_string_storage"
      },
      "t_string_storage": {
        "encoding": "bytes",
        "label": "string",
        "numberOfBytes": "32"
      },
      "t_uint256": {
        "encoding": "inplace",
        "label": "uint256",
        "numberOfBytes": "32"
      }
    }
  }
}